{"contracts/TimelockVault.sol":{"TimelockVault":{"abi":[{"inputs":[{"internalType":"address","name":"_community","type":"address"},{"internalType":"address","name":"_factory","type":"address"}],"stateMutability":"nonpayable","type":"constructor"},{"inputs":[{"internalType":"address","name":"token","type":"address"}],"name":"SafeERC20FailedOperation","type":"error"},{"anonymous":false,"inputs":[{"indexed":true,"internalType":"uint256","name":"raffleId","type":"uint256"},{"indexed":true,"internalType":"address","name":"token","type":"address"},{"indexed":false,"internalType":"uint256","name":"totalPaid","type":"uint256"}],"name":"BatchPaid","type":"event"},{"anonymous":false,"inputs":[{"indexed":true,"internalType":"uint256","name":"raffleId","type":"uint256"},{"indexed":true,"internalType":"address","name":"token","type":"address"}],"name":"Disbursed","type":"event"},{"anonymous":false,"inputs":[{"indexed":true,"internalType":"uint256","name":"raffleId","type":"uint256"},{"indexed":true,"internalType":"address","name":"token","type":"address"},{"indexed":false,"internalType":"uint256","name":"amount","type":"uint256"},{"indexed":false,"internalType":"uint64","name":"endTime","type":"uint64"}],"name":"Locked","type":"event"},{"anonymous":false,"inputs":[{"indexed":true,"internalType":"uint256","name":"raffleId","type":"uint256"},{"indexed":true,"internalType":"address","name":"token","type":"address"},{"indexed":true,"internalType":"address","name":"to","type":"address"},{"indexed":false,"internalType":"uint256","name":"amount","type":"uint256"}],"name":"Paid","type":"event"},{"anonymous":false,"inputs":[{"indexed":true,"internalType":"uint256","name":"raffleId","type":"uint256"},{"indexed":true,"internalType":"address","name":"token","type":"address"},{"indexed":false,"internalType":"uint256","name":"amount","type":"uint256"}],"name":"Unlocked","type":"event"},{"anonymous":false,"inputs":[{"indexed":true,"internalType":"address","name":"token","type":"address"},{"indexed":true,"internalType":"address","name":"to","type":"address"},{"indexed":false,"internalType":"uint256","name":"amount","type":"uint256"}],"name":"Withdrawn","type":"event"},{"inputs":[{"internalType":"uint256","name":"raffleId","type":"uint256"},{"internalType":"address","name":"token","type":"address"},{"internalType":"address[]","name":"tos","type":"address[]"},{"internalType":"uint256[]","name":"amounts","type":"uint256[]"}],"name":"batchPay","outputs":[],"stateMutability":"nonpayable","type":"function"},{"inputs":[{"internalType":"uint256","name":"raffleId","type":"uint256"},{"internalType":"address","name":"token","type":"address"}],"name":"canDisburse","outputs":[{"internalType":"bool","name":"","type":"bool"}],"stateMutability":"view","type":"function"},{"inputs":[],"name":"community","outputs":[{"internalType":"address","name":"","type":"address"}],"stateMutability":"view","type":"function"},{"inputs":[],"name":"factory","outputs":[{"internalType":"address","name":"","type":"address"}],"stateMutability":"view","type":"function"},{"inputs":[{"internalType":"address","name":"token","type":"address"}],"name":"getAvailable","outputs":[{"internalType":"uint256","name":"","type":"uint256"}],"stateMutability":"view","type":"function"},{"inputs":[{"internalType":"address","name":"token","type":"address"}],"name":"getBalance","outputs":[{"internalType":"uint256","name":"","type":"uint256"}],"stateMutability":"view","type":"function"},{"inputs":[{"internalType":"uint256","name":"raffleId","type":"uint256"},{"internalType":"address","name":"token","type":"address"},{"internalType":"uint256","name":"amount","type":"uint256"},{"internalType":"uint64","name":"endTime","type":"uint64"}],"name":"lockFunds","outputs":[],"stateMutability":"nonpayable","type":"function"},{"inputs":[{"internalType":"uint256","name":"","type":"uint256"},{"internalType":"address","name":"","type":"address"}],"name":"locks","outputs":[{"internalType":"uint256","name":"amount","type":"uint256"},{"internalType":"uint64","name":"endTime","type":"uint64"},{"internalType":"bool","name":"locked","type":"bool"},{"internalType":"bool","name":"disbursed","type":"bool"},{"internalType":"uint256","name":"paid","type":"uint256"}],"stateMutability":"view","type":"function"},{"inputs":[{"internalType":"address","name":"","type":"address"}],"name":"reservedTotal","outputs":[{"internalType":"uint256","name":"","type":"uint256"}],"stateMutability":"view","type":"function"},{"inputs":[{"internalType":"address","name":"token","type":"address"},{"internalType":"address","name":"to","type":"address"},{"internalType":"uint256","name":"amount","type":"uint256"}],"name":"sendFee","outputs":[],"stateMutability":"nonpayable","type":"function"},{"inputs":[{"internalType":"uint256","name":"raffleId","type":"uint256"},{"internalType":"address","name":"token","type":"address"}],"name":"unlockFunds","outputs":[],"stateMutability":"nonpayable","type":"function"},{"inputs":[{"internalType":"address","name":"token","type":"address"},{"internalType":"address","name":"to","type":"address"},{"internalType":"uint256","name":"amount","type":"uint256"}],"name":"withdrawAvailable","outputs":[],"stateMutability":"nonpayable","type":"function"},{"stateMutability":"payable","type":"receive"}],"evm":{"bytecode":{"linkReferences":{},"object":"60c060405234801561001057600080fd5b5060405161165f38038061165f83398101604081905261002f916100f9565b6001600160a01b03821661007e5760405162461bcd60e51b8152602060048201526011602482015270494e56414c49445f434f4d4d554e49545960781b60448201526064015b60405180910390fd5b6001600160a01b0381166100c65760405162461bcd60e51b815260206004820152600f60248201526e494e56414c49445f464143544f525960881b6044820152606401610075565b6001600160a01b039182166080521660a05261012c565b80516001600160a01b03811681146100f457600080fd5b919050565b6000806040838503121561010c57600080fd5b610115836100dd565b9150610123602084016100dd565b90509250929050565b60805160a0516114e461017b600039600081816101ab01526106de015260008181610227015281816103300152818161053801528181610ae201528181610cb20152610e1c01526114e46000f3fe6080604052600436106100ab5760003560e01c8063c45a015511610064578063c45a015514610199578063cf745f6c146101e5578063dc1fb5a514610215578063e923c98a14610249578063f8b2cb4f146102e5578063f99dd23f1461030557600080fd5b80631ed9b4b9146100b75780633d357b02146100d95780634792dc871461010c5780637913525014610139578063988413dd14610159578063bb7706d71461017957600080fd5b366100b257005b600080fd5b3480156100c357600080fd5b506100d76100d236600461113e565b610325565b005b3480156100e557600080fd5b506100f96100f436600461117f565b6104fb565b6040519081526020015b60405180910390f35b34801561011857600080fd5b506100f961012736600461117f565b60006020819052908152604090205481565b34801561014557600080fd5b506100d76101543660046111a3565b61052d565b34801561016557600080fd5b506100d761017436600461121f565b6106d3565b34801561018557600080fd5b506100d761019436600461113e565b610ad7565b3480156101a557600080fd5b506101cd7f000000000000000000000000000000000000000000000000000000000000000081565b6040516001600160a01b039091168152602001610103565b3480156101f157600080fd5b506102056102003660046111a3565b610c55565b6040519015158152602001610103565b34801561022157600080fd5b506101cd7f000000000000000000000000000000000000000000000000000000000000000081565b34801561025557600080fd5b506102ae6102643660046111a3565b6001602081815260009384526040808520909152918352912080549181015460029091015467ffffffffffffffff82169160ff600160401b8204811692600160481b909204169085565b6040805195865267ffffffffffffffff9094166020860152911515928401929092529015156060830152608082015260a001610103565b3480156102f157600080fd5b506100f961030036600461117f565b610d92565b34801561031157600080fd5b506100d76103203660046112c6565b610e11565b336001600160a01b037f000000000000000000000000000000000000000000000000000000000000000016146103765760405162461bcd60e51b815260040161036d90611310565b60405180910390fd5b600081116103965760405162461bcd60e51b815260040161036d90611338565b6001600160a01b0383166000908152602081905260408120546103b885610d92565b6103c29190611373565b90508181101561040d5760405162461bcd60e51b8152602060048201526016602482015275494e53554646494349454e545f415641494c41424c4560501b604482015260640161036d565b6001600160a01b038416610494576000836001600160a01b03168360405160006040518083038185875af1925050503d8060008114610468576040519150601f19603f3d011682016040523d82523d6000602084013e61046d565b606091505b505090508061048e5760405162461bcd60e51b815260040161036d90611386565b506104a8565b6104a86001600160a01b038516848461105e565b826001600160a01b0316846001600160a01b03167fd1c19fbcd4551a5edfb66d43d2e337c04837afda3482b42bdf569a8fccdae5fb846040516104ed91815260200190565b60405180910390a350505050565b6001600160a01b03811660009081526020819052604081205461051d83610d92565b6105279190611373565b92915050565b336001600160a01b037f000000000000000000000000000000000000000000000000000000000000000016146105755760405162461bcd60e51b815260040161036d90611310565b60008281526001602081815260408084206001600160a01b038616855290915290912090810154600160401b900460ff166105df5760405162461bcd60e51b815260206004820152600a6024820152691393d517d313d0d2d15160b21b604482015260640161036d565b6001810154600160481b900460ff161561062f5760405162461bcd60e51b81526020600482015260116024820152701053149150511657d11254d0955494d151607a1b604482015260640161036d565b80546001600160a01b03831660009081526020819052604081208054839290610659908490611373565b909155505060008481526001602081815260408084206001600160a01b0388168086529252808420848155928301805469ffffffffffffffffffff191690556002909201929092555185907ff1c2201ab8d3afe0ab6336204843b66bb25c5f27d6de3490c9a463fd18d294a9906104ed9085815260200190565b336001600160a01b037f0000000000000000000000000000000000000000000000000000000000000000161461073a5760405162461bcd60e51b815260206004820152600c60248201526b4f4e4c595f464143544f525960a01b604482015260640161036d565b8281146107785760405162461bcd60e51b815260206004820152600c60248201526b0988a9cbe9a92a69a82a886960a31b604482015260640161036d565b6107828686610c55565b6107c05760405162461bcd60e51b815260206004820152600f60248201526e54494d454c4f434b5f41435449564560881b604482015260640161036d565b60008681526001602090815260408083206001600160a01b0389168452909152812090805b85811015610a2a576000878783818110610801576108016113b3565b9050602002016020810190610816919061117f565b9050600086868481811061082c5761082c6113b3565b60200291909101359150506001600160a01b03821661087a5760405162461bcd60e51b815260206004820152600a602482015269494e56414c49445f544f60b01b604482015260640161036d565b6000811161089a5760405162461bcd60e51b815260040161036d90611338565b845460028601546108ac9083906113c9565b11156108e45760405162461bcd60e51b81526020600482015260076024820152664f56455250415960c81b604482015260640161036d565b6001600160a01b038a1661096b576000826001600160a01b03168260405160006040518083038185875af1925050503d806000811461093f576040519150601f19603f3d011682016040523d82523d6000602084013e610944565b606091505b50509050806109655760405162461bcd60e51b815260040161036d90611386565b5061097f565b61097f6001600160a01b038b16838361105e565b8085600201600082825461099391906113c9565b90915550506001600160a01b038a16600090815260208190526040812080548392906109c0908490611373565b909155506109d0905081856113c9565b9350816001600160a01b03168a6001600160a01b03168c7f2a156326ec22774ffa31f45f5f5990405e41eb6fe44e1d600934ab445cf3c0c184604051610a1891815260200190565b60405180910390a450506001016107e5565b50866001600160a01b0316887f32783f5493ddd65b3d8bb7bcbe6c08b4d3266223afd87f940a456dcd86074b6e83604051610a6791815260200190565b60405180910390a38154600283015403610acd5760018201805469ff0000000000000000001916600160481b1790556040516001600160a01b0388169089907fa6efdaf5c9f54b66d8444894d554fd5fbc60fd07836aedcc7eb5020fd187260290600090a35b5050505050505050565b336001600160a01b037f00000000000000000000000000000000000000000000000000000000000000001614610b1f5760405162461bcd60e51b815260040161036d90611310565b60008111610b3f5760405162461bcd60e51b815260040161036d90611338565b6001600160a01b038316600090815260208190526040812054610b6185610d92565b610b6b9190611373565b905081811015610bb45760405162461bcd60e51b8152602060048201526014602482015273494e53554646494349454e545f464f525f46454560601b604482015260640161036d565b6001600160a01b038416610c3b576000836001600160a01b03168360405160006040518083038185875af1925050503d8060008114610c0f576040519150601f19603f3d011682016040523d82523d6000602084013e610c14565b606091505b5050905080610c355760405162461bcd60e51b815260040161036d90611386565b50610c4f565b610c4f6001600160a01b038516848461105e565b50505050565b60008281526001602081815260408084206001600160a01b0386168552909152822090810154600160401b900460ff161580610c9c57506001810154600160481b900460ff165b15610cab576000915050610527565b60008060007f00000000000000000000000000000000000000000000000000000000000000006001600160a01b0316634b615a52886040518263ffffffff1660e01b8152600401610cfe91815260200190565b61010060405180830381865afa158015610d1c573d6000803e3d6000fd5b505050506040513d601f19601f82011682018060405250810190610d4091906113f5565b975050505094505093505060008367ffffffffffffffff1642101590506000808463ffffffff16118015610d7a57508363ffffffff168310155b90508180610d855750805b9998505050505050505050565b60006001600160a01b038216610da9575047919050565b6040516370a0823160e01b81523060048201526001600160a01b038316906370a0823190602401602060405180830381865afa158015610ded573d6000803e3d6000fd5b505050506040513d601f19601f820116820180604052508101906105279190611495565b336001600160a01b037f00000000000000000000000000000000000000000000000000000000000000001614610e595760405162461bcd60e51b815260040161036d90611310565b428167ffffffffffffffff1611610ea45760405162461bcd60e51b815260206004820152600f60248201526e1153911512535157d25397d41054d5608a1b604482015260640161036d565b60008211610ec45760405162461bcd60e51b815260040161036d90611338565b60008481526001602081815260408084206001600160a01b038816855290915290912090810154600160401b900460ff1615610f335760405162461bcd60e51b815260206004820152600e60248201526d1053149150511657d313d0d2d15160921b604482015260640161036d565b6000610f3e85610d92565b6001600160a01b03861660009081526020819052604081205491925090610f659083611373565b905084811015610fb05760405162461bcd60e51b8152602060048201526016602482015275494e53554646494349454e545f415641494c41424c4560501b604482015260640161036d565b84835560018301805468ffffffffffffffffff191667ffffffffffffffff861617600160401b1790556001600160a01b038616600090815260208190526040812080548792906110019084906113c9565b90915550506040805186815267ffffffffffffffff861660208201526001600160a01b0388169189917f1b2647ac67960126f97ff0f07f3f647fb18657e8c057387ca2caa1667fcacca5910160405180910390a350505050505050565b604080516001600160a01b038416602482015260448082018490528251808303909101815260649091019091526020810180516001600160e01b031663a9059cbb60e01b1790526110b09084906110b5565b505050565b600080602060008451602086016000885af1806110d8576040513d6000823e3d81fd5b50506000513d915081156110f05780600114156110fd565b6001600160a01b0384163b155b15610c4f57604051635274afe760e01b81526001600160a01b038516600482015260240161036d565b6001600160a01b038116811461113b57600080fd5b50565b60008060006060848603121561115357600080fd5b833561115e81611126565b9250602084013561116e81611126565b929592945050506040919091013590565b60006020828403121561119157600080fd5b813561119c81611126565b9392505050565b600080604083850312156111b657600080fd5b8235915060208301356111c881611126565b809150509250929050565b60008083601f8401126111e557600080fd5b50813567ffffffffffffffff8111156111fd57600080fd5b6020830191508360208260051b850101111561121857600080fd5b9250929050565b6000806000806000806080878903121561123857600080fd5b86359550602087013561124a81611126565b9450604087013567ffffffffffffffff81111561126657600080fd5b61127289828a016111d3565b909550935050606087013567ffffffffffffffff81111561129257600080fd5b61129e89828a016111d3565b979a9699509497509295939492505050565b67ffffffffffffffff8116811461113b57600080fd5b600080600080608085870312156112dc57600080fd5b8435935060208501356112ee81611126565b9250604085013591506060850135611305816112b0565b939692955090935050565b6020808252600e908201526d4f4e4c595f434f4d4d554e49545960901b604082015260600190565b6020808252600b908201526a16915493d7d05353d5539560aa1b604082015260600190565b634e487b7160e01b600052601160045260246000fd5b818103818111156105275761052761135d565b60208082526013908201527211551217d514905394d1915497d19052531151606a1b604082015260600190565b634e487b7160e01b600052603260045260246000fd5b808201808211156105275761052761135d565b805163ffffffff811681146113f057600080fd5b919050565b600080600080600080600080610100898b03121561141257600080fd5b885161141d81611126565b60208a015190985061142e816112b0565b965061143c60408a016113dc565b955061144a60608a016113dc565b9450608089015160ff8116811461146057600080fd5b60a08a015160c08b01519195509350801515811461147d57600080fd5b60e09990990151979a96995094979396929591945050565b6000602082840312156114a757600080fd5b505191905056fea26469706673582212206c65acea7247d87ed9a97e62f693d5de0bc72bbdbef865a2e83da45edde3295164736f6c634300081c0033","opcodes":"PUSH1 0xC0 PUSH1 0x40 MSTORE CALLVALUE DUP1 ISZERO PUSH2 0x10 JUMPI PUSH1 0x0 DUP1 REVERT JUMPDEST POP PUSH1 0x40 MLOAD PUSH2 0x165F CODESIZE SUB DUP1 PUSH2 0x165F DUP4 CODECOPY DUP2 ADD PUSH1 0x40 DUP2 SWAP1 MSTORE PUSH2 0x2F SWAP2 PUSH2 0xF9 JUMP JUMPDEST PUSH1 0x1 PUSH1 0x1 PUSH1 0xA0 SHL SUB DUP3 AND PUSH2 0x7E JUMPI PUSH1 0x40 MLOAD PUSH3 0x461BCD PUSH1 0xE5 SHL DUP2 MSTORE PUSH1 0x20 PUSH1 0x4 DUP3 ADD MSTORE PUSH1 0x11 PUSH1 0x24 DUP3 ADD MSTORE PUSH17 0x494E56414C49445F434F4D4D554E495459 PUSH1 0x78 SHL PUSH1 0x44 DUP3 ADD MSTORE PUSH1 0x64 ADD JUMPDEST PUSH1 0x40 MLOAD DUP1 SWAP2 SUB SWAP1 REVERT JUMPDEST PUSH1 0x1 PUSH1 0x1 PUSH1 0xA0 SHL SUB DUP2 AND PUSH2 0xC6 JUMPI PUSH1 0x40 MLOAD PUSH3 0x461BCD PUSH1 0xE5 SHL DUP2 MSTORE PUSH1 0x20 PUSH1 0x4 DUP3 ADD MSTORE PUSH1 0xF PUSH1 0x24 DUP3 ADD MSTORE PUSH15 0x494E56414C49445F464143544F5259 PUSH1 0x88 SHL PUSH1 0x44 DUP3 ADD MSTORE PUSH1 0x64 ADD PUSH2 0x75 JUMP JUMPDEST PUSH1 0x1 PUSH1 0x1 PUSH1 0xA0 SHL SUB SWAP2 DUP3 AND PUSH1 0x80 MSTORE AND PUSH1 0xA0 MSTORE PUSH2 0x12C JUMP JUMPDEST DUP1 MLOAD PUSH1 0x1 PUSH1 0x1 PUSH1 0xA0 SHL SUB DUP2 AND DUP2 EQ PUSH2 0xF4 JUMPI PUSH1 0x0 DUP1 REVERT JUMPDEST SWAP2 SWAP1 POP JUMP JUMPDEST PUSH1 0x0 DUP1 PUSH1 0x40 DUP4 DUP6 SUB SLT ISZERO PUSH2 0x10C JUMPI PUSH1 0x0 DUP1 REVERT JUMPDEST PUSH2 0x115 DUP4 PUSH2 0xDD JUMP JUMPDEST SWAP2 POP PUSH2 0x123 PUSH1 0x20 DUP5 ADD PUSH2 0xDD JUMP JUMPDEST SWAP1 POP SWAP3 POP SWAP3 SWAP1 POP JUMP JUMPDEST PUSH1 0x80 MLOAD PUSH1 0xA0 MLOAD PUSH2 0x14E4 PUSH2 0x17B PUSH1 0x0 CODECOPY PUSH1 0x0 DUP2 DUP2 PUSH2 0x1AB ADD MSTORE PUSH2 0x6DE ADD MSTORE PUSH1 0x0 DUP2 DUP2 PUSH2 0x227 ADD MSTORE DUP2 DUP2 PUSH2 0x330 ADD MSTORE DUP2 DUP2 PUSH2 0x538 ADD MSTORE DUP2 DUP2 PUSH2 0xAE2 ADD MSTORE DUP2 DUP2 PUSH2 0xCB2 ADD MSTORE PUSH2 0xE1C ADD MSTORE PUSH2 0x14E4 PUSH1 0x0 RETURN INVALID PUSH1 0x80 PUSH1 0x40 MSTORE PUSH1 0x4 CALLDATASIZE LT PUSH2 0xAB JUMPI PUSH1 0x0 CALLDATALOAD PUSH1 0xE0 SHR DUP1 PUSH4 0xC45A0155 GT PUSH2 0x64 JUMPI DUP1 PUSH4 0xC45A0155 EQ PUSH2 0x199 JUMPI DUP1 PUSH4 0xCF745F6C EQ PUSH2 0x1E5 JUMPI DUP1 PUSH4 0xDC1FB5A5 EQ PUSH2 0x215 JUMPI DUP1 PUSH4 0xE923C98A EQ PUSH2 0x249 JUMPI DUP1 PUSH4 0xF8B2CB4F EQ PUSH2 0x2E5 JUMPI DUP1 PUSH4 0xF99DD23F EQ PUSH2 0x305 JUMPI PUSH1 0x0 DUP1 REVERT JUMPDEST DUP1 PUSH4 0x1ED9B4B9 EQ PUSH2 0xB7 JUMPI DUP1 PUSH4 0x3D357B02 EQ PUSH2 0xD9 JUMPI DUP1 PUSH4 0x4792DC87 EQ PUSH2 0x10C JUMPI DUP1 PUSH4 0x79135250 EQ PUSH2 0x139 JUMPI DUP1 PUSH4 0x988413DD EQ PUSH2 0x159 JUMPI DUP1 PUSH4 0xBB7706D7 EQ PUSH2 0x179 JUMPI PUSH1 0x0 DUP1 REVERT JUMPDEST CALLDATASIZE PUSH2 0xB2 JUMPI STOP JUMPDEST PUSH1 0x0 DUP1 REVERT JUMPDEST CALLVALUE DUP1 ISZERO PUSH2 0xC3 JUMPI PUSH1 0x0 DUP1 REVERT JUMPDEST POP PUSH2 0xD7 PUSH2 0xD2 CALLDATASIZE PUSH1 0x4 PUSH2 0x113E JUMP JUMPDEST PUSH2 0x325 JUMP JUMPDEST STOP JUMPDEST CALLVALUE DUP1 ISZERO PUSH2 0xE5 JUMPI PUSH1 0x0 DUP1 REVERT JUMPDEST POP PUSH2 0xF9 PUSH2 0xF4 CALLDATASIZE PUSH1 0x4 PUSH2 0x117F JUMP JUMPDEST PUSH2 0x4FB JUMP JUMPDEST PUSH1 0x40 MLOAD SWAP1 DUP2 MSTORE PUSH1 0x20 ADD JUMPDEST PUSH1 0x40 MLOAD DUP1 SWAP2 SUB SWAP1 RETURN JUMPDEST CALLVALUE DUP1 ISZERO PUSH2 0x118 JUMPI PUSH1 0x0 DUP1 REVERT JUMPDEST POP PUSH2 0xF9 PUSH2 0x127 CALLDATASIZE PUSH1 0x4 PUSH2 0x117F JUMP JUMPDEST PUSH1 0x0 PUSH1 0x20 DUP2 SWAP1 MSTORE SWAP1 DUP2 MSTORE PUSH1 0x40 SWAP1 KECCAK256 SLOAD DUP2 JUMP JUMPDEST CALLVALUE DUP1 ISZERO PUSH2 0x145 JUMPI PUSH1 0x0 DUP1 REVERT JUMPDEST POP PUSH2 0xD7 PUSH2 0x154 CALLDATASIZE PUSH1 0x4 PUSH2 0x11A3 JUMP JUMPDEST PUSH2 0x52D JUMP JUMPDEST CALLVALUE DUP1 ISZERO PUSH2 0x165 JUMPI PUSH1 0x0 DUP1 REVERT JUMPDEST POP PUSH2 0xD7 PUSH2 0x174 CALLDATASIZE PUSH1 0x4 PUSH2 0x121F JUMP JUMPDEST PUSH2 0x6D3 JUMP JUMPDEST CALLVALUE DUP1 ISZERO PUSH2 0x185 JUMPI PUSH1 0x0 DUP1 REVERT JUMPDEST POP PUSH2 0xD7 PUSH2 0x194 CALLDATASIZE PUSH1 0x4 PUSH2 0x113E JUMP JUMPDEST PUSH2 0xAD7 JUMP JUMPDEST CALLVALUE DUP1 ISZERO PUSH2 0x1A5 JUMPI PUSH1 0x0 DUP1 REVERT JUMPDEST POP PUSH2 0x1CD PUSH32 0x0 DUP2 JUMP JUMPDEST PUSH1 0x40 MLOAD PUSH1 0x1 PUSH1 0x1 PUSH1 0xA0 SHL SUB SWAP1 SWAP2 AND DUP2 MSTORE PUSH1 0x20 ADD PUSH2 0x103 JUMP JUMPDEST CALLVALUE DUP1 ISZERO PUSH2 0x1F1 JUMPI PUSH1 0x0 DUP1 REVERT JUMPDEST POP PUSH2 0x205 PUSH2 0x200 CALLDATASIZE PUSH1 0x4 PUSH2 0x11A3 JUMP JUMPDEST PUSH2 0xC55 JUMP JUMPDEST PUSH1 0x40 MLOAD SWAP1 ISZERO ISZERO DUP2 MSTORE PUSH1 0x20 ADD PUSH2 0x103 JUMP JUMPDEST CALLVALUE DUP1 ISZERO PUSH2 0x221 JUMPI PUSH1 0x0 DUP1 REVERT JUMPDEST POP PUSH2 0x1CD PUSH32 0x0 DUP2 JUMP JUMPDEST CALLVALUE DUP1 ISZERO PUSH2 0x255 JUMPI PUSH1 0x0 DUP1 REVERT JUMPDEST POP PUSH2 0x2AE PUSH2 0x264 CALLDATASIZE PUSH1 0x4 PUSH2 0x11A3 JUMP JUMPDEST PUSH1 0x1 PUSH1 0x20 DUP2 DUP2 MSTORE PUSH1 0x0 SWAP4 DUP5 MSTORE PUSH1 0x40 DUP1 DUP6 KECCAK256 SWAP1 SWAP2 MSTORE SWAP2 DUP4 MSTORE SWAP2 KECCAK256 DUP1 SLOAD SWAP2 DUP2 ADD SLOAD PUSH1 0x2 SWAP1 SWAP2 ADD SLOAD PUSH8 0xFFFFFFFFFFFFFFFF DUP3 AND SWAP2 PUSH1 0xFF PUSH1 0x1 PUSH1 0x40 SHL DUP3 DIV DUP2 AND SWAP3 PUSH1 0x1 PUSH1 0x48 SHL SWAP1 SWAP3 DIV AND SWAP1 DUP6 JUMP JUMPDEST PUSH1 0x40 DUP1 MLOAD SWAP6 DUP7 MSTORE PUSH8 0xFFFFFFFFFFFFFFFF SWAP1 SWAP5 AND PUSH1 0x20 DUP7 ADD MSTORE SWAP2 ISZERO ISZERO SWAP3 DUP5 ADD SWAP3 SWAP1 SWAP3 MSTORE SWAP1 ISZERO ISZERO PUSH1 0x60 DUP4 ADD MSTORE PUSH1 0x80 DUP3 ADD MSTORE PUSH1 0xA0 ADD PUSH2 0x103 JUMP JUMPDEST CALLVALUE DUP1 ISZERO PUSH2 0x2F1 JUMPI PUSH1 0x0 DUP1 REVERT JUMPDEST POP PUSH2 0xF9 PUSH2 0x300 CALLDATASIZE PUSH1 0x4 PUSH2 0x117F JUMP JUMPDEST PUSH2 0xD92 JUMP JUMPDEST CALLVALUE DUP1 ISZERO PUSH2 0x311 JUMPI PUSH1 0x0 DUP1 REVERT JUMPDEST POP PUSH2 0xD7 PUSH2 0x320 CALLDATASIZE PUSH1 0x4 PUSH2 0x12C6 JUMP JUMPDEST PUSH2 0xE11 JUMP JUMPDEST CALLER PUSH1 0x1 PUSH1 0x1 PUSH1 0xA0 SHL SUB PUSH32 0x0 AND EQ PUSH2 0x376 JUMPI PUSH1 0x40 MLOAD PUSH3 0x461BCD PUSH1 0xE5 SHL DUP2 MSTORE PUSH1 0x4 ADD PUSH2 0x36D SWAP1 PUSH2 0x1310 JUMP JUMPDEST PUSH1 0x40 MLOAD DUP1 SWAP2 SUB SWAP1 REVERT JUMPDEST PUSH1 0x0 DUP2 GT PUSH2 0x396 JUMPI PUSH1 0x40 MLOAD PUSH3 0x461BCD PUSH1 0xE5 SHL DUP2 MSTORE PUSH1 0x4 ADD PUSH2 0x36D SWAP1 PUSH2 0x1338 JUMP JUMPDEST PUSH1 0x1 PUSH1 0x1 PUSH1 0xA0 SHL SUB DUP4 AND PUSH1 0x0 SWAP1 DUP2 MSTORE PUSH1 0x20 DUP2 SWAP1 MSTORE PUSH1 0x40 DUP2 KECCAK256 SLOAD PUSH2 0x3B8 DUP6 PUSH2 0xD92 JUMP JUMPDEST PUSH2 0x3C2 SWAP2 SWAP1 PUSH2 0x1373 JUMP JUMPDEST SWAP1 POP DUP2 DUP2 LT ISZERO PUSH2 0x40D JUMPI PUSH1 0x40 MLOAD PUSH3 0x461BCD PUSH1 0xE5 SHL DUP2 MSTORE PUSH1 0x20 PUSH1 0x4 DUP3 ADD MSTORE PUSH1 0x16 PUSH1 0x24 DUP3 ADD MSTORE PUSH22 0x494E53554646494349454E545F415641494C41424C45 PUSH1 0x50 SHL PUSH1 0x44 DUP3 ADD MSTORE PUSH1 0x64 ADD PUSH2 0x36D JUMP JUMPDEST PUSH1 0x1 PUSH1 0x1 PUSH1 0xA0 SHL SUB DUP5 AND PUSH2 0x494 JUMPI PUSH1 0x0 DUP4 PUSH1 0x1 PUSH1 0x1 PUSH1 0xA0 SHL SUB AND DUP4 PUSH1 0x40 MLOAD PUSH1 0x0 PUSH1 0x40 MLOAD DUP1 DUP4 SUB DUP2 DUP6 DUP8 GAS CALL SWAP3 POP POP POP RETURNDATASIZE DUP1 PUSH1 0x0 DUP2 EQ PUSH2 0x468 JUMPI PUSH1 0x40 MLOAD SWAP2 POP PUSH1 0x1F NOT PUSH1 0x3F RETURNDATASIZE ADD AND DUP3 ADD PUSH1 0x40 MSTORE RETURNDATASIZE DUP3 MSTORE RETURNDATASIZE PUSH1 0x0 PUSH1 0x20 DUP5 ADD RETURNDATACOPY PUSH2 0x46D JUMP JUMPDEST PUSH1 0x60 SWAP2 POP JUMPDEST POP POP SWAP1 POP DUP1 PUSH2 0x48E JUMPI PUSH1 0x40 MLOAD PUSH3 0x461BCD PUSH1 0xE5 SHL DUP2 MSTORE PUSH1 0x4 ADD PUSH2 0x36D SWAP1 PUSH2 0x1386 JUMP JUMPDEST POP PUSH2 0x4A8 JUMP JUMPDEST PUSH2 0x4A8 PUSH1 0x1 PUSH1 0x1 PUSH1 0xA0 SHL SUB DUP6 AND DUP5 DUP5 PUSH2 0x105E JUMP JUMPDEST DUP3 PUSH1 0x1 PUSH1 0x1 PUSH1 0xA0 SHL SUB AND DUP5 PUSH1 0x1 PUSH1 0x1 PUSH1 0xA0 SHL SUB AND PUSH32 0xD1C19FBCD4551A5EDFB66D43D2E337C04837AFDA3482B42BDF569A8FCCDAE5FB DUP5 PUSH1 0x40 MLOAD PUSH2 0x4ED SWAP2 DUP2 MSTORE PUSH1 0x20 ADD SWAP1 JUMP JUMPDEST PUSH1 0x40 MLOAD DUP1 SWAP2 SUB SWAP1 LOG3 POP POP POP POP JUMP JUMPDEST PUSH1 0x1 PUSH1 0x1 PUSH1 0xA0 SHL SUB DUP2 AND PUSH1 0x0 SWAP1 DUP2 MSTORE PUSH1 0x20 DUP2 SWAP1 MSTORE PUSH1 0x40 DUP2 KECCAK256 SLOAD PUSH2 0x51D DUP4 PUSH2 0xD92 JUMP JUMPDEST PUSH2 0x527 SWAP2 SWAP1 PUSH2 0x1373 JUMP JUMPDEST SWAP3 SWAP2 POP POP JUMP JUMPDEST CALLER PUSH1 0x1 PUSH1 0x1 PUSH1 0xA0 SHL SUB PUSH32 0x0 AND EQ PUSH2 0x575 JUMPI PUSH1 0x40 MLOAD PUSH3 0x461BCD PUSH1 0xE5 SHL DUP2 MSTORE PUSH1 0x4 ADD PUSH2 0x36D SWAP1 PUSH2 0x1310 JUMP JUMPDEST PUSH1 0x0 DUP3 DUP2 MSTORE PUSH1 0x1 PUSH1 0x20 DUP2 DUP2 MSTORE PUSH1 0x40 DUP1 DUP5 KECCAK256 PUSH1 0x1 PUSH1 0x1 PUSH1 0xA0 SHL SUB DUP7 AND DUP6 MSTORE SWAP1 SWAP2 MSTORE SWAP1 SWAP2 KECCAK256 SWAP1 DUP2 ADD SLOAD PUSH1 0x1 PUSH1 0x40 SHL SWAP1 DIV PUSH1 0xFF AND PUSH2 0x5DF JUMPI PUSH1 0x40 MLOAD PUSH3 0x461BCD PUSH1 0xE5 SHL DUP2 MSTORE PUSH1 0x20 PUSH1 0x4 DUP3 ADD MSTORE PUSH1 0xA PUSH1 0x24 DUP3 ADD MSTORE PUSH10 0x1393D517D313D0D2D151 PUSH1 0xB2 SHL PUSH1 0x44 DUP3 ADD MSTORE PUSH1 0x64 ADD PUSH2 0x36D JUMP JUMPDEST PUSH1 0x1 DUP2 ADD SLOAD PUSH1 0x1 PUSH1 0x48 SHL SWAP1 DIV PUSH1 0xFF AND ISZERO PUSH2 0x62F JUMPI PUSH1 0x40 MLOAD PUSH3 0x461BCD PUSH1 0xE5 SHL DUP2 MSTORE PUSH1 0x20 PUSH1 0x4 DUP3 ADD MSTORE PUSH1 0x11 PUSH1 0x24 DUP3 ADD MSTORE PUSH17 0x1053149150511657D11254D0955494D151 PUSH1 0x7A SHL PUSH1 0x44 DUP3 ADD MSTORE PUSH1 0x64 ADD PUSH2 0x36D JUMP JUMPDEST DUP1 SLOAD PUSH1 0x1 PUSH1 0x1 PUSH1 0xA0 SHL SUB DUP4 AND PUSH1 0x0 SWAP1 DUP2 MSTORE PUSH1 0x20 DUP2 SWAP1 MSTORE PUSH1 0x40 DUP2 KECCAK256 DUP1 SLOAD DUP4 SWAP3 SWAP1 PUSH2 0x659 SWAP1 DUP5 SWAP1 PUSH2 0x1373 JUMP JUMPDEST SWAP1 SWAP2 SSTORE POP POP PUSH1 0x0 DUP5 DUP2 MSTORE PUSH1 0x1 PUSH1 0x20 DUP2 DUP2 MSTORE PUSH1 0x40 DUP1 DUP5 KECCAK256 PUSH1 0x1 PUSH1 0x1 PUSH1 0xA0 SHL SUB DUP9 AND DUP1 DUP7 MSTORE SWAP3 MSTORE DUP1 DUP5 KECCAK256 DUP5 DUP2 SSTORE SWAP3 DUP4 ADD DUP1 SLOAD PUSH10 0xFFFFFFFFFFFFFFFFFFFF NOT AND SWAP1 SSTORE PUSH1 0x2 SWAP1 SWAP3 ADD SWAP3 SWAP1 SWAP3 SSTORE MLOAD DUP6 SWAP1 PUSH32 0xF1C2201AB8D3AFE0AB6336204843B66BB25C5F27D6DE3490C9A463FD18D294A9 SWAP1 PUSH2 0x4ED SWAP1 DUP6 DUP2 MSTORE PUSH1 0x20 ADD SWAP1 JUMP JUMPDEST CALLER PUSH1 0x1 PUSH1 0x1 PUSH1 0xA0 SHL SUB PUSH32 0x0 AND EQ PUSH2 0x73A JUMPI PUSH1 0x40 MLOAD PUSH3 0x461BCD PUSH1 0xE5 SHL DUP2 MSTORE PUSH1 0x20 PUSH1 0x4 DUP3 ADD MSTORE PUSH1 0xC PUSH1 0x24 DUP3 ADD MSTORE PUSH12 0x4F4E4C595F464143544F5259 PUSH1 0xA0 SHL PUSH1 0x44 DUP3 ADD MSTORE PUSH1 0x64 ADD PUSH2 0x36D JUMP JUMPDEST DUP3 DUP2 EQ PUSH2 0x778 JUMPI PUSH1 0x40 MLOAD PUSH3 0x461BCD PUSH1 0xE5 SHL DUP2 MSTORE PUSH1 0x20 PUSH1 0x4 DUP3 ADD MSTORE PUSH1 0xC PUSH1 0x24 DUP3 ADD MSTORE PUSH12 0x988A9CBE9A92A69A82A8869 PUSH1 0xA3 SHL PUSH1 0x44 DUP3 ADD MSTORE PUSH1 0x64 ADD PUSH2 0x36D JUMP JUMPDEST PUSH2 0x782 DUP7 DUP7 PUSH2 0xC55 JUMP JUMPDEST PUSH2 0x7C0 JUMPI PUSH1 0x40 MLOAD PUSH3 0x461BCD PUSH1 0xE5 SHL DUP2 MSTORE PUSH1 0x20 PUSH1 0x4 DUP3 ADD MSTORE PUSH1 0xF PUSH1 0x24 DUP3 ADD MSTORE PUSH15 0x54494D454C4F434B5F414354495645 PUSH1 0x88 SHL PUSH1 0x44 DUP3 ADD MSTORE PUSH1 0x64 ADD PUSH2 0x36D JUMP JUMPDEST PUSH1 0x0 DUP7 DUP2 MSTORE PUSH1 0x1 PUSH1 0x20 SWAP1 DUP2 MSTORE PUSH1 0x40 DUP1 DUP4 KECCAK256 PUSH1 0x1 PUSH1 0x1 PUSH1 0xA0 SHL SUB DUP10 AND DUP5 MSTORE SWAP1 SWAP2 MSTORE DUP2 KECCAK256 SWAP1 DUP1 JUMPDEST DUP6 DUP2 LT ISZERO PUSH2 0xA2A JUMPI PUSH1 0x0 DUP8 DUP8 DUP4 DUP2 DUP2 LT PUSH2 0x801 JUMPI PUSH2 0x801 PUSH2 0x13B3 JUMP JUMPDEST SWAP1 POP PUSH1 0x20 MUL ADD PUSH1 0x20 DUP2 ADD SWAP1 PUSH2 0x816 SWAP2 SWAP1 PUSH2 0x117F JUMP JUMPDEST SWAP1 POP PUSH1 0x0 DUP7 DUP7 DUP5 DUP2 DUP2 LT PUSH2 0x82C JUMPI PUSH2 0x82C PUSH2 0x13B3 JUMP JUMPDEST PUSH1 0x20 MUL SWAP2 SWAP1 SWAP2 ADD CALLDATALOAD SWAP2 POP POP PUSH1 0x1 PUSH1 0x1 PUSH1 0xA0 SHL SUB DUP3 AND PUSH2 0x87A JUMPI PUSH1 0x40 MLOAD PUSH3 0x461BCD PUSH1 0xE5 SHL DUP2 MSTORE PUSH1 0x20 PUSH1 0x4 DUP3 ADD MSTORE PUSH1 0xA PUSH1 0x24 DUP3 ADD MSTORE PUSH10 0x494E56414C49445F544F PUSH1 0xB0 SHL PUSH1 0x44 DUP3 ADD MSTORE PUSH1 0x64 ADD PUSH2 0x36D JUMP JUMPDEST PUSH1 0x0 DUP2 GT PUSH2 0x89A JUMPI PUSH1 0x40 MLOAD PUSH3 0x461BCD PUSH1 0xE5 SHL DUP2 MSTORE PUSH1 0x4 ADD PUSH2 0x36D SWAP1 PUSH2 0x1338 JUMP JUMPDEST DUP5 SLOAD PUSH1 0x2 DUP7 ADD SLOAD PUSH2 0x8AC SWAP1 DUP4 SWAP1 PUSH2 0x13C9 JUMP JUMPDEST GT ISZERO PUSH2 0x8E4 JUMPI PUSH1 0x40 MLOAD PUSH3 0x461BCD PUSH1 0xE5 SHL DUP2 MSTORE PUSH1 0x20 PUSH1 0x4 DUP3 ADD MSTORE PUSH1 0x7 PUSH1 0x24 DUP3 ADD MSTORE PUSH7 0x4F564552504159 PUSH1 0xC8 SHL PUSH1 0x44 DUP3 ADD MSTORE PUSH1 0x64 ADD PUSH2 0x36D JUMP JUMPDEST PUSH1 0x1 PUSH1 0x1 PUSH1 0xA0 SHL SUB DUP11 AND PUSH2 0x96B JUMPI PUSH1 0x0 DUP3 PUSH1 0x1 PUSH1 0x1 PUSH1 0xA0 SHL SUB AND DUP3 PUSH1 0x40 MLOAD PUSH1 0x0 PUSH1 0x40 MLOAD DUP1 DUP4 SUB DUP2 DUP6 DUP8 GAS CALL SWAP3 POP POP POP RETURNDATASIZE DUP1 PUSH1 0x0 DUP2 EQ PUSH2 0x93F JUMPI PUSH1 0x40 MLOAD SWAP2 POP PUSH1 0x1F NOT PUSH1 0x3F RETURNDATASIZE ADD AND DUP3 ADD PUSH1 0x40 MSTORE RETURNDATASIZE DUP3 MSTORE RETURNDATASIZE PUSH1 0x0 PUSH1 0x20 DUP5 ADD RETURNDATACOPY PUSH2 0x944 JUMP JUMPDEST PUSH1 0x60 SWAP2 POP JUMPDEST POP POP SWAP1 POP DUP1 PUSH2 0x965 JUMPI PUSH1 0x40 MLOAD PUSH3 0x461BCD PUSH1 0xE5 SHL DUP2 MSTORE PUSH1 0x4 ADD PUSH2 0x36D SWAP1 PUSH2 0x1386 JUMP JUMPDEST POP PUSH2 0x97F JUMP JUMPDEST PUSH2 0x97F PUSH1 0x1 PUSH1 0x1 PUSH1 0xA0 SHL SUB DUP12 AND DUP4 DUP4 PUSH2 0x105E JUMP JUMPDEST DUP1 DUP6 PUSH1 0x2 ADD PUSH1 0x0 DUP3 DUP3 SLOAD PUSH2 0x993 SWAP2 SWAP1 PUSH2 0x13C9 JUMP JUMPDEST SWAP1 SWAP2 SSTORE POP POP PUSH1 0x1 PUSH1 0x1 PUSH1 0xA0 SHL SUB DUP11 AND PUSH1 0x0 SWAP1 DUP2 MSTORE PUSH1 0x20 DUP2 SWAP1 MSTORE PUSH1 0x40 DUP2 KECCAK256 DUP1 SLOAD DUP4 SWAP3 SWAP1 PUSH2 0x9C0 SWAP1 DUP5 SWAP1 PUSH2 0x1373 JUMP JUMPDEST SWAP1 SWAP2 SSTORE POP PUSH2 0x9D0 SWAP1 POP DUP2 DUP6 PUSH2 0x13C9 JUMP JUMPDEST SWAP4 POP DUP2 PUSH1 0x1 PUSH1 0x1 PUSH1 0xA0 SHL SUB AND DUP11 PUSH1 0x1 PUSH1 0x1 PUSH1 0xA0 SHL SUB AND DUP13 PUSH32 0x2A156326EC22774FFA31F45F5F5990405E41EB6FE44E1D600934AB445CF3C0C1 DUP5 PUSH1 0x40 MLOAD PUSH2 0xA18 SWAP2 DUP2 MSTORE PUSH1 0x20 ADD SWAP1 JUMP JUMPDEST PUSH1 0x40 MLOAD DUP1 SWAP2 SUB SWAP1 LOG4 POP POP PUSH1 0x1 ADD PUSH2 0x7E5 JUMP JUMPDEST POP DUP7 PUSH1 0x1 PUSH1 0x1 PUSH1 0xA0 SHL SUB AND DUP9 PUSH32 0x32783F5493DDD65B3D8BB7BCBE6C08B4D3266223AFD87F940A456DCD86074B6E DUP4 PUSH1 0x40 MLOAD PUSH2 0xA67 SWAP2 DUP2 MSTORE PUSH1 0x20 ADD SWAP1 JUMP JUMPDEST PUSH1 0x40 MLOAD DUP1 SWAP2 SUB SWAP1 LOG3 DUP2 SLOAD PUSH1 0x2 DUP4 ADD SLOAD SUB PUSH2 0xACD JUMPI PUSH1 0x1 DUP3 ADD DUP1 SLOAD PUSH10 0xFF000000000000000000 NOT AND PUSH1 0x1 PUSH1 0x48 SHL OR SWAP1 SSTORE PUSH1 0x40 MLOAD PUSH1 0x1 PUSH1 0x1 PUSH1 0xA0 SHL SUB DUP9 AND SWAP1 DUP10 SWAP1 PUSH32 0xA6EFDAF5C9F54B66D8444894D554FD5FBC60FD07836AEDCC7EB5020FD1872602 SWAP1 PUSH1 0x0 SWAP1 LOG3 JUMPDEST POP POP POP POP POP POP POP POP JUMP JUMPDEST CALLER PUSH1 0x1 PUSH1 0x1 PUSH1 0xA0 SHL SUB PUSH32 0x0 AND EQ PUSH2 0xB1F JUMPI PUSH1 0x40 MLOAD PUSH3 0x461BCD PUSH1 0xE5 SHL DUP2 MSTORE PUSH1 0x4 ADD PUSH2 0x36D SWAP1 PUSH2 0x1310 JUMP JUMPDEST PUSH1 0x0 DUP2 GT PUSH2 0xB3F JUMPI PUSH1 0x40 MLOAD PUSH3 0x461BCD PUSH1 0xE5 SHL DUP2 MSTORE PUSH1 0x4 ADD PUSH2 0x36D SWAP1 PUSH2 0x1338 JUMP JUMPDEST PUSH1 0x1 PUSH1 0x1 PUSH1 0xA0 SHL SUB DUP4 AND PUSH1 0x0 SWAP1 DUP2 MSTORE PUSH1 0x20 DUP2 SWAP1 MSTORE PUSH1 0x40 DUP2 KECCAK256 SLOAD PUSH2 0xB61 DUP6 PUSH2 0xD92 JUMP JUMPDEST PUSH2 0xB6B SWAP2 SWAP1 PUSH2 0x1373 JUMP JUMPDEST SWAP1 POP DUP2 DUP2 LT ISZERO PUSH2 0xBB4 JUMPI PUSH1 0x40 MLOAD PUSH3 0x461BCD PUSH1 0xE5 SHL DUP2 MSTORE PUSH1 0x20 PUSH1 0x4 DUP3 ADD MSTORE PUSH1 0x14 PUSH1 0x24 DUP3 ADD MSTORE PUSH20 0x494E53554646494349454E545F464F525F464545 PUSH1 0x60 SHL PUSH1 0x44 DUP3 ADD MSTORE PUSH1 0x64 ADD PUSH2 0x36D JUMP JUMPDEST PUSH1 0x1 PUSH1 0x1 PUSH1 0xA0 SHL SUB DUP5 AND PUSH2 0xC3B JUMPI PUSH1 0x0 DUP4 PUSH1 0x1 PUSH1 0x1 PUSH1 0xA0 SHL SUB AND DUP4 PUSH1 0x40 MLOAD PUSH1 0x0 PUSH1 0x40 MLOAD DUP1 DUP4 SUB DUP2 DUP6 DUP8 GAS CALL SWAP3 POP POP POP RETURNDATASIZE DUP1 PUSH1 0x0 DUP2 EQ PUSH2 0xC0F JUMPI PUSH1 0x40 MLOAD SWAP2 POP PUSH1 0x1F NOT PUSH1 0x3F RETURNDATASIZE ADD AND DUP3 ADD PUSH1 0x40 MSTORE RETURNDATASIZE DUP3 MSTORE RETURNDATASIZE PUSH1 0x0 PUSH1 0x20 DUP5 ADD RETURNDATACOPY PUSH2 0xC14 JUMP JUMPDEST PUSH1 0x60 SWAP2 POP JUMPDEST POP POP SWAP1 POP DUP1 PUSH2 0xC35 JUMPI PUSH1 0x40 MLOAD PUSH3 0x461BCD PUSH1 0xE5 SHL DUP2 MSTORE PUSH1 0x4 ADD PUSH2 0x36D SWAP1 PUSH2 0x1386 JUMP JUMPDEST POP PUSH2 0xC4F JUMP JUMPDEST PUSH2 0xC4F PUSH1 0x1 PUSH1 0x1 PUSH1 0xA0 SHL SUB DUP6 AND DUP5 DUP5 PUSH2 0x105E JUMP JUMPDEST POP POP POP POP JUMP JUMPDEST PUSH1 0x0 DUP3 DUP2 MSTORE PUSH1 0x1 PUSH1 0x20 DUP2 DUP2 MSTORE PUSH1 0x40 DUP1 DUP5 KECCAK256 PUSH1 0x1 PUSH1 0x1 PUSH1 0xA0 SHL SUB DUP7 AND DUP6 MSTORE SWAP1 SWAP2 MSTORE DUP3 KECCAK256 SWAP1 DUP2 ADD SLOAD PUSH1 0x1 PUSH1 0x40 SHL SWAP1 DIV PUSH1 0xFF AND ISZERO DUP1 PUSH2 0xC9C JUMPI POP PUSH1 0x1 DUP2 ADD SLOAD PUSH1 0x1 PUSH1 0x48 SHL SWAP1 DIV PUSH1 0xFF AND JUMPDEST ISZERO PUSH2 0xCAB JUMPI PUSH1 0x0 SWAP2 POP POP PUSH2 0x527 JUMP JUMPDEST PUSH1 0x0 DUP1 PUSH1 0x0 PUSH32 0x0 PUSH1 0x1 PUSH1 0x1 PUSH1 0xA0 SHL SUB AND PUSH4 0x4B615A52 DUP9 PUSH1 0x40 MLOAD DUP3 PUSH4 0xFFFFFFFF AND PUSH1 0xE0 SHL DUP2 MSTORE PUSH1 0x4 ADD PUSH2 0xCFE SWAP2 DUP2 MSTORE PUSH1 0x20 ADD SWAP1 JUMP JUMPDEST PUSH2 0x100 PUSH1 0x40 MLOAD DUP1 DUP4 SUB DUP2 DUP7 GAS STATICCALL ISZERO DUP1 ISZERO PUSH2 0xD1C JUMPI RETURNDATASIZE PUSH1 0x0 DUP1 RETURNDATACOPY RETURNDATASIZE PUSH1 0x0 REVERT JUMPDEST POP POP POP POP PUSH1 0x40 MLOAD RETURNDATASIZE PUSH1 0x1F NOT PUSH1 0x1F DUP3 ADD AND DUP3 ADD DUP1 PUSH1 0x40 MSTORE POP DUP2 ADD SWAP1 PUSH2 0xD40 SWAP2 SWAP1 PUSH2 0x13F5 JUMP JUMPDEST SWAP8 POP POP POP POP SWAP5 POP POP SWAP4 POP POP PUSH1 0x0 DUP4 PUSH8 0xFFFFFFFFFFFFFFFF AND TIMESTAMP LT ISZERO SWAP1 POP PUSH1 0x0 DUP1 DUP5 PUSH4 0xFFFFFFFF AND GT DUP1 ISZERO PUSH2 0xD7A JUMPI POP DUP4 PUSH4 0xFFFFFFFF AND DUP4 LT ISZERO JUMPDEST SWAP1 POP DUP2 DUP1 PUSH2 0xD85 JUMPI POP DUP1 JUMPDEST SWAP10 SWAP9 POP POP POP POP POP POP POP POP POP JUMP JUMPDEST PUSH1 0x0 PUSH1 0x1 PUSH1 0x1 PUSH1 0xA0 SHL SUB DUP3 AND PUSH2 0xDA9 JUMPI POP SELFBALANCE SWAP2 SWAP1 POP JUMP JUMPDEST PUSH1 0x40 MLOAD PUSH4 0x70A08231 PUSH1 0xE0 SHL DUP2 MSTORE ADDRESS PUSH1 0x4 DUP3 ADD MSTORE PUSH1 0x1 PUSH1 0x1 PUSH1 0xA0 SHL SUB DUP4 AND SWAP1 PUSH4 0x70A08231 SWAP1 PUSH1 0x24 ADD PUSH1 0x20 PUSH1 0x40 MLOAD DUP1 DUP4 SUB DUP2 DUP7 GAS STATICCALL ISZERO DUP1 ISZERO PUSH2 0xDED JUMPI RETURNDATASIZE PUSH1 0x0 DUP1 RETURNDATACOPY RETURNDATASIZE PUSH1 0x0 REVERT JUMPDEST POP POP POP POP PUSH1 0x40 MLOAD RETURNDATASIZE PUSH1 0x1F NOT PUSH1 0x1F DUP3 ADD AND DUP3 ADD DUP1 PUSH1 0x40 MSTORE POP DUP2 ADD SWAP1 PUSH2 0x527 SWAP2 SWAP1 PUSH2 0x1495 JUMP JUMPDEST CALLER PUSH1 0x1 PUSH1 0x1 PUSH1 0xA0 SHL SUB PUSH32 0x0 AND EQ PUSH2 0xE59 JUMPI PUSH1 0x40 MLOAD PUSH3 0x461BCD PUSH1 0xE5 SHL DUP2 MSTORE PUSH1 0x4 ADD PUSH2 0x36D SWAP1 PUSH2 0x1310 JUMP JUMPDEST TIMESTAMP DUP2 PUSH8 0xFFFFFFFFFFFFFFFF AND GT PUSH2 0xEA4 JUMPI PUSH1 0x40 MLOAD PUSH3 0x461BCD PUSH1 0xE5 SHL DUP2 MSTORE PUSH1 0x20 PUSH1 0x4 DUP3 ADD MSTORE PUSH1 0xF PUSH1 0x24 DUP3 ADD MSTORE PUSH15 0x1153911512535157D25397D41054D5 PUSH1 0x8A SHL PUSH1 0x44 DUP3 ADD MSTORE PUSH1 0x64 ADD PUSH2 0x36D JUMP JUMPDEST PUSH1 0x0 DUP3 GT PUSH2 0xEC4 JUMPI PUSH1 0x40 MLOAD PUSH3 0x461BCD PUSH1 0xE5 SHL DUP2 MSTORE PUSH1 0x4 ADD PUSH2 0x36D SWAP1 PUSH2 0x1338 JUMP JUMPDEST PUSH1 0x0 DUP5 DUP2 MSTORE PUSH1 0x1 PUSH1 0x20 DUP2 DUP2 MSTORE PUSH1 0x40 DUP1 DUP5 KECCAK256 PUSH1 0x1 PUSH1 0x1 PUSH1 0xA0 SHL SUB DUP9 AND DUP6 MSTORE SWAP1 SWAP2 MSTORE SWAP1 SWAP2 KECCAK256 SWAP1 DUP2 ADD SLOAD PUSH1 0x1 PUSH1 0x40 SHL SWAP1 DIV PUSH1 0xFF AND ISZERO PUSH2 0xF33 JUMPI PUSH1 0x40 MLOAD PUSH3 0x461BCD PUSH1 0xE5 SHL DUP2 MSTORE PUSH1 0x20 PUSH1 0x4 DUP3 ADD MSTORE PUSH1 0xE PUSH1 0x24 DUP3 ADD MSTORE PUSH14 0x1053149150511657D313D0D2D151 PUSH1 0x92 SHL PUSH1 0x44 DUP3 ADD MSTORE PUSH1 0x64 ADD PUSH2 0x36D JUMP JUMPDEST PUSH1 0x0 PUSH2 0xF3E DUP6 PUSH2 0xD92 JUMP JUMPDEST PUSH1 0x1 PUSH1 0x1 PUSH1 0xA0 SHL SUB DUP7 AND PUSH1 0x0 SWAP1 DUP2 MSTORE PUSH1 0x20 DUP2 SWAP1 MSTORE PUSH1 0x40 DUP2 KECCAK256 SLOAD SWAP2 SWAP3 POP SWAP1 PUSH2 0xF65 SWAP1 DUP4 PUSH2 0x1373 JUMP JUMPDEST SWAP1 POP DUP5 DUP2 LT ISZERO PUSH2 0xFB0 JUMPI PUSH1 0x40 MLOAD PUSH3 0x461BCD PUSH1 0xE5 SHL DUP2 MSTORE PUSH1 0x20 PUSH1 0x4 DUP3 ADD MSTORE PUSH1 0x16 PUSH1 0x24 DUP3 ADD MSTORE PUSH22 0x494E53554646494349454E545F415641494C41424C45 PUSH1 0x50 SHL PUSH1 0x44 DUP3 ADD MSTORE PUSH1 0x64 ADD PUSH2 0x36D JUMP JUMPDEST DUP5 DUP4 SSTORE PUSH1 0x1 DUP4 ADD DUP1 SLOAD PUSH9 0xFFFFFFFFFFFFFFFFFF NOT AND PUSH8 0xFFFFFFFFFFFFFFFF DUP7 AND OR PUSH1 0x1 PUSH1 0x40 SHL OR SWAP1 SSTORE PUSH1 0x1 PUSH1 0x1 PUSH1 0xA0 SHL SUB DUP7 AND PUSH1 0x0 SWAP1 DUP2 MSTORE PUSH1 0x20 DUP2 SWAP1 MSTORE PUSH1 0x40 DUP2 KECCAK256 DUP1 SLOAD DUP8 SWAP3 SWAP1 PUSH2 0x1001 SWAP1 DUP5 SWAP1 PUSH2 0x13C9 JUMP JUMPDEST SWAP1 SWAP2 SSTORE POP POP PUSH1 0x40 DUP1 MLOAD DUP7 DUP2 MSTORE PUSH8 0xFFFFFFFFFFFFFFFF DUP7 AND PUSH1 0x20 DUP3 ADD MSTORE PUSH1 0x1 PUSH1 0x1 PUSH1 0xA0 SHL SUB DUP9 AND SWAP2 DUP10 SWAP2 PUSH32 0x1B2647AC67960126F97FF0F07F3F647FB18657E8C057387CA2CAA1667FCACCA5 SWAP2 ADD PUSH1 0x40 MLOAD DUP1 SWAP2 SUB SWAP1 LOG3 POP POP POP POP POP POP POP JUMP JUMPDEST PUSH1 0x40 DUP1 MLOAD PUSH1 0x1 PUSH1 0x1 PUSH1 0xA0 SHL SUB DUP5 AND PUSH1 0x24 DUP3 ADD MSTORE PUSH1 0x44 DUP1 DUP3 ADD DUP5 SWAP1 MSTORE DUP3 MLOAD DUP1 DUP4 SUB SWAP1 SWAP2 ADD DUP2 MSTORE PUSH1 0x64 SWAP1 SWAP2 ADD SWAP1 SWAP2 MSTORE PUSH1 0x20 DUP2 ADD DUP1 MLOAD PUSH1 0x1 PUSH1 0x1 PUSH1 0xE0 SHL SUB AND PUSH4 0xA9059CBB PUSH1 0xE0 SHL OR SWAP1 MSTORE PUSH2 0x10B0 SWAP1 DUP5 SWAP1 PUSH2 0x10B5 JUMP JUMPDEST POP POP POP JUMP JUMPDEST PUSH1 0x0 DUP1 PUSH1 0x20 PUSH1 0x0 DUP5 MLOAD PUSH1 0x20 DUP7 ADD PUSH1 0x0 DUP9 GAS CALL DUP1 PUSH2 0x10D8 JUMPI PUSH1 0x40 MLOAD RETURNDATASIZE PUSH1 0x0 DUP3 RETURNDATACOPY RETURNDATASIZE DUP2 REVERT JUMPDEST POP POP PUSH1 0x0 MLOAD RETURNDATASIZE SWAP2 POP DUP2 ISZERO PUSH2 0x10F0 JUMPI DUP1 PUSH1 0x1 EQ ISZERO PUSH2 0x10FD JUMP JUMPDEST PUSH1 0x1 PUSH1 0x1 PUSH1 0xA0 SHL SUB DUP5 AND EXTCODESIZE ISZERO JUMPDEST ISZERO PUSH2 0xC4F JUMPI PUSH1 0x40 MLOAD PUSH4 0x5274AFE7 PUSH1 0xE0 SHL DUP2 MSTORE PUSH1 0x1 PUSH1 0x1 PUSH1 0xA0 SHL SUB DUP6 AND PUSH1 0x4 DUP3 ADD MSTORE PUSH1 0x24 ADD PUSH2 0x36D JUMP JUMPDEST PUSH1 0x1 PUSH1 0x1 PUSH1 0xA0 SHL SUB DUP2 AND DUP2 EQ PUSH2 0x113B JUMPI PUSH1 0x0 DUP1 REVERT JUMPDEST POP JUMP JUMPDEST PUSH1 0x0 DUP1 PUSH1 0x0 PUSH1 0x60 DUP5 DUP7 SUB SLT ISZERO PUSH2 0x1153 JUMPI PUSH1 0x0 DUP1 REVERT JUMPDEST DUP4 CALLDATALOAD PUSH2 0x115E DUP2 PUSH2 0x1126 JUMP JUMPDEST SWAP3 POP PUSH1 0x20 DUP5 ADD CALLDATALOAD PUSH2 0x116E DUP2 PUSH2 0x1126 JUMP JUMPDEST SWAP3 SWAP6 SWAP3 SWAP5 POP POP POP PUSH1 0x40 SWAP2 SWAP1 SWAP2 ADD CALLDATALOAD SWAP1 JUMP JUMPDEST PUSH1 0x0 PUSH1 0x20 DUP3 DUP5 SUB SLT ISZERO PUSH2 0x1191 JUMPI PUSH1 0x0 DUP1 REVERT JUMPDEST DUP2 CALLDATALOAD PUSH2 0x119C DUP2 PUSH2 0x1126 JUMP JUMPDEST SWAP4 SWAP3 POP POP POP JUMP JUMPDEST PUSH1 0x0 DUP1 PUSH1 0x40 DUP4 DUP6 SUB SLT ISZERO PUSH2 0x11B6 JUMPI PUSH1 0x0 DUP1 REVERT JUMPDEST DUP3 CALLDATALOAD SWAP2 POP PUSH1 0x20 DUP4 ADD CALLDATALOAD PUSH2 0x11C8 DUP2 PUSH2 0x1126 JUMP JUMPDEST DUP1 SWAP2 POP POP SWAP3 POP SWAP3 SWAP1 POP JUMP JUMPDEST PUSH1 0x0 DUP1 DUP4 PUSH1 0x1F DUP5 ADD SLT PUSH2 0x11E5 JUMPI PUSH1 0x0 DUP1 REVERT JUMPDEST POP DUP2 CALLDATALOAD PUSH8 0xFFFFFFFFFFFFFFFF DUP2 GT ISZERO PUSH2 0x11FD JUMPI PUSH1 0x0 DUP1 REVERT JUMPDEST PUSH1 0x20 DUP4 ADD SWAP2 POP DUP4 PUSH1 0x20 DUP3 PUSH1 0x5 SHL DUP6 ADD ADD GT ISZERO PUSH2 0x1218 JUMPI PUSH1 0x0 DUP1 REVERT JUMPDEST SWAP3 POP SWAP3 SWAP1 POP JUMP JUMPDEST PUSH1 0x0 DUP1 PUSH1 0x0 DUP1 PUSH1 0x0 DUP1 PUSH1 0x80 DUP8 DUP10 SUB SLT ISZERO PUSH2 0x1238 JUMPI PUSH1 0x0 DUP1 REVERT JUMPDEST DUP7 CALLDATALOAD SWAP6 POP PUSH1 0x20 DUP8 ADD CALLDATALOAD PUSH2 0x124A DUP2 PUSH2 0x1126 JUMP JUMPDEST SWAP5 POP PUSH1 0x40 DUP8 ADD CALLDATALOAD PUSH8 0xFFFFFFFFFFFFFFFF DUP2 GT ISZERO PUSH2 0x1266 JUMPI PUSH1 0x0 DUP1 REVERT JUMPDEST PUSH2 0x1272 DUP10 DUP3 DUP11 ADD PUSH2 0x11D3 JUMP JUMPDEST SWAP1 SWAP6 POP SWAP4 POP POP PUSH1 0x60 DUP8 ADD CALLDATALOAD PUSH8 0xFFFFFFFFFFFFFFFF DUP2 GT ISZERO PUSH2 0x1292 JUMPI PUSH1 0x0 DUP1 REVERT JUMPDEST PUSH2 0x129E DUP10 DUP3 DUP11 ADD PUSH2 0x11D3 JUMP JUMPDEST SWAP8 SWAP11 SWAP7 SWAP10 POP SWAP5 SWAP8 POP SWAP3 SWAP6 SWAP4 SWAP5 SWAP3 POP POP POP JUMP JUMPDEST PUSH8 0xFFFFFFFFFFFFFFFF DUP2 AND DUP2 EQ PUSH2 0x113B JUMPI PUSH1 0x0 DUP1 REVERT JUMPDEST PUSH1 0x0 DUP1 PUSH1 0x0 DUP1 PUSH1 0x80 DUP6 DUP8 SUB SLT ISZERO PUSH2 0x12DC JUMPI PUSH1 0x0 DUP1 REVERT JUMPDEST DUP5 CALLDATALOAD SWAP4 POP PUSH1 0x20 DUP6 ADD CALLDATALOAD PUSH2 0x12EE DUP2 PUSH2 0x1126 JUMP JUMPDEST SWAP3 POP PUSH1 0x40 DUP6 ADD CALLDATALOAD SWAP2 POP PUSH1 0x60 DUP6 ADD CALLDATALOAD PUSH2 0x1305 DUP2 PUSH2 0x12B0 JUMP JUMPDEST SWAP4 SWAP7 SWAP3 SWAP6 POP SWAP1 SWAP4 POP POP JUMP JUMPDEST PUSH1 0x20 DUP1 DUP3 MSTORE PUSH1 0xE SWAP1 DUP3 ADD MSTORE PUSH14 0x4F4E4C595F434F4D4D554E495459 PUSH1 0x90 SHL PUSH1 0x40 DUP3 ADD MSTORE PUSH1 0x60 ADD SWAP1 JUMP JUMPDEST PUSH1 0x20 DUP1 DUP3 MSTORE PUSH1 0xB SWAP1 DUP3 ADD MSTORE PUSH11 0x16915493D7D05353D55395 PUSH1 0xAA SHL PUSH1 0x40 DUP3 ADD MSTORE PUSH1 0x60 ADD SWAP1 JUMP JUMPDEST PUSH4 0x4E487B71 PUSH1 0xE0 SHL PUSH1 0x0 MSTORE PUSH1 0x11 PUSH1 0x4 MSTORE PUSH1 0x24 PUSH1 0x0 REVERT JUMPDEST DUP2 DUP2 SUB DUP2 DUP2 GT ISZERO PUSH2 0x527 JUMPI PUSH2 0x527 PUSH2 0x135D JUMP JUMPDEST PUSH1 0x20 DUP1 DUP3 MSTORE PUSH1 0x13 SWAP1 DUP3 ADD MSTORE PUSH19 0x11551217D514905394D1915497D19052531151 PUSH1 0x6A SHL PUSH1 0x40 DUP3 ADD MSTORE PUSH1 0x60 ADD SWAP1 JUMP JUMPDEST PUSH4 0x4E487B71 PUSH1 0xE0 SHL PUSH1 0x0 MSTORE PUSH1 0x32 PUSH1 0x4 MSTORE PUSH1 0x24 PUSH1 0x0 REVERT JUMPDEST DUP1 DUP3 ADD DUP1 DUP3 GT ISZERO PUSH2 0x527 JUMPI PUSH2 0x527 PUSH2 0x135D JUMP JUMPDEST DUP1 MLOAD PUSH4 0xFFFFFFFF DUP2 AND DUP2 EQ PUSH2 0x13F0 JUMPI PUSH1 0x0 DUP1 REVERT JUMPDEST SWAP2 SWAP1 POP JUMP JUMPDEST PUSH1 0x0 DUP1 PUSH1 0x0 DUP1 PUSH1 0x0 DUP1 PUSH1 0x0 DUP1 PUSH2 0x100 DUP10 DUP12 SUB SLT ISZERO PUSH2 0x1412 JUMPI PUSH1 0x0 DUP1 REVERT JUMPDEST DUP9 MLOAD PUSH2 0x141D DUP2 PUSH2 0x1126 JUMP JUMPDEST PUSH1 0x20 DUP11 ADD MLOAD SWAP1 SWAP9 POP PUSH2 0x142E DUP2 PUSH2 0x12B0 JUMP JUMPDEST SWAP7 POP PUSH2 0x143C PUSH1 0x40 DUP11 ADD PUSH2 0x13DC JUMP JUMPDEST SWAP6 POP PUSH2 0x144A PUSH1 0x60 DUP11 ADD PUSH2 0x13DC JUMP JUMPDEST SWAP5 POP PUSH1 0x80 DUP10 ADD MLOAD PUSH1 0xFF DUP2 AND DUP2 EQ PUSH2 0x1460 JUMPI PUSH1 0x0 DUP1 REVERT JUMPDEST PUSH1 0xA0 DUP11 ADD MLOAD PUSH1 0xC0 DUP12 ADD MLOAD SWAP2 SWAP6 POP SWAP4 POP DUP1 ISZERO ISZERO DUP2 EQ PUSH2 0x147D JUMPI PUSH1 0x0 DUP1 REVERT JUMPDEST PUSH1 0xE0 SWAP10 SWAP1 SWAP10 ADD MLOAD SWAP8 SWAP11 SWAP7 SWAP10 POP SWAP5 SWAP8 SWAP4 SWAP7 SWAP3 SWAP6 SWAP2 SWAP5 POP POP JUMP JUMPDEST PUSH1 0x0 PUSH1 0x20 DUP3 DUP5 SUB SLT ISZERO PUSH2 0x14A7 JUMPI PUSH1 0x0 DUP1 REVERT JUMPDEST POP MLOAD SWAP2 SWAP1 POP JUMP INVALID LOG2 PUSH5 0x6970667358 0x22 SLT KECCAK256 PUSH13 0x65ACEA7247D87ED9A97E62F693 0xD5 0xDE SIGNEXTEND 0xC7 0x2B 0xBD 0xBE 0xF8 PUSH6 0xA2E83DA45EDD 0xE3 0x29 MLOAD PUSH5 0x736F6C6343 STOP ADDMOD SHR STOP CALLER "},"methodIdentifiers":{"batchPay(uint256,address,address[],uint256[])":"988413dd","canDisburse(uint256,address)":"cf745f6c","community()":"dc1fb5a5","factory()":"c45a0155","getAvailable(address)":"3d357b02","getBalance(address)":"f8b2cb4f","lockFunds(uint256,address,uint256,uint64)":"f99dd23f","locks(uint256,address)":"e923c98a","reservedTotal(address)":"4792dc87","sendFee(address,address,uint256)":"bb7706d7","unlockFunds(uint256,address)":"79135250","withdrawAvailable(address,address,uint256)":"1ed9b4b9"}}}}}