{"contracts/Community.sol":{"Community":{"abi":[{"inputs":[{"internalType":"address","name":"_admin","type":"address"},{"internalType":"address","name":"_factory","type":"address"}],"stateMutability":"nonpayable","type":"constructor"},{"inputs":[],"name":"AlreadyJoined","type":"error"},{"inputs":[],"name":"AlreadyRegistered","type":"error"},{"inputs":[],"name":"EndTimeInPast","type":"error"},{"inputs":[],"name":"InvalidAddress","type":"error"},{"inputs":[],"name":"InvalidRaffleID","type":"error"},{"inputs":[],"name":"NoWinners","type":"error"},{"inputs":[],"name":"NoWinners","type":"error"},{"inputs":[],"name":"NotActive","type":"error"},{"inputs":[],"name":"NotCommunityMember","type":"error"},{"inputs":[],"name":"NotDrawn","type":"error"},{"inputs":[],"name":"NotEnded","type":"error"},{"inputs":[],"name":"NotUpcoming","type":"error"},{"inputs":[],"name":"OnlyAdmin","type":"error"},{"inputs":[],"name":"OnlyFactory","type":"error"},{"inputs":[],"name":"ParticipantsExist","type":"error"},{"inputs":[],"name":"RaffleEnded","type":"error"},{"inputs":[{"internalType":"address","name":"token","type":"address"}],"name":"SafeERC20FailedOperation","type":"error"},{"inputs":[],"name":"VaultETHDepositFail","type":"error"},{"inputs":[],"name":"ZeroAmount","type":"error"},{"anonymous":false,"inputs":[{"indexed":true,"internalType":"address","name":"previousAdmin","type":"address"},{"indexed":true,"internalType":"address","name":"newAdmin","type":"address"}],"name":"AdminChanged","type":"event"},{"anonymous":false,"inputs":[{"indexed":true,"internalType":"address","name":"from","type":"address"},{"indexed":false,"internalType":"uint256","name":"amount","type":"uint256"}],"name":"FundedETH","type":"event"},{"anonymous":false,"inputs":[{"indexed":true,"internalType":"address","name":"from","type":"address"},{"indexed":true,"internalType":"address","name":"token","type":"address"},{"indexed":false,"internalType":"uint256","name":"amount","type":"uint256"}],"name":"FundedToken","type":"event"},{"anonymous":false,"inputs":[{"indexed":true,"internalType":"uint256","name":"id","type":"uint256"}],"name":"RaffleCancelled","type":"event"},{"anonymous":false,"inputs":[{"indexed":true,"internalType":"uint256","name":"id","type":"uint256"},{"indexed":false,"internalType":"string","name":"name","type":"string"},{"indexed":true,"internalType":"address","name":"token","type":"address"},{"indexed":false,"internalType":"uint64","name":"endTime","type":"uint64"},{"indexed":false,"internalType":"uint32","name":"winnersCount","type":"uint32"},{"indexed":false,"internalType":"uint32","name":"maxParticipants","type":"uint32"},{"indexed":false,"internalType":"uint256","name":"totalPrize","type":"uint256"},{"indexed":false,"internalType":"bool","name":"requireCommunityMembership","type":"bool"}],"name":"RaffleCreated","type":"event"},{"anonymous":false,"inputs":[{"indexed":true,"internalType":"uint256","name":"id","type":"uint256"},{"indexed":true,"internalType":"address","name":"token","type":"address"},{"indexed":false,"internalType":"uint256","name":"amount","type":"uint256"},{"indexed":false,"internalType":"uint64","name":"endTime","type":"uint64"}],"name":"RaffleLocked","type":"event"},{"anonymous":false,"inputs":[{"indexed":true,"internalType":"address","name":"user","type":"address"}],"name":"Registered","type":"event"},{"anonymous":false,"inputs":[{"indexed":true,"internalType":"uint256","name":"id","type":"uint256"},{"indexed":true,"internalType":"address","name":"user","type":"address"}],"name":"RegisteredForRaffle","type":"event"},{"anonymous":false,"inputs":[{"indexed":true,"internalType":"uint256","name":"id","type":"uint256"},{"indexed":true,"internalType":"bytes32","name":"seed","type":"bytes32"},{"indexed":false,"internalType":"address[]","name":"winners","type":"address[]"},{"indexed":false,"internalType":"uint256[]","name":"amounts","type":"uint256[]"}],"name":"WinnersDrawn","type":"event"},{"anonymous":false,"inputs":[{"indexed":true,"internalType":"address","name":"to","type":"address"},{"indexed":false,"internalType":"uint256","name":"amount","type":"uint256"}],"name":"WithdrawnETH","type":"event"},{"anonymous":false,"inputs":[{"indexed":true,"internalType":"address","name":"to","type":"address"},{"indexed":true,"internalType":"address","name":"token","type":"address"},{"indexed":false,"internalType":"uint256","name":"amount","type":"uint256"}],"name":"WithdrawnToken","type":"event"},{"inputs":[],"name":"admin","outputs":[{"internalType":"address","name":"","type":"address"}],"stateMutability":"view","type":"function"},{"inputs":[{"internalType":"uint256","name":"id","type":"uint256"}],"name":"cancelRaffle","outputs":[],"stateMutability":"nonpayable","type":"function"},{"inputs":[{"internalType":"string","name":"name","type":"string"},{"internalType":"address","name":"token","type":"address"},{"internalType":"uint64","name":"endTime","type":"uint64"},{"internalType":"uint32","name":"winnersCount","type":"uint32"},{"internalType":"uint32","name":"maxParticipants","type":"uint32"},{"internalType":"uint256","name":"totalPrize","type":"uint256"},{"internalType":"bool","name":"requireMembership","type":"bool"}],"name":"createRaffle","outputs":[{"internalType":"uint256","name":"id","type":"uint256"}],"stateMutability":"nonpayable","type":"function"},{"inputs":[],"name":"depositETH","outputs":[],"stateMutability":"payable","type":"function"},{"inputs":[{"internalType":"address","name":"token","type":"address"},{"internalType":"uint256","name":"amount","type":"uint256"}],"name":"depositToken","outputs":[],"stateMutability":"nonpayable","type":"function"},{"inputs":[{"internalType":"uint256","name":"id","type":"uint256"}],"name":"drawWinners","outputs":[],"stateMutability":"nonpayable","type":"function"},{"inputs":[],"name":"factory","outputs":[{"internalType":"address","name":"","type":"address"}],"stateMutability":"view","type":"function"},{"inputs":[],"name":"getAllRaffleIds","outputs":[{"internalType":"uint256[]","name":"","type":"uint256[]"}],"stateMutability":"view","type":"function"},{"inputs":[{"internalType":"address","name":"token","type":"address"}],"name":"getBalance","outputs":[{"internalType":"uint256","name":"","type":"uint256"}],"stateMutability":"view","type":"function"},{"inputs":[{"internalType":"uint256","name":"id","type":"uint256"}],"name":"getRaffleCore","outputs":[{"internalType":"address","name":"token","type":"address"},{"internalType":"uint64","name":"endTime","type":"uint64"},{"internalType":"uint32","name":"winnersCount","type":"uint32"},{"internalType":"uint32","name":"maxParticipants","type":"uint32"},{"internalType":"uint8","name":"status","type":"uint8"},{"internalType":"uint256","name":"totalPrize","type":"uint256"},{"internalType":"bool","name":"requireCommunityMembership","type":"bool"},{"internalType":"uint256","name":"participantsCount","type":"uint256"}],"stateMutability":"view","type":"function"},{"inputs":[{"internalType":"uint256","name":"id","type":"uint256"}],"name":"getRaffleToken","outputs":[{"internalType":"address","name":"","type":"address"}],"stateMutability":"view","type":"function"},{"inputs":[{"internalType":"uint256","name":"id","type":"uint256"}],"name":"getWinners","outputs":[{"internalType":"address[]","name":"winners","type":"address[]"},{"internalType":"uint256[]","name":"amounts","type":"uint256[]"}],"stateMutability":"view","type":"function"},{"inputs":[{"internalType":"address","name":"user","type":"address"}],"name":"isRegistered","outputs":[{"internalType":"bool","name":"","type":"bool"}],"stateMutability":"view","type":"function"},{"inputs":[{"internalType":"uint256","name":"id","type":"uint256"}],"name":"lockRaffleFunds","outputs":[],"stateMutability":"nonpayable","type":"function"},{"inputs":[{"internalType":"uint256","name":"id","type":"uint256"}],"name":"markRafflePaidOut","outputs":[],"stateMutability":"nonpayable","type":"function"},{"inputs":[],"name":"register","outputs":[],"stateMutability":"nonpayable","type":"function"},{"inputs":[{"internalType":"uint256","name":"id","type":"uint256"},{"internalType":"address[]","name":"users","type":"address[]"}],"name":"registerForRaffle","outputs":[],"stateMutability":"nonpayable","type":"function"},{"inputs":[{"internalType":"address","name":"newAdmin","type":"address"}],"name":"setAdmin","outputs":[],"stateMutability":"nonpayable","type":"function"},{"inputs":[],"name":"vault","outputs":[{"internalType":"contract TimelockVault","name":"","type":"address"}],"stateMutability":"view","type":"function"},{"inputs":[{"internalType":"address","name":"token","type":"address"},{"internalType":"uint256","name":"amount","type":"uint256"}],"name":"withdraw","outputs":[],"stateMutability":"nonpayable","type":"function"},{"stateMutability":"payable","type":"receive"}],"evm":{"bytecode":{"linkReferences":{},"object":"60c0604052600160025534801561001557600080fd5b50604051613cb0380380613cb083398101604081905261003491610128565b6001600160a01b03821661005b5760405163e6c4247b60e01b815260040160405180910390fd5b6001600160a01b0381166100825760405163e6c4247b60e01b815260040160405180910390fd5b600080546001600160a01b0319166001600160a01b03848116919091179091558116608052604051309082906100b7906100ff565b6001600160a01b03928316815291166020820152604001604051809103906000f0801580156100ea573d6000803e3d6000fd5b506001600160a01b031660a0525061015b9050565b61165f8061265183390190565b80516001600160a01b038116811461012357600080fd5b919050565b6000806040838503121561013b57600080fd5b6101448361010c565b91506101526020840161010c565b90509250929050565b60805160a0516124846101cd6000396000818161048c0152818161065a015281816107080152818161098101528181610e27015281816118070152818161194b0152611a350152600081816103b00152818161056801528181610bc80152818161164e01526116c901526124846000f3fe6080604052600436106101235760003560e01c80638ded65eb116100a0578063f3fef3a311610064578063f3fef3a314610412578063f6326fb314610432578063f851a4401461043a578063f8b2cb4f1461045a578063fbfa77cf1461047a57600080fd5b80638ded65eb14610335578063c3c5a54714610355578063c45a01551461039e578063d1d06b2e146103d2578063e3e3b883146103f257600080fd5b80633d1828b7116100e75780633d1828b71461021e5780634b615a521461024c5780635fba3171146102c75780636b1426a4146102e7578063704b6c021461031557600080fd5b80631a536b9b146101685780631aa3a0081461018a5780631b2c02f21461019f5780632273f76d146101dc578063338b5dea146101fe57600080fd5b366101635760405162461bcd60e51b815260206004820152600b60248201526a1554d157d1115413d4d25560aa1b60448201526064015b60405180910390fd5b600080fd5b34801561017457600080fd5b50610188610183366004611ebb565b6104ae565b005b34801561019657600080fd5b506101886107db565b3480156101ab57600080fd5b506101bf6101ba366004611ebb565b610851565b6040516001600160a01b0390911681526020015b60405180910390f35b3480156101e857600080fd5b506101f16108a6565b6040516101d39190611f10565b34801561020a57600080fd5b50610188610219366004611f52565b6108fe565b34801561022a57600080fd5b5061023e610239366004611fb9565b6109eb565b6040519081526020016101d3565b34801561025857600080fd5b5061026c610267366004611ebb565b610c39565b604080516001600160a01b0390991689526001600160401b03909716602089015263ffffffff9586169688019690965293909216606086015260ff16608085015260a0840152151560c083015260e0820152610100016101d3565b3480156102d357600080fd5b506101886102e2366004611ebb565b610d12565b3480156102f357600080fd5b50610307610302366004611ebb565b610eb4565b6040516101d3929190612086565b34801561032157600080fd5b506101886103303660046120e7565b611046565b34801561034157600080fd5b50610188610350366004612104565b6110f3565b34801561036157600080fd5b5061038e6103703660046120e7565b6001600160a01b031660009081526001602052604090205460ff1690565b60405190151581526020016101d3565b3480156103aa57600080fd5b506101bf7f000000000000000000000000000000000000000000000000000000000000000081565b3480156103de57600080fd5b506101886103ed366004611ebb565b6112f8565b3480156103fe57600080fd5b5061018861040d366004611ebb565b6116be565b34801561041e57600080fd5b5061018861042d366004611f52565b61176d565b6101886118fb565b34801561044657600080fd5b506000546101bf906001600160a01b031681565b34801561046657600080fd5b5061023e6104753660046120e7565b611a13565b34801561048657600080fd5b506101bf7f000000000000000000000000000000000000000000000000000000000000000081565b6000546001600160a01b031633146104d957604051634755657960e01b815260040160405180910390fd5b6000818152600460205260408120906002820154600160201b900460ff16600481111561050857610508612183565b1461052657604051631be3277160e31b815260040160405180910390fd5b600181015442600160a01b9091046001600160401b03161161055b576040516372e54d4d60e01b815260040160405180910390fd5b60008160030154905060007f00000000000000000000000000000000000000000000000000000000000000006001600160a01b03166361d027b36040518163ffffffff1660e01b8152600401602060405180830381865afa1580156105c4573d6000803e3d6000fd5b505050506040513d601f19601f820116820180604052508101906105e89190612199565b90506001600160a01b038116156106b957600060646106088460016121cc565b61061291906121f9565b905080156106b757610624818461220d565b600185015460405163bb7706d760e01b81526001600160a01b0391821660048201528482166024820152604481018490529194507f0000000000000000000000000000000000000000000000000000000000000000169063bb7706d790606401600060405180830381600087803b15801561069e57600080fd5b505af11580156106b2573d6000803e3d6000fd5b505050505b505b60038301829055600183015460405163f99dd23f60e01b8152600481018690526001600160a01b03808316602483015260448201859052600160a01b9092046001600160401b031660648201527f00000000000000000000000000000000000000000000000000000000000000009091169063f99dd23f90608401600060405180830381600087803b15801561074e57600080fd5b505af1158015610762573d6000803e3d6000fd5b5050505060028301805464ff000000001916600160201b179055600183015460408051848152600160a01b83046001600160401b0316602082015281516001600160a01b039093169287927feee363108fd9bf7ae127cd06f3248ba46a0c00310ff78069422b76163d80dade928290030190a350505050565b3360009081526001602052604090205460ff161561080c57604051630ea075bf60e21b815260040160405180910390fd5b336000818152600160208190526040808320805460ff1916909217909155517f2d3734a8e47ac8316e500ac231c90a6e1848ca2285f40d07eaa52005e4b3a0e99190a2565b60008181526004602052604081206001810154600160a01b90046001600160401b0316820361089357604051632b0fdd7560e01b815260040160405180910390fd5b600101546001600160a01b031692915050565b606060038054806020026020016040519081016040528092919081815260200182805480156108f457602002820191906000526020600020905b8154815260200190600101908083116108e0575b5050505050905090565b6000546001600160a01b0316331461092957604051634755657960e01b815260040160405180910390fd5b6001600160a01b0382166109505760405163e6c4247b60e01b815260040160405180910390fd5b8060000361097157604051631f2a200560e01b815260040160405180910390fd5b6109a66001600160a01b038316337f000000000000000000000000000000000000000000000000000000000000000084611aa8565b6040518181526001600160a01b0383169033907fa34888965a2504126e7429fbc1063f30608255b265001b98bc88e8bd3108588a906020015b60405180910390a35050565b600080546001600160a01b03163314610a1757604051634755657960e01b815260040160405180910390fd5b8463ffffffff16600003610a3e57604051633728feb360e01b815260040160405180910390fd5b42866001600160401b031611610a67576040516372e54d4d60e01b815260040160405180910390fd5b82600003610a8857604051631f2a200560e01b815260040160405180910390fd5b60028054906000610a9883612220565b90915550600081815260046020526040902090915080610ab98a8c836122d5565b506001818101805463ffffffff898116600160e01b026001600160e01b036001600160401b038d16600160a01b026001600160e01b03199094166001600160a01b038f1690811794909417161790925560028401805492891664ffffffffff1990931692909217909155600380840187905560048401805460ff1916871515179055805492830181556000527fc2575a0e9e593c00f959f8c92f12db2869c3395a3b0502d05e2516446f71f85b90910183905560405183907f818611256f2fc2c80d80bfd9f7dba8fb4a8d6fb58a540345847c5f2feca7043890610baa908e908e908d908d908d908d908d90612394565b60405180910390a3604051630e65c07d60e41b8152600481018390527f00000000000000000000000000000000000000000000000000000000000000006001600160a01b03169063e65c07d090602401600060405180830381600087803b158015610c1457600080fd5b505af1158015610c28573d6000803e3d6000fd5b505050505098975050505050505050565b60008181526004602052604081206001810154829182918291829182918291829190600160a01b90046001600160401b03168203610c8a57604051632b0fdd7560e01b815260040160405180910390fd5b600181015460028201546001600160a01b038216916001600160401b03600160a01b8204169163ffffffff600160e01b90920482169181169060ff600160201b909104166004811115610cdf57610cdf612183565b60038601546004870154600590970154959e50939c50919a5098509650945060ff90911692509050919395975091939597565b6000546001600160a01b03163314610d3d57604051634755657960e01b815260040160405180910390fd5b600081815260046020526040902060016002820154600160201b900460ff166004811115610d6d57610d6d612183565b14610d8b57604051634065aaf160e11b815260040160405180910390fd5b6001810154600160a01b90046001600160401b0316421015610dc057604051631a6031a360e31b815260040160405180910390fd5b600581015415610de35760405163ea1e54b760e01b815260040160405180910390fd5b60028101805464040000000064ff00000000199091161790556001810154604051630791352560e41b8152600481018490526001600160a01b0391821660248201527f000000000000000000000000000000000000000000000000000000000000000090911690637913525090604401600060405180830381600087803b158015610e6d57600080fd5b505af1158015610e81573d6000803e3d6000fd5b50506040518492507f7fa78bab5d5570f162c69234a3f4d1b9294fd5bca72219cb16c1fe38839ccb8a9150600090a25050565b60008181526004602052604081206001810154606092839291600160a01b90046001600160401b03169003610efc57604051632b0fdd7560e01b815260040160405180910390fd5b6007810154806001600160401b03811115610f1957610f19612239565b604051908082528060200260200182016040528015610f42578160200160208202803683370190505b509350806001600160401b03811115610f5d57610f5d612239565b604051908082528060200260200182016040528015610f86578160200160208202803683370190505b50925060005b8181101561103e57826007018181548110610fa957610fa96123f8565b9060005260206000200160009054906101000a90046001600160a01b0316858281518110610fd957610fd96123f8565b60200260200101906001600160a01b031690816001600160a01b03168152505082600801818154811061100e5761100e6123f8565b906000526020600020015484828151811061102b5761102b6123f8565b6020908102919091010152600101610f8c565b505050915091565b6000546001600160a01b0316331461107157604051634755657960e01b815260040160405180910390fd5b6001600160a01b0381166110985760405163e6c4247b60e01b815260040160405180910390fd5b600080546040516001600160a01b03808516939216917f7e644d79422f17c01e4894b5f4f588d331ebfa28653d42ae832dc59e38c9798f91a3600080546001600160a01b0319166001600160a01b0392909216919091179055565b600083815260046020526040902060016002820154600160201b900460ff16600481111561112357611123612183565b1461114157604051634065aaf160e11b815260040160405180910390fd5b6001810154600160a01b90046001600160401b031642106111755760405163502fd88d60e01b815260040160405180910390fd5b60005b828110156112f157600282015463ffffffff16158015906111a957506002820154600583015463ffffffff90911611155b156111c75760405163502fd88d60e01b815260040160405180910390fd5b60008484838181106111db576111db6123f8565b90506020020160208101906111f091906120e7565b6001600160a01b038116600090815260068501602052604090205490915060ff161561122e57604051621d934160e11b815260040160405180910390fd5b600483015460ff1615611274576001600160a01b03811660009081526001602052604090205460ff166112745760405163841799d560e01b815260040160405180910390fd5b6001600160a01b03811660008181526006850160209081526040808320805460ff191660019081179091556005880180549182018155845291832090910180546001600160a01b031916841790555188917f8dafe7d2071ebc41334e0a69b339b8853d8288641394d545a7cadb785a544b8491a350600101611178565b5050505050565b6000546001600160a01b0316331461132357604051634755657960e01b815260040160405180910390fd5b600081815260046020526040902060016002820154600160201b900460ff16600481111561135357611353612183565b1461137157604051634065aaf160e11b815260040160405180910390fd5b60018101546002820154600160a01b9091046001600160401b03164210159060009063ffffffff16158015906113b757506002830154600584015463ffffffff90911611155b9050811580156113c5575080155b156113e357604051631a6031a360e31b815260040160405180910390fd5b60058301546001840154600160e01b900463ffffffff16808210156114055750805b600061141260014361220d565b600187015460408051924060208401523060601b6bffffffffffffffffffffffff1916908301526054820189905260748201859052600160a01b900460c01b6001600160c01b0319166094820152609c016040516020818303038152906040528051906020012090506000836001600160401b0381111561149557611495612239565b6040519080825280602002602001820160405280156114be578160200160208202803683370190505b50905060005b84811015611531578760050181815481106114e1576114e16123f8565b9060005260206000200160009054906101000a90046001600160a01b0316828281518110611511576115116123f8565b6001600160a01b03909216602092830291909101909101526001016114c4565b50600061153f828585611b08565b80519091506115579060078a01906020840190611e06565b50600061156989600301548351611cb1565b80519091506115819060088b01906020840190611e6b565b5060005b82518110156115e25760018a60090160008584815181106115a8576115a86123f8565b6020908102919091018101516001600160a01b03168252810191909152604001600020805460ff1916911515919091179055600101611585565b506002898101805464ff000000001916600160201b830217905550838a7f6dd00223930d8eb76cc4877f2f329a75e614a1c4a7ef684b6d279d3b4c0661b38484604051611630929190612086565b60405180910390a360405163b4bbaa0160e01b8152600481018b90527f00000000000000000000000000000000000000000000000000000000000000006001600160a01b03169063b4bbaa0190602401600060405180830381600087803b15801561169a57600080fd5b505af11580156116ae573d6000803e3d6000fd5b5050505050505050505050505050565b336001600160a01b037f0000000000000000000000000000000000000000000000000000000000000000161461170757604051630636a15760e11b815260040160405180910390fd5b6000818152600460205260409020600280820154600160201b900460ff16600481111561173657611736612183565b14611754576040516361ee4f6b60e11b815260040160405180910390fd5b600201805464ff00000000191664030000000017905550565b6000546001600160a01b0316331461179857604051634755657960e01b815260040160405180910390fd5b600081116117d65760405162461bcd60e51b815260206004820152600b60248201526a16915493d7d05353d5539560aa1b604482015260640161015a565b600054604051631ed9b4b960e01b81526001600160a01b0384811660048301529182166024820152604481018390527f000000000000000000000000000000000000000000000000000000000000000090911690631ed9b4b990606401600060405180830381600087803b15801561184d57600080fd5b505af1158015611861573d6000803e3d6000fd5b5050506001600160a01b03831690506118ba576000546040518281526001600160a01b03909116907f5817fe91d2748c33f168d8a78037fc073adaf6ec8e3613a758d44a2cfae4563d9060200160405180910390a25050565b6000546040518281526001600160a01b038481169216907f11dd463c4f2edd676b85f050130c7ab2f5832f52becb5444b09a92404aa1498a906020016109df565b6000546001600160a01b0316331461192657604051634755657960e01b815260040160405180910390fd5b3460000361194757604051631f2a200560e01b815260040160405180910390fd5b60007f00000000000000000000000000000000000000000000000000000000000000006001600160a01b03163460405160006040518083038185875af1925050503d80600081146119b4576040519150601f19603f3d011682016040523d82523d6000602084013e6119b9565b606091505b50509050806119db576040516302038a7d60e11b815260040160405180910390fd5b60405134815233907f296fa4a1573775154b81fc1dac882e862e7da59a2d5adca4be330d41c4610d379060200160405180910390a250565b60405163f8b2cb4f60e01b81526001600160a01b0382811660048301526000917f00000000000000000000000000000000000000000000000000000000000000009091169063f8b2cb4f90602401602060405180830381865afa158015611a7e573d6000803e3d6000fd5b505050506040513d601f19601f82011682018060405250810190611aa2919061240e565b92915050565b604080516001600160a01b0385811660248301528416604482015260648082018490528251808303909101815260849091019091526020810180516001600160e01b03166323b872dd60e01b179052611b02908590611d95565b50505050565b606060008363ffffffff166001600160401b03811115611b2a57611b2a612239565b604051908082528060200260200182016040528015611b53578160200160208202803683370190505b50855190915060005b8563ffffffff16811015611ca6576000611b76828461220d565b60408051602081018990529081018490526060016040516020818303038152906040528051906020012060001c611bad9190612427565b90506000888381518110611bc357611bc36123f8565b60200260200101519050888284611bda919061243b565b81518110611bea57611bea6123f8565b6020026020010151898481518110611c0457611c046123f8565b6001600160a01b03909216602092830291909101909101528089611c28848661243b565b81518110611c3857611c386123f8565b60200260200101906001600160a01b031690816001600160a01b031681525050888381518110611c6a57611c6a6123f8565b6020026020010151858481518110611c8457611c846123f8565b6001600160a01b03909216602092830291909101909101525050600101611b5c565b509095945050505050565b606081600003611cd457604051633728feb360e01b815260040160405180910390fd5b816001600160401b03811115611cec57611cec612239565b604051908082528060200260200182016040528015611d15578160200160208202803683370190505b5090506000611d2483856121f9565b90506000611d3284836121cc565b611d3c908661220d565b905060005b84811015611d8c57818110611d57576000611d5a565b60015b611d679060ff168461243b565b848281518110611d7957611d796123f8565b6020908102919091010152600101611d41565b50505092915050565b600080602060008451602086016000885af180611db8576040513d6000823e3d81fd5b50506000513d91508115611dd0578060011415611ddd565b6001600160a01b0384163b155b15611b0257604051635274afe760e01b81526001600160a01b038516600482015260240161015a565b828054828255906000526020600020908101928215611e5b579160200282015b82811115611e5b57825182546001600160a01b0319166001600160a01b03909116178255602090920191600190910190611e26565b50611e67929150611ea6565b5090565b828054828255906000526020600020908101928215611e5b579160200282015b82811115611e5b578251825591602001919060010190611e8b565b5b80821115611e675760008155600101611ea7565b600060208284031215611ecd57600080fd5b5035919050565b600081518084526020840193506020830160005b82811015611f06578151865260209586019590910190600101611ee8565b5093949350505050565b602081526000611f236020830184611ed4565b9392505050565b6001600160a01b0381168114611f3f57600080fd5b50565b8035611f4d81611f2a565b919050565b60008060408385031215611f6557600080fd5b8235611f7081611f2a565b946020939093013593505050565b80356001600160401b0381168114611f4d57600080fd5b803563ffffffff81168114611f4d57600080fd5b80358015158114611f4d57600080fd5b60008060008060008060008060e0898b031215611fd557600080fd5b88356001600160401b03811115611feb57600080fd5b8901601f81018b13611ffc57600080fd5b80356001600160401b0381111561201257600080fd5b8b602082840101111561202457600080fd5b602091820199509750612038908a01611f42565b955061204660408a01611f7e565b945061205460608a01611f95565b935061206260808a01611f95565b925060a0890135915061207760c08a01611fa9565b90509295985092959890939650565b6040808252835190820181905260009060208501906060840190835b818110156120c95783516001600160a01b03168352602093840193909201916001016120a2565b505083810360208501526120dd8186611ed4565b9695505050505050565b6000602082840312156120f957600080fd5b8135611f2381611f2a565b60008060006040848603121561211957600080fd5b8335925060208401356001600160401b0381111561213657600080fd5b8401601f8101861361214757600080fd5b80356001600160401b0381111561215d57600080fd5b8660208260051b840101111561217257600080fd5b939660209190910195509293505050565b634e487b7160e01b600052602160045260246000fd5b6000602082840312156121ab57600080fd5b8151611f2381611f2a565b634e487b7160e01b600052601160045260246000fd5b8082028115828204841417611aa257611aa26121b6565b634e487b7160e01b600052601260045260246000fd5b600082612208576122086121e3565b500490565b81810381811115611aa257611aa26121b6565b600060018201612232576122326121b6565b5060010190565b634e487b7160e01b600052604160045260246000fd5b600181811c9082168061226357607f821691505b60208210810361228357634e487b7160e01b600052602260045260246000fd5b50919050565b601f8211156122d057806000526020600020601f840160051c810160208510156122b05750805b601f840160051c820191505b818110156112f157600081556001016122bc565b505050565b6001600160401b038311156122ec576122ec612239565b612300836122fa835461224f565b83612289565b6000601f841160018114612334576000851561231c5750838201355b600019600387901b1c1916600186901b1783556112f1565b600083815260209020601f19861690835b828110156123655786850135825560209485019460019092019101612345565b50868210156123825760001960f88860031b161c19848701351681555b505060018560011b0183555050505050565b60c081528660c0820152868860e0830137600060e08883018101919091526001600160401b0396909616602082015263ffffffff9485166040820152929093166060830152608082015290151560a0820152601f909201601f191690910101919050565b634e487b7160e01b600052603260045260246000fd5b60006020828403121561242057600080fd5b5051919050565b600082612436576124366121e3565b500690565b80820180821115611aa257611aa26121b656fea2646970667358221220ca5d90afb93c60b33dde956cf5f0d5eb75376b2f60527367680afe07138ab7d364736f6c634300081c003360c060405234801561001057600080fd5b5060405161165f38038061165f83398101604081905261002f916100f9565b6001600160a01b03821661007e5760405162461bcd60e51b8152602060048201526011602482015270494e56414c49445f434f4d4d554e49545960781b60448201526064015b60405180910390fd5b6001600160a01b0381166100c65760405162461bcd60e51b815260206004820152600f60248201526e494e56414c49445f464143544f525960881b6044820152606401610075565b6001600160a01b039182166080521660a05261012c565b80516001600160a01b03811681146100f457600080fd5b919050565b6000806040838503121561010c57600080fd5b610115836100dd565b9150610123602084016100dd565b90509250929050565b60805160a0516114e461017b600039600081816101ab01526106de015260008181610227015281816103300152818161053801528181610ae201528181610cb20152610e1c01526114e46000f3fe6080604052600436106100ab5760003560e01c8063c45a015511610064578063c45a015514610199578063cf745f6c146101e5578063dc1fb5a514610215578063e923c98a14610249578063f8b2cb4f146102e5578063f99dd23f1461030557600080fd5b80631ed9b4b9146100b75780633d357b02146100d95780634792dc871461010c5780637913525014610139578063988413dd14610159578063bb7706d71461017957600080fd5b366100b257005b600080fd5b3480156100c357600080fd5b506100d76100d236600461113e565b610325565b005b3480156100e557600080fd5b506100f96100f436600461117f565b6104fb565b6040519081526020015b60405180910390f35b34801561011857600080fd5b506100f961012736600461117f565b60006020819052908152604090205481565b34801561014557600080fd5b506100d76101543660046111a3565b61052d565b34801561016557600080fd5b506100d761017436600461121f565b6106d3565b34801561018557600080fd5b506100d761019436600461113e565b610ad7565b3480156101a557600080fd5b506101cd7f000000000000000000000000000000000000000000000000000000000000000081565b6040516001600160a01b039091168152602001610103565b3480156101f157600080fd5b506102056102003660046111a3565b610c55565b6040519015158152602001610103565b34801561022157600080fd5b506101cd7f000000000000000000000000000000000000000000000000000000000000000081565b34801561025557600080fd5b506102ae6102643660046111a3565b6001602081815260009384526040808520909152918352912080549181015460029091015467ffffffffffffffff82169160ff600160401b8204811692600160481b909204169085565b6040805195865267ffffffffffffffff9094166020860152911515928401929092529015156060830152608082015260a001610103565b3480156102f157600080fd5b506100f961030036600461117f565b610d92565b34801561031157600080fd5b506100d76103203660046112c6565b610e11565b336001600160a01b037f000000000000000000000000000000000000000000000000000000000000000016146103765760405162461bcd60e51b815260040161036d90611310565b60405180910390fd5b600081116103965760405162461bcd60e51b815260040161036d90611338565b6001600160a01b0383166000908152602081905260408120546103b885610d92565b6103c29190611373565b90508181101561040d5760405162461bcd60e51b8152602060048201526016602482015275494e53554646494349454e545f415641494c41424c4560501b604482015260640161036d565b6001600160a01b038416610494576000836001600160a01b03168360405160006040518083038185875af1925050503d8060008114610468576040519150601f19603f3d011682016040523d82523d6000602084013e61046d565b606091505b505090508061048e5760405162461bcd60e51b815260040161036d90611386565b506104a8565b6104a86001600160a01b038516848461105e565b826001600160a01b0316846001600160a01b03167fd1c19fbcd4551a5edfb66d43d2e337c04837afda3482b42bdf569a8fccdae5fb846040516104ed91815260200190565b60405180910390a350505050565b6001600160a01b03811660009081526020819052604081205461051d83610d92565b6105279190611373565b92915050565b336001600160a01b037f000000000000000000000000000000000000000000000000000000000000000016146105755760405162461bcd60e51b815260040161036d90611310565b60008281526001602081815260408084206001600160a01b038616855290915290912090810154600160401b900460ff166105df5760405162461bcd60e51b815260206004820152600a6024820152691393d517d313d0d2d15160b21b604482015260640161036d565b6001810154600160481b900460ff161561062f5760405162461bcd60e51b81526020600482015260116024820152701053149150511657d11254d0955494d151607a1b604482015260640161036d565b80546001600160a01b03831660009081526020819052604081208054839290610659908490611373565b909155505060008481526001602081815260408084206001600160a01b0388168086529252808420848155928301805469ffffffffffffffffffff191690556002909201929092555185907ff1c2201ab8d3afe0ab6336204843b66bb25c5f27d6de3490c9a463fd18d294a9906104ed9085815260200190565b336001600160a01b037f0000000000000000000000000000000000000000000000000000000000000000161461073a5760405162461bcd60e51b815260206004820152600c60248201526b4f4e4c595f464143544f525960a01b604482015260640161036d565b8281146107785760405162461bcd60e51b815260206004820152600c60248201526b0988a9cbe9a92a69a82a886960a31b604482015260640161036d565b6107828686610c55565b6107c05760405162461bcd60e51b815260206004820152600f60248201526e54494d454c4f434b5f41435449564560881b604482015260640161036d565b60008681526001602090815260408083206001600160a01b0389168452909152812090805b85811015610a2a576000878783818110610801576108016113b3565b9050602002016020810190610816919061117f565b9050600086868481811061082c5761082c6113b3565b60200291909101359150506001600160a01b03821661087a5760405162461bcd60e51b815260206004820152600a602482015269494e56414c49445f544f60b01b604482015260640161036d565b6000811161089a5760405162461bcd60e51b815260040161036d90611338565b845460028601546108ac9083906113c9565b11156108e45760405162461bcd60e51b81526020600482015260076024820152664f56455250415960c81b604482015260640161036d565b6001600160a01b038a1661096b576000826001600160a01b03168260405160006040518083038185875af1925050503d806000811461093f576040519150601f19603f3d011682016040523d82523d6000602084013e610944565b606091505b50509050806109655760405162461bcd60e51b815260040161036d90611386565b5061097f565b61097f6001600160a01b038b16838361105e565b8085600201600082825461099391906113c9565b90915550506001600160a01b038a16600090815260208190526040812080548392906109c0908490611373565b909155506109d0905081856113c9565b9350816001600160a01b03168a6001600160a01b03168c7f2a156326ec22774ffa31f45f5f5990405e41eb6fe44e1d600934ab445cf3c0c184604051610a1891815260200190565b60405180910390a450506001016107e5565b50866001600160a01b0316887f32783f5493ddd65b3d8bb7bcbe6c08b4d3266223afd87f940a456dcd86074b6e83604051610a6791815260200190565b60405180910390a38154600283015403610acd5760018201805469ff0000000000000000001916600160481b1790556040516001600160a01b0388169089907fa6efdaf5c9f54b66d8444894d554fd5fbc60fd07836aedcc7eb5020fd187260290600090a35b5050505050505050565b336001600160a01b037f00000000000000000000000000000000000000000000000000000000000000001614610b1f5760405162461bcd60e51b815260040161036d90611310565b60008111610b3f5760405162461bcd60e51b815260040161036d90611338565b6001600160a01b038316600090815260208190526040812054610b6185610d92565b610b6b9190611373565b905081811015610bb45760405162461bcd60e51b8152602060048201526014602482015273494e53554646494349454e545f464f525f46454560601b604482015260640161036d565b6001600160a01b038416610c3b576000836001600160a01b03168360405160006040518083038185875af1925050503d8060008114610c0f576040519150601f19603f3d011682016040523d82523d6000602084013e610c14565b606091505b5050905080610c355760405162461bcd60e51b815260040161036d90611386565b50610c4f565b610c4f6001600160a01b038516848461105e565b50505050565b60008281526001602081815260408084206001600160a01b0386168552909152822090810154600160401b900460ff161580610c9c57506001810154600160481b900460ff165b15610cab576000915050610527565b60008060007f00000000000000000000000000000000000000000000000000000000000000006001600160a01b0316634b615a52886040518263ffffffff1660e01b8152600401610cfe91815260200190565b61010060405180830381865afa158015610d1c573d6000803e3d6000fd5b505050506040513d601f19601f82011682018060405250810190610d4091906113f5565b975050505094505093505060008367ffffffffffffffff1642101590506000808463ffffffff16118015610d7a57508363ffffffff168310155b90508180610d855750805b9998505050505050505050565b60006001600160a01b038216610da9575047919050565b6040516370a0823160e01b81523060048201526001600160a01b038316906370a0823190602401602060405180830381865afa158015610ded573d6000803e3d6000fd5b505050506040513d601f19601f820116820180604052508101906105279190611495565b336001600160a01b037f00000000000000000000000000000000000000000000000000000000000000001614610e595760405162461bcd60e51b815260040161036d90611310565b428167ffffffffffffffff1611610ea45760405162461bcd60e51b815260206004820152600f60248201526e1153911512535157d25397d41054d5608a1b604482015260640161036d565b60008211610ec45760405162461bcd60e51b815260040161036d90611338565b60008481526001602081815260408084206001600160a01b038816855290915290912090810154600160401b900460ff1615610f335760405162461bcd60e51b815260206004820152600e60248201526d1053149150511657d313d0d2d15160921b604482015260640161036d565b6000610f3e85610d92565b6001600160a01b03861660009081526020819052604081205491925090610f659083611373565b905084811015610fb05760405162461bcd60e51b8152602060048201526016602482015275494e53554646494349454e545f415641494c41424c4560501b604482015260640161036d565b84835560018301805468ffffffffffffffffff191667ffffffffffffffff861617600160401b1790556001600160a01b038616600090815260208190526040812080548792906110019084906113c9565b90915550506040805186815267ffffffffffffffff861660208201526001600160a01b0388169189917f1b2647ac67960126f97ff0f07f3f647fb18657e8c057387ca2caa1667fcacca5910160405180910390a350505050505050565b604080516001600160a01b038416602482015260448082018490528251808303909101815260649091019091526020810180516001600160e01b031663a9059cbb60e01b1790526110b09084906110b5565b505050565b600080602060008451602086016000885af1806110d8576040513d6000823e3d81fd5b50506000513d915081156110f05780600114156110fd565b6001600160a01b0384163b155b15610c4f57604051635274afe760e01b81526001600160a01b038516600482015260240161036d565b6001600160a01b038116811461113b57600080fd5b50565b60008060006060848603121561115357600080fd5b833561115e81611126565b9250602084013561116e81611126565b929592945050506040919091013590565b60006020828403121561119157600080fd5b813561119c81611126565b9392505050565b600080604083850312156111b657600080fd5b8235915060208301356111c881611126565b809150509250929050565b60008083601f8401126111e557600080fd5b50813567ffffffffffffffff8111156111fd57600080fd5b6020830191508360208260051b850101111561121857600080fd5b9250929050565b6000806000806000806080878903121561123857600080fd5b86359550602087013561124a81611126565b9450604087013567ffffffffffffffff81111561126657600080fd5b61127289828a016111d3565b909550935050606087013567ffffffffffffffff81111561129257600080fd5b61129e89828a016111d3565b979a9699509497509295939492505050565b67ffffffffffffffff8116811461113b57600080fd5b600080600080608085870312156112dc57600080fd5b8435935060208501356112ee81611126565b9250604085013591506060850135611305816112b0565b939692955090935050565b6020808252600e908201526d4f4e4c595f434f4d4d554e49545960901b604082015260600190565b6020808252600b908201526a16915493d7d05353d5539560aa1b604082015260600190565b634e487b7160e01b600052601160045260246000fd5b818103818111156105275761052761135d565b60208082526013908201527211551217d514905394d1915497d19052531151606a1b604082015260600190565b634e487b7160e01b600052603260045260246000fd5b808201808211156105275761052761135d565b805163ffffffff811681146113f057600080fd5b919050565b600080600080600080600080610100898b03121561141257600080fd5b885161141d81611126565b60208a015190985061142e816112b0565b965061143c60408a016113dc565b955061144a60608a016113dc565b9450608089015160ff8116811461146057600080fd5b60a08a015160c08b01519195509350801515811461147d57600080fd5b60e09990990151979a96995094979396929591945050565b6000602082840312156114a757600080fd5b505191905056fea26469706673582212206c65acea7247d87ed9a97e62f693d5de0bc72bbdbef865a2e83da45edde3295164736f6c634300081c0033","opcodes":"PUSH1 0xC0 PUSH1 0x40 MSTORE PUSH1 0x1 PUSH1 0x2 SSTORE CALLVALUE DUP1 ISZERO PUSH2 0x15 JUMPI PUSH1 0x0 DUP1 REVERT JUMPDEST POP PUSH1 0x40 MLOAD PUSH2 0x3CB0 CODESIZE SUB DUP1 PUSH2 0x3CB0 DUP4 CODECOPY DUP2 ADD PUSH1 0x40 DUP2 SWAP1 MSTORE PUSH2 0x34 SWAP2 PUSH2 0x128 JUMP JUMPDEST PUSH1 0x1 PUSH1 0x1 PUSH1 0xA0 SHL SUB DUP3 AND PUSH2 0x5B JUMPI PUSH1 0x40 MLOAD PUSH4 0xE6C4247B PUSH1 0xE0 SHL DUP2 MSTORE PUSH1 0x4 ADD PUSH1 0x40 MLOAD DUP1 SWAP2 SUB SWAP1 REVERT JUMPDEST PUSH1 0x1 PUSH1 0x1 PUSH1 0xA0 SHL SUB DUP2 AND PUSH2 0x82 JUMPI PUSH1 0x40 MLOAD PUSH4 0xE6C4247B PUSH1 0xE0 SHL DUP2 MSTORE PUSH1 0x4 ADD PUSH1 0x40 MLOAD DUP1 SWAP2 SUB SWAP1 REVERT JUMPDEST PUSH1 0x0 DUP1 SLOAD PUSH1 0x1 PUSH1 0x1 PUSH1 0xA0 SHL SUB NOT AND PUSH1 0x1 PUSH1 0x1 PUSH1 0xA0 SHL SUB DUP5 DUP2 AND SWAP2 SWAP1 SWAP2 OR SWAP1 SWAP2 SSTORE DUP2 AND PUSH1 0x80 MSTORE PUSH1 0x40 MLOAD ADDRESS SWAP1 DUP3 SWAP1 PUSH2 0xB7 SWAP1 PUSH2 0xFF JUMP JUMPDEST PUSH1 0x1 PUSH1 0x1 PUSH1 0xA0 SHL SUB SWAP3 DUP4 AND DUP2 MSTORE SWAP2 AND PUSH1 0x20 DUP3 ADD MSTORE PUSH1 0x40 ADD PUSH1 0x40 MLOAD DUP1 SWAP2 SUB SWAP1 PUSH1 0x0 CREATE DUP1 ISZERO DUP1 ISZERO PUSH2 0xEA JUMPI RETURNDATASIZE PUSH1 0x0 DUP1 RETURNDATACOPY RETURNDATASIZE PUSH1 0x0 REVERT JUMPDEST POP PUSH1 0x1 PUSH1 0x1 PUSH1 0xA0 SHL SUB AND PUSH1 0xA0 MSTORE POP PUSH2 0x15B SWAP1 POP JUMP JUMPDEST PUSH2 0x165F DUP1 PUSH2 0x2651 DUP4 CODECOPY ADD SWAP1 JUMP JUMPDEST DUP1 MLOAD PUSH1 0x1 PUSH1 0x1 PUSH1 0xA0 SHL SUB DUP2 AND DUP2 EQ PUSH2 0x123 JUMPI PUSH1 0x0 DUP1 REVERT JUMPDEST SWAP2 SWAP1 POP JUMP JUMPDEST PUSH1 0x0 DUP1 PUSH1 0x40 DUP4 DUP6 SUB SLT ISZERO PUSH2 0x13B JUMPI PUSH1 0x0 DUP1 REVERT JUMPDEST PUSH2 0x144 DUP4 PUSH2 0x10C JUMP JUMPDEST SWAP2 POP PUSH2 0x152 PUSH1 0x20 DUP5 ADD PUSH2 0x10C JUMP JUMPDEST SWAP1 POP SWAP3 POP SWAP3 SWAP1 POP JUMP JUMPDEST PUSH1 0x80 MLOAD PUSH1 0xA0 MLOAD PUSH2 0x2484 PUSH2 0x1CD PUSH1 0x0 CODECOPY PUSH1 0x0 DUP2 DUP2 PUSH2 0x48C ADD MSTORE DUP2 DUP2 PUSH2 0x65A ADD MSTORE DUP2 DUP2 PUSH2 0x708 ADD MSTORE DUP2 DUP2 PUSH2 0x981 ADD MSTORE DUP2 DUP2 PUSH2 0xE27 ADD MSTORE DUP2 DUP2 PUSH2 0x1807 ADD MSTORE DUP2 DUP2 PUSH2 0x194B ADD MSTORE PUSH2 0x1A35 ADD MSTORE PUSH1 0x0 DUP2 DUP2 PUSH2 0x3B0 ADD MSTORE DUP2 DUP2 PUSH2 0x568 ADD MSTORE DUP2 DUP2 PUSH2 0xBC8 ADD MSTORE DUP2 DUP2 PUSH2 0x164E ADD MSTORE PUSH2 0x16C9 ADD MSTORE PUSH2 0x2484 PUSH1 0x0 RETURN INVALID PUSH1 0x80 PUSH1 0x40 MSTORE PUSH1 0x4 CALLDATASIZE LT PUSH2 0x123 JUMPI PUSH1 0x0 CALLDATALOAD PUSH1 0xE0 SHR DUP1 PUSH4 0x8DED65EB GT PUSH2 0xA0 JUMPI DUP1 PUSH4 0xF3FEF3A3 GT PUSH2 0x64 JUMPI DUP1 PUSH4 0xF3FEF3A3 EQ PUSH2 0x412 JUMPI DUP1 PUSH4 0xF6326FB3 EQ PUSH2 0x432 JUMPI DUP1 PUSH4 0xF851A440 EQ PUSH2 0x43A JUMPI DUP1 PUSH4 0xF8B2CB4F EQ PUSH2 0x45A JUMPI DUP1 PUSH4 0xFBFA77CF EQ PUSH2 0x47A JUMPI PUSH1 0x0 DUP1 REVERT JUMPDEST DUP1 PUSH4 0x8DED65EB EQ PUSH2 0x335 JUMPI DUP1 PUSH4 0xC3C5A547 EQ PUSH2 0x355 JUMPI DUP1 PUSH4 0xC45A0155 EQ PUSH2 0x39E JUMPI DUP1 PUSH4 0xD1D06B2E EQ PUSH2 0x3D2 JUMPI DUP1 PUSH4 0xE3E3B883 EQ PUSH2 0x3F2 JUMPI PUSH1 0x0 DUP1 REVERT JUMPDEST DUP1 PUSH4 0x3D1828B7 GT PUSH2 0xE7 JUMPI DUP1 PUSH4 0x3D1828B7 EQ PUSH2 0x21E JUMPI DUP1 PUSH4 0x4B615A52 EQ PUSH2 0x24C JUMPI DUP1 PUSH4 0x5FBA3171 EQ PUSH2 0x2C7 JUMPI DUP1 PUSH4 0x6B1426A4 EQ PUSH2 0x2E7 JUMPI DUP1 PUSH4 0x704B6C02 EQ PUSH2 0x315 JUMPI PUSH1 0x0 DUP1 REVERT JUMPDEST DUP1 PUSH4 0x1A536B9B EQ PUSH2 0x168 JUMPI DUP1 PUSH4 0x1AA3A008 EQ PUSH2 0x18A JUMPI DUP1 PUSH4 0x1B2C02F2 EQ PUSH2 0x19F JUMPI DUP1 PUSH4 0x2273F76D EQ PUSH2 0x1DC JUMPI DUP1 PUSH4 0x338B5DEA EQ PUSH2 0x1FE JUMPI PUSH1 0x0 DUP1 REVERT JUMPDEST CALLDATASIZE PUSH2 0x163 JUMPI PUSH1 0x40 MLOAD PUSH3 0x461BCD PUSH1 0xE5 SHL DUP2 MSTORE PUSH1 0x20 PUSH1 0x4 DUP3 ADD MSTORE PUSH1 0xB PUSH1 0x24 DUP3 ADD MSTORE PUSH11 0x1554D157D1115413D4D255 PUSH1 0xAA SHL PUSH1 0x44 DUP3 ADD MSTORE PUSH1 0x64 ADD JUMPDEST PUSH1 0x40 MLOAD DUP1 SWAP2 SUB SWAP1 REVERT JUMPDEST PUSH1 0x0 DUP1 REVERT JUMPDEST CALLVALUE DUP1 ISZERO PUSH2 0x174 JUMPI PUSH1 0x0 DUP1 REVERT JUMPDEST POP PUSH2 0x188 PUSH2 0x183 CALLDATASIZE PUSH1 0x4 PUSH2 0x1EBB JUMP JUMPDEST PUSH2 0x4AE JUMP JUMPDEST STOP JUMPDEST CALLVALUE DUP1 ISZERO PUSH2 0x196 JUMPI PUSH1 0x0 DUP1 REVERT JUMPDEST POP PUSH2 0x188 PUSH2 0x7DB JUMP JUMPDEST CALLVALUE DUP1 ISZERO PUSH2 0x1AB JUMPI PUSH1 0x0 DUP1 REVERT JUMPDEST POP PUSH2 0x1BF PUSH2 0x1BA CALLDATASIZE PUSH1 0x4 PUSH2 0x1EBB JUMP JUMPDEST PUSH2 0x851 JUMP JUMPDEST PUSH1 0x40 MLOAD PUSH1 0x1 PUSH1 0x1 PUSH1 0xA0 SHL SUB SWAP1 SWAP2 AND DUP2 MSTORE PUSH1 0x20 ADD JUMPDEST PUSH1 0x40 MLOAD DUP1 SWAP2 SUB SWAP1 RETURN JUMPDEST CALLVALUE DUP1 ISZERO PUSH2 0x1E8 JUMPI PUSH1 0x0 DUP1 REVERT JUMPDEST POP PUSH2 0x1F1 PUSH2 0x8A6 JUMP JUMPDEST PUSH1 0x40 MLOAD PUSH2 0x1D3 SWAP2 SWAP1 PUSH2 0x1F10 JUMP JUMPDEST CALLVALUE DUP1 ISZERO PUSH2 0x20A JUMPI PUSH1 0x0 DUP1 REVERT JUMPDEST POP PUSH2 0x188 PUSH2 0x219 CALLDATASIZE PUSH1 0x4 PUSH2 0x1F52 JUMP JUMPDEST PUSH2 0x8FE JUMP JUMPDEST CALLVALUE DUP1 ISZERO PUSH2 0x22A JUMPI PUSH1 0x0 DUP1 REVERT JUMPDEST POP PUSH2 0x23E PUSH2 0x239 CALLDATASIZE PUSH1 0x4 PUSH2 0x1FB9 JUMP JUMPDEST PUSH2 0x9EB JUMP JUMPDEST PUSH1 0x40 MLOAD SWAP1 DUP2 MSTORE PUSH1 0x20 ADD PUSH2 0x1D3 JUMP JUMPDEST CALLVALUE DUP1 ISZERO PUSH2 0x258 JUMPI PUSH1 0x0 DUP1 REVERT JUMPDEST POP PUSH2 0x26C PUSH2 0x267 CALLDATASIZE PUSH1 0x4 PUSH2 0x1EBB JUMP JUMPDEST PUSH2 0xC39 JUMP JUMPDEST PUSH1 0x40 DUP1 MLOAD PUSH1 0x1 PUSH1 0x1 PUSH1 0xA0 SHL SUB SWAP1 SWAP10 AND DUP10 MSTORE PUSH1 0x1 PUSH1 0x1 PUSH1 0x40 SHL SUB SWAP1 SWAP8 AND PUSH1 0x20 DUP10 ADD MSTORE PUSH4 0xFFFFFFFF SWAP6 DUP7 AND SWAP7 DUP9 ADD SWAP7 SWAP1 SWAP7 MSTORE SWAP4 SWAP1 SWAP3 AND PUSH1 0x60 DUP7 ADD MSTORE PUSH1 0xFF AND PUSH1 0x80 DUP6 ADD MSTORE PUSH1 0xA0 DUP5 ADD MSTORE ISZERO ISZERO PUSH1 0xC0 DUP4 ADD MSTORE PUSH1 0xE0 DUP3 ADD MSTORE PUSH2 0x100 ADD PUSH2 0x1D3 JUMP JUMPDEST CALLVALUE DUP1 ISZERO PUSH2 0x2D3 JUMPI PUSH1 0x0 DUP1 REVERT JUMPDEST POP PUSH2 0x188 PUSH2 0x2E2 CALLDATASIZE PUSH1 0x4 PUSH2 0x1EBB JUMP JUMPDEST PUSH2 0xD12 JUMP JUMPDEST CALLVALUE DUP1 ISZERO PUSH2 0x2F3 JUMPI PUSH1 0x0 DUP1 REVERT JUMPDEST POP PUSH2 0x307 PUSH2 0x302 CALLDATASIZE PUSH1 0x4 PUSH2 0x1EBB JUMP JUMPDEST PUSH2 0xEB4 JUMP JUMPDEST PUSH1 0x40 MLOAD PUSH2 0x1D3 SWAP3 SWAP2 SWAP1 PUSH2 0x2086 JUMP JUMPDEST CALLVALUE DUP1 ISZERO PUSH2 0x321 JUMPI PUSH1 0x0 DUP1 REVERT JUMPDEST POP PUSH2 0x188 PUSH2 0x330 CALLDATASIZE PUSH1 0x4 PUSH2 0x20E7 JUMP JUMPDEST PUSH2 0x1046 JUMP JUMPDEST CALLVALUE DUP1 ISZERO PUSH2 0x341 JUMPI PUSH1 0x0 DUP1 REVERT JUMPDEST POP PUSH2 0x188 PUSH2 0x350 CALLDATASIZE PUSH1 0x4 PUSH2 0x2104 JUMP JUMPDEST PUSH2 0x10F3 JUMP JUMPDEST CALLVALUE DUP1 ISZERO PUSH2 0x361 JUMPI PUSH1 0x0 DUP1 REVERT JUMPDEST POP PUSH2 0x38E PUSH2 0x370 CALLDATASIZE PUSH1 0x4 PUSH2 0x20E7 JUMP JUMPDEST PUSH1 0x1 PUSH1 0x1 PUSH1 0xA0 SHL SUB AND PUSH1 0x0 SWAP1 DUP2 MSTORE PUSH1 0x1 PUSH1 0x20 MSTORE PUSH1 0x40 SWAP1 KECCAK256 SLOAD PUSH1 0xFF AND SWAP1 JUMP JUMPDEST PUSH1 0x40 MLOAD SWAP1 ISZERO ISZERO DUP2 MSTORE PUSH1 0x20 ADD PUSH2 0x1D3 JUMP JUMPDEST CALLVALUE DUP1 ISZERO PUSH2 0x3AA JUMPI PUSH1 0x0 DUP1 REVERT JUMPDEST POP PUSH2 0x1BF PUSH32 0x0 DUP2 JUMP JUMPDEST CALLVALUE DUP1 ISZERO PUSH2 0x3DE JUMPI PUSH1 0x0 DUP1 REVERT JUMPDEST POP PUSH2 0x188 PUSH2 0x3ED CALLDATASIZE PUSH1 0x4 PUSH2 0x1EBB JUMP JUMPDEST PUSH2 0x12F8 JUMP JUMPDEST CALLVALUE DUP1 ISZERO PUSH2 0x3FE JUMPI PUSH1 0x0 DUP1 REVERT JUMPDEST POP PUSH2 0x188 PUSH2 0x40D CALLDATASIZE PUSH1 0x4 PUSH2 0x1EBB JUMP JUMPDEST PUSH2 0x16BE JUMP JUMPDEST CALLVALUE DUP1 ISZERO PUSH2 0x41E JUMPI PUSH1 0x0 DUP1 REVERT JUMPDEST POP PUSH2 0x188 PUSH2 0x42D CALLDATASIZE PUSH1 0x4 PUSH2 0x1F52 JUMP JUMPDEST PUSH2 0x176D JUMP JUMPDEST PUSH2 0x188 PUSH2 0x18FB JUMP JUMPDEST CALLVALUE DUP1 ISZERO PUSH2 0x446 JUMPI PUSH1 0x0 DUP1 REVERT JUMPDEST POP PUSH1 0x0 SLOAD PUSH2 0x1BF SWAP1 PUSH1 0x1 PUSH1 0x1 PUSH1 0xA0 SHL SUB AND DUP2 JUMP JUMPDEST CALLVALUE DUP1 ISZERO PUSH2 0x466 JUMPI PUSH1 0x0 DUP1 REVERT JUMPDEST POP PUSH2 0x23E PUSH2 0x475 CALLDATASIZE PUSH1 0x4 PUSH2 0x20E7 JUMP JUMPDEST PUSH2 0x1A13 JUMP JUMPDEST CALLVALUE DUP1 ISZERO PUSH2 0x486 JUMPI PUSH1 0x0 DUP1 REVERT JUMPDEST POP PUSH2 0x1BF PUSH32 0x0 DUP2 JUMP JUMPDEST PUSH1 0x0 SLOAD PUSH1 0x1 PUSH1 0x1 PUSH1 0xA0 SHL SUB AND CALLER EQ PUSH2 0x4D9 JUMPI PUSH1 0x40 MLOAD PUSH4 0x47556579 PUSH1 0xE0 SHL DUP2 MSTORE PUSH1 0x4 ADD PUSH1 0x40 MLOAD DUP1 SWAP2 SUB SWAP1 REVERT JUMPDEST PUSH1 0x0 DUP2 DUP2 MSTORE PUSH1 0x4 PUSH1 0x20 MSTORE PUSH1 0x40 DUP2 KECCAK256 SWAP1 PUSH1 0x2 DUP3 ADD SLOAD PUSH1 0x1 PUSH1 0x20 SHL SWAP1 DIV PUSH1 0xFF AND PUSH1 0x4 DUP2 GT ISZERO PUSH2 0x508 JUMPI PUSH2 0x508 PUSH2 0x2183 JUMP JUMPDEST EQ PUSH2 0x526 JUMPI PUSH1 0x40 MLOAD PUSH4 0x1BE32771 PUSH1 0xE3 SHL DUP2 MSTORE PUSH1 0x4 ADD PUSH1 0x40 MLOAD DUP1 SWAP2 SUB SWAP1 REVERT JUMPDEST PUSH1 0x1 DUP2 ADD SLOAD TIMESTAMP PUSH1 0x1 PUSH1 0xA0 SHL SWAP1 SWAP2 DIV PUSH1 0x1 PUSH1 0x1 PUSH1 0x40 SHL SUB AND GT PUSH2 0x55B JUMPI PUSH1 0x40 MLOAD PUSH4 0x72E54D4D PUSH1 0xE0 SHL DUP2 MSTORE PUSH1 0x4 ADD PUSH1 0x40 MLOAD DUP1 SWAP2 SUB SWAP1 REVERT JUMPDEST PUSH1 0x0 DUP2 PUSH1 0x3 ADD SLOAD SWAP1 POP PUSH1 0x0 PUSH32 0x0 PUSH1 0x1 PUSH1 0x1 PUSH1 0xA0 SHL SUB AND PUSH4 0x61D027B3 PUSH1 0x40 MLOAD DUP2 PUSH4 0xFFFFFFFF AND PUSH1 0xE0 SHL DUP2 MSTORE PUSH1 0x4 ADD PUSH1 0x20 PUSH1 0x40 MLOAD DUP1 DUP4 SUB DUP2 DUP7 GAS STATICCALL ISZERO DUP1 ISZERO PUSH2 0x5C4 JUMPI RETURNDATASIZE PUSH1 0x0 DUP1 RETURNDATACOPY RETURNDATASIZE PUSH1 0x0 REVERT JUMPDEST POP POP POP POP PUSH1 0x40 MLOAD RETURNDATASIZE PUSH1 0x1F NOT PUSH1 0x1F DUP3 ADD AND DUP3 ADD DUP1 PUSH1 0x40 MSTORE POP DUP2 ADD SWAP1 PUSH2 0x5E8 SWAP2 SWAP1 PUSH2 0x2199 JUMP JUMPDEST SWAP1 POP PUSH1 0x1 PUSH1 0x1 PUSH1 0xA0 SHL SUB DUP2 AND ISZERO PUSH2 0x6B9 JUMPI PUSH1 0x0 PUSH1 0x64 PUSH2 0x608 DUP5 PUSH1 0x1 PUSH2 0x21CC JUMP JUMPDEST PUSH2 0x612 SWAP2 SWAP1 PUSH2 0x21F9 JUMP JUMPDEST SWAP1 POP DUP1 ISZERO PUSH2 0x6B7 JUMPI PUSH2 0x624 DUP2 DUP5 PUSH2 0x220D JUMP JUMPDEST PUSH1 0x1 DUP6 ADD SLOAD PUSH1 0x40 MLOAD PUSH4 0xBB7706D7 PUSH1 0xE0 SHL DUP2 MSTORE PUSH1 0x1 PUSH1 0x1 PUSH1 0xA0 SHL SUB SWAP2 DUP3 AND PUSH1 0x4 DUP3 ADD MSTORE DUP5 DUP3 AND PUSH1 0x24 DUP3 ADD MSTORE PUSH1 0x44 DUP2 ADD DUP5 SWAP1 MSTORE SWAP2 SWAP5 POP PUSH32 0x0 AND SWAP1 PUSH4 0xBB7706D7 SWAP1 PUSH1 0x64 ADD PUSH1 0x0 PUSH1 0x40 MLOAD DUP1 DUP4 SUB DUP2 PUSH1 0x0 DUP8 DUP1 EXTCODESIZE ISZERO DUP1 ISZERO PUSH2 0x69E JUMPI PUSH1 0x0 DUP1 REVERT JUMPDEST POP GAS CALL ISZERO DUP1 ISZERO PUSH2 0x6B2 JUMPI RETURNDATASIZE PUSH1 0x0 DUP1 RETURNDATACOPY RETURNDATASIZE PUSH1 0x0 REVERT JUMPDEST POP POP POP POP JUMPDEST POP JUMPDEST PUSH1 0x3 DUP4 ADD DUP3 SWAP1 SSTORE PUSH1 0x1 DUP4 ADD SLOAD PUSH1 0x40 MLOAD PUSH4 0xF99DD23F PUSH1 0xE0 SHL DUP2 MSTORE PUSH1 0x4 DUP2 ADD DUP7 SWAP1 MSTORE PUSH1 0x1 PUSH1 0x1 PUSH1 0xA0 SHL SUB DUP1 DUP4 AND PUSH1 0x24 DUP4 ADD MSTORE PUSH1 0x44 DUP3 ADD DUP6 SWAP1 MSTORE PUSH1 0x1 PUSH1 0xA0 SHL SWAP1 SWAP3 DIV PUSH1 0x1 PUSH1 0x1 PUSH1 0x40 SHL SUB AND PUSH1 0x64 DUP3 ADD MSTORE PUSH32 0x0 SWAP1 SWAP2 AND SWAP1 PUSH4 0xF99DD23F SWAP1 PUSH1 0x84 ADD PUSH1 0x0 PUSH1 0x40 MLOAD DUP1 DUP4 SUB DUP2 PUSH1 0x0 DUP8 DUP1 EXTCODESIZE ISZERO DUP1 ISZERO PUSH2 0x74E JUMPI PUSH1 0x0 DUP1 REVERT JUMPDEST POP GAS CALL ISZERO DUP1 ISZERO PUSH2 0x762 JUMPI RETURNDATASIZE PUSH1 0x0 DUP1 RETURNDATACOPY RETURNDATASIZE PUSH1 0x0 REVERT JUMPDEST POP POP POP POP PUSH1 0x2 DUP4 ADD DUP1 SLOAD PUSH5 0xFF00000000 NOT AND PUSH1 0x1 PUSH1 0x20 SHL OR SWAP1 SSTORE PUSH1 0x1 DUP4 ADD SLOAD PUSH1 0x40 DUP1 MLOAD DUP5 DUP2 MSTORE PUSH1 0x1 PUSH1 0xA0 SHL DUP4 DIV PUSH1 0x1 PUSH1 0x1 PUSH1 0x40 SHL SUB AND PUSH1 0x20 DUP3 ADD MSTORE DUP2 MLOAD PUSH1 0x1 PUSH1 0x1 PUSH1 0xA0 SHL SUB SWAP1 SWAP4 AND SWAP3 DUP8 SWAP3 PUSH32 0xEEE363108FD9BF7AE127CD06F3248BA46A0C00310FF78069422B76163D80DADE SWAP3 DUP3 SWAP1 SUB ADD SWAP1 LOG3 POP POP POP POP JUMP JUMPDEST CALLER PUSH1 0x0 SWAP1 DUP2 MSTORE PUSH1 0x1 PUSH1 0x20 MSTORE PUSH1 0x40 SWAP1 KECCAK256 SLOAD PUSH1 0xFF AND ISZERO PUSH2 0x80C JUMPI PUSH1 0x40 MLOAD PUSH4 0xEA075BF PUSH1 0xE2 SHL DUP2 MSTORE PUSH1 0x4 ADD PUSH1 0x40 MLOAD DUP1 SWAP2 SUB SWAP1 REVERT JUMPDEST CALLER PUSH1 0x0 DUP2 DUP2 MSTORE PUSH1 0x1 PUSH1 0x20 DUP2 SWAP1 MSTORE PUSH1 0x40 DUP1 DUP4 KECCAK256 DUP1 SLOAD PUSH1 0xFF NOT AND SWAP1 SWAP3 OR SWAP1 SWAP2 SSTORE MLOAD PUSH32 0x2D3734A8E47AC8316E500AC231C90A6E1848CA2285F40D07EAA52005E4B3A0E9 SWAP2 SWAP1 LOG2 JUMP JUMPDEST PUSH1 0x0 DUP2 DUP2 MSTORE PUSH1 0x4 PUSH1 0x20 MSTORE PUSH1 0x40 DUP2 KECCAK256 PUSH1 0x1 DUP2 ADD SLOAD PUSH1 0x1 PUSH1 0xA0 SHL SWAP1 DIV PUSH1 0x1 PUSH1 0x1 PUSH1 0x40 SHL SUB AND DUP3 SUB PUSH2 0x893 JUMPI PUSH1 0x40 MLOAD PUSH4 0x2B0FDD75 PUSH1 0xE0 SHL DUP2 MSTORE PUSH1 0x4 ADD PUSH1 0x40 MLOAD DUP1 SWAP2 SUB SWAP1 REVERT JUMPDEST PUSH1 0x1 ADD SLOAD PUSH1 0x1 PUSH1 0x1 PUSH1 0xA0 SHL SUB AND SWAP3 SWAP2 POP POP JUMP JUMPDEST PUSH1 0x60 PUSH1 0x3 DUP1 SLOAD DUP1 PUSH1 0x20 MUL PUSH1 0x20 ADD PUSH1 0x40 MLOAD SWAP1 DUP2 ADD PUSH1 0x40 MSTORE DUP1 SWAP3 SWAP2 SWAP1 DUP2 DUP2 MSTORE PUSH1 0x20 ADD DUP3 DUP1 SLOAD DUP1 ISZERO PUSH2 0x8F4 JUMPI PUSH1 0x20 MUL DUP3 ADD SWAP2 SWAP1 PUSH1 0x0 MSTORE PUSH1 0x20 PUSH1 0x0 KECCAK256 SWAP1 JUMPDEST DUP2 SLOAD DUP2 MSTORE PUSH1 0x20 ADD SWAP1 PUSH1 0x1 ADD SWAP1 DUP1 DUP4 GT PUSH2 0x8E0 JUMPI JUMPDEST POP POP POP POP POP SWAP1 POP SWAP1 JUMP JUMPDEST PUSH1 0x0 SLOAD PUSH1 0x1 PUSH1 0x1 PUSH1 0xA0 SHL SUB AND CALLER EQ PUSH2 0x929 JUMPI PUSH1 0x40 MLOAD PUSH4 0x47556579 PUSH1 0xE0 SHL DUP2 MSTORE PUSH1 0x4 ADD PUSH1 0x40 MLOAD DUP1 SWAP2 SUB SWAP1 REVERT JUMPDEST PUSH1 0x1 PUSH1 0x1 PUSH1 0xA0 SHL SUB DUP3 AND PUSH2 0x950 JUMPI PUSH1 0x40 MLOAD PUSH4 0xE6C4247B PUSH1 0xE0 SHL DUP2 MSTORE PUSH1 0x4 ADD PUSH1 0x40 MLOAD DUP1 SWAP2 SUB SWAP1 REVERT JUMPDEST DUP1 PUSH1 0x0 SUB PUSH2 0x971 JUMPI PUSH1 0x40 MLOAD PUSH4 0x1F2A2005 PUSH1 0xE0 SHL DUP2 MSTORE PUSH1 0x4 ADD PUSH1 0x40 MLOAD DUP1 SWAP2 SUB SWAP1 REVERT JUMPDEST PUSH2 0x9A6 PUSH1 0x1 PUSH1 0x1 PUSH1 0xA0 SHL SUB DUP4 AND CALLER PUSH32 0x0 DUP5 PUSH2 0x1AA8 JUMP JUMPDEST PUSH1 0x40 MLOAD DUP2 DUP2 MSTORE PUSH1 0x1 PUSH1 0x1 PUSH1 0xA0 SHL SUB DUP4 AND SWAP1 CALLER SWAP1 PUSH32 0xA34888965A2504126E7429FBC1063F30608255B265001B98BC88E8BD3108588A SWAP1 PUSH1 0x20 ADD JUMPDEST PUSH1 0x40 MLOAD DUP1 SWAP2 SUB SWAP1 LOG3 POP POP JUMP JUMPDEST PUSH1 0x0 DUP1 SLOAD PUSH1 0x1 PUSH1 0x1 PUSH1 0xA0 SHL SUB AND CALLER EQ PUSH2 0xA17 JUMPI PUSH1 0x40 MLOAD PUSH4 0x47556579 PUSH1 0xE0 SHL DUP2 MSTORE PUSH1 0x4 ADD PUSH1 0x40 MLOAD DUP1 SWAP2 SUB SWAP1 REVERT JUMPDEST DUP5 PUSH4 0xFFFFFFFF AND PUSH1 0x0 SUB PUSH2 0xA3E JUMPI PUSH1 0x40 MLOAD PUSH4 0x3728FEB3 PUSH1 0xE0 SHL DUP2 MSTORE PUSH1 0x4 ADD PUSH1 0x40 MLOAD DUP1 SWAP2 SUB SWAP1 REVERT JUMPDEST TIMESTAMP DUP7 PUSH1 0x1 PUSH1 0x1 PUSH1 0x40 SHL SUB AND GT PUSH2 0xA67 JUMPI PUSH1 0x40 MLOAD PUSH4 0x72E54D4D PUSH1 0xE0 SHL DUP2 MSTORE PUSH1 0x4 ADD PUSH1 0x40 MLOAD DUP1 SWAP2 SUB SWAP1 REVERT JUMPDEST DUP3 PUSH1 0x0 SUB PUSH2 0xA88 JUMPI PUSH1 0x40 MLOAD PUSH4 0x1F2A2005 PUSH1 0xE0 SHL DUP2 MSTORE PUSH1 0x4 ADD PUSH1 0x40 MLOAD DUP1 SWAP2 SUB SWAP1 REVERT JUMPDEST PUSH1 0x2 DUP1 SLOAD SWAP1 PUSH1 0x0 PUSH2 0xA98 DUP4 PUSH2 0x2220 JUMP JUMPDEST SWAP1 SWAP2 SSTORE POP PUSH1 0x0 DUP2 DUP2 MSTORE PUSH1 0x4 PUSH1 0x20 MSTORE PUSH1 0x40 SWAP1 KECCAK256 SWAP1 SWAP2 POP DUP1 PUSH2 0xAB9 DUP11 DUP13 DUP4 PUSH2 0x22D5 JUMP JUMPDEST POP PUSH1 0x1 DUP2 DUP2 ADD DUP1 SLOAD PUSH4 0xFFFFFFFF DUP10 DUP2 AND PUSH1 0x1 PUSH1 0xE0 SHL MUL PUSH1 0x1 PUSH1 0x1 PUSH1 0xE0 SHL SUB PUSH1 0x1 PUSH1 0x1 PUSH1 0x40 SHL SUB DUP14 AND PUSH1 0x1 PUSH1 0xA0 SHL MUL PUSH1 0x1 PUSH1 0x1 PUSH1 0xE0 SHL SUB NOT SWAP1 SWAP5 AND PUSH1 0x1 PUSH1 0x1 PUSH1 0xA0 SHL SUB DUP16 AND SWAP1 DUP2 OR SWAP5 SWAP1 SWAP5 OR AND OR SWAP1 SWAP3 SSTORE PUSH1 0x2 DUP5 ADD DUP1 SLOAD SWAP3 DUP10 AND PUSH5 0xFFFFFFFFFF NOT SWAP1 SWAP4 AND SWAP3 SWAP1 SWAP3 OR SWAP1 SWAP2 SSTORE PUSH1 0x3 DUP1 DUP5 ADD DUP8 SWAP1 SSTORE PUSH1 0x4 DUP5 ADD DUP1 SLOAD PUSH1 0xFF NOT AND DUP8 ISZERO ISZERO OR SWAP1 SSTORE DUP1 SLOAD SWAP3 DUP4 ADD DUP2 SSTORE PUSH1 0x0 MSTORE PUSH32 0xC2575A0E9E593C00F959F8C92F12DB2869C3395A3B0502D05E2516446F71F85B SWAP1 SWAP2 ADD DUP4 SWAP1 SSTORE PUSH1 0x40 MLOAD DUP4 SWAP1 PUSH32 0x818611256F2FC2C80D80BFD9F7DBA8FB4A8D6FB58A540345847C5F2FECA70438 SWAP1 PUSH2 0xBAA SWAP1 DUP15 SWAP1 DUP15 SWAP1 DUP14 SWAP1 DUP14 SWAP1 DUP14 SWAP1 DUP14 SWAP1 DUP14 SWAP1 PUSH2 0x2394 JUMP JUMPDEST PUSH1 0x40 MLOAD DUP1 SWAP2 SUB SWAP1 LOG3 PUSH1 0x40 MLOAD PUSH4 0xE65C07D PUSH1 0xE4 SHL DUP2 MSTORE PUSH1 0x4 DUP2 ADD DUP4 SWAP1 MSTORE PUSH32 0x0 PUSH1 0x1 PUSH1 0x1 PUSH1 0xA0 SHL SUB AND SWAP1 PUSH4 0xE65C07D0 SWAP1 PUSH1 0x24 ADD PUSH1 0x0 PUSH1 0x40 MLOAD DUP1 DUP4 SUB DUP2 PUSH1 0x0 DUP8 DUP1 EXTCODESIZE ISZERO DUP1 ISZERO PUSH2 0xC14 JUMPI PUSH1 0x0 DUP1 REVERT JUMPDEST POP GAS CALL ISZERO DUP1 ISZERO PUSH2 0xC28 JUMPI RETURNDATASIZE PUSH1 0x0 DUP1 RETURNDATACOPY RETURNDATASIZE PUSH1 0x0 REVERT JUMPDEST POP POP POP POP POP SWAP9 SWAP8 POP POP POP POP POP POP POP POP JUMP JUMPDEST PUSH1 0x0 DUP2 DUP2 MSTORE PUSH1 0x4 PUSH1 0x20 MSTORE PUSH1 0x40 DUP2 KECCAK256 PUSH1 0x1 DUP2 ADD SLOAD DUP3 SWAP2 DUP3 SWAP2 DUP3 SWAP2 DUP3 SWAP2 DUP3 SWAP2 DUP3 SWAP2 DUP3 SWAP2 SWAP1 PUSH1 0x1 PUSH1 0xA0 SHL SWAP1 DIV PUSH1 0x1 PUSH1 0x1 PUSH1 0x40 SHL SUB AND DUP3 SUB PUSH2 0xC8A JUMPI PUSH1 0x40 MLOAD PUSH4 0x2B0FDD75 PUSH1 0xE0 SHL DUP2 MSTORE PUSH1 0x4 ADD PUSH1 0x40 MLOAD DUP1 SWAP2 SUB SWAP1 REVERT JUMPDEST PUSH1 0x1 DUP2 ADD SLOAD PUSH1 0x2 DUP3 ADD SLOAD PUSH1 0x1 PUSH1 0x1 PUSH1 0xA0 SHL SUB DUP3 AND SWAP2 PUSH1 0x1 PUSH1 0x1 PUSH1 0x40 SHL SUB PUSH1 0x1 PUSH1 0xA0 SHL DUP3 DIV AND SWAP2 PUSH4 0xFFFFFFFF PUSH1 0x1 PUSH1 0xE0 SHL SWAP1 SWAP3 DIV DUP3 AND SWAP2 DUP2 AND SWAP1 PUSH1 0xFF PUSH1 0x1 PUSH1 0x20 SHL SWAP1 SWAP2 DIV AND PUSH1 0x4 DUP2 GT ISZERO PUSH2 0xCDF JUMPI PUSH2 0xCDF PUSH2 0x2183 JUMP JUMPDEST PUSH1 0x3 DUP7 ADD SLOAD PUSH1 0x4 DUP8 ADD SLOAD PUSH1 0x5 SWAP1 SWAP8 ADD SLOAD SWAP6 SWAP15 POP SWAP4 SWAP13 POP SWAP2 SWAP11 POP SWAP9 POP SWAP7 POP SWAP5 POP PUSH1 0xFF SWAP1 SWAP2 AND SWAP3 POP SWAP1 POP SWAP2 SWAP4 SWAP6 SWAP8 POP SWAP2 SWAP4 SWAP6 SWAP8 JUMP JUMPDEST PUSH1 0x0 SLOAD PUSH1 0x1 PUSH1 0x1 PUSH1 0xA0 SHL SUB AND CALLER EQ PUSH2 0xD3D JUMPI PUSH1 0x40 MLOAD PUSH4 0x47556579 PUSH1 0xE0 SHL DUP2 MSTORE PUSH1 0x4 ADD PUSH1 0x40 MLOAD DUP1 SWAP2 SUB SWAP1 REVERT JUMPDEST PUSH1 0x0 DUP2 DUP2 MSTORE PUSH1 0x4 PUSH1 0x20 MSTORE PUSH1 0x40 SWAP1 KECCAK256 PUSH1 0x1 PUSH1 0x2 DUP3 ADD SLOAD PUSH1 0x1 PUSH1 0x20 SHL SWAP1 DIV PUSH1 0xFF AND PUSH1 0x4 DUP2 GT ISZERO PUSH2 0xD6D JUMPI PUSH2 0xD6D PUSH2 0x2183 JUMP JUMPDEST EQ PUSH2 0xD8B JUMPI PUSH1 0x40 MLOAD PUSH4 0x4065AAF1 PUSH1 0xE1 SHL DUP2 MSTORE PUSH1 0x4 ADD PUSH1 0x40 MLOAD DUP1 SWAP2 SUB SWAP1 REVERT JUMPDEST PUSH1 0x1 DUP2 ADD SLOAD PUSH1 0x1 PUSH1 0xA0 SHL SWAP1 DIV PUSH1 0x1 PUSH1 0x1 PUSH1 0x40 SHL SUB AND TIMESTAMP LT ISZERO PUSH2 0xDC0 JUMPI PUSH1 0x40 MLOAD PUSH4 0x1A6031A3 PUSH1 0xE3 SHL DUP2 MSTORE PUSH1 0x4 ADD PUSH1 0x40 MLOAD DUP1 SWAP2 SUB SWAP1 REVERT JUMPDEST PUSH1 0x5 DUP2 ADD SLOAD ISZERO PUSH2 0xDE3 JUMPI PUSH1 0x40 MLOAD PUSH4 0xEA1E54B7 PUSH1 0xE0 SHL DUP2 MSTORE PUSH1 0x4 ADD PUSH1 0x40 MLOAD DUP1 SWAP2 SUB SWAP1 REVERT JUMPDEST PUSH1 0x2 DUP2 ADD DUP1 SLOAD PUSH5 0x400000000 PUSH5 0xFF00000000 NOT SWAP1 SWAP2 AND OR SWAP1 SSTORE PUSH1 0x1 DUP2 ADD SLOAD PUSH1 0x40 MLOAD PUSH4 0x7913525 PUSH1 0xE4 SHL DUP2 MSTORE PUSH1 0x4 DUP2 ADD DUP5 SWAP1 MSTORE PUSH1 0x1 PUSH1 0x1 PUSH1 0xA0 SHL SUB SWAP2 DUP3 AND PUSH1 0x24 DUP3 ADD MSTORE PUSH32 0x0 SWAP1 SWAP2 AND SWAP1 PUSH4 0x79135250 SWAP1 PUSH1 0x44 ADD PUSH1 0x0 PUSH1 0x40 MLOAD DUP1 DUP4 SUB DUP2 PUSH1 0x0 DUP8 DUP1 EXTCODESIZE ISZERO DUP1 ISZERO PUSH2 0xE6D JUMPI PUSH1 0x0 DUP1 REVERT JUMPDEST POP GAS CALL ISZERO DUP1 ISZERO PUSH2 0xE81 JUMPI RETURNDATASIZE PUSH1 0x0 DUP1 RETURNDATACOPY RETURNDATASIZE PUSH1 0x0 REVERT JUMPDEST POP POP PUSH1 0x40 MLOAD DUP5 SWAP3 POP PUSH32 0x7FA78BAB5D5570F162C69234A3F4D1B9294FD5BCA72219CB16C1FE38839CCB8A SWAP2 POP PUSH1 0x0 SWAP1 LOG2 POP POP JUMP JUMPDEST PUSH1 0x0 DUP2 DUP2 MSTORE PUSH1 0x4 PUSH1 0x20 MSTORE PUSH1 0x40 DUP2 KECCAK256 PUSH1 0x1 DUP2 ADD SLOAD PUSH1 0x60 SWAP3 DUP4 SWAP3 SWAP2 PUSH1 0x1 PUSH1 0xA0 SHL SWAP1 DIV PUSH1 0x1 PUSH1 0x1 PUSH1 0x40 SHL SUB AND SWAP1 SUB PUSH2 0xEFC JUMPI PUSH1 0x40 MLOAD PUSH4 0x2B0FDD75 PUSH1 0xE0 SHL DUP2 MSTORE PUSH1 0x4 ADD PUSH1 0x40 MLOAD DUP1 SWAP2 SUB SWAP1 REVERT JUMPDEST PUSH1 0x7 DUP2 ADD SLOAD DUP1 PUSH1 0x1 PUSH1 0x1 PUSH1 0x40 SHL SUB DUP2 GT ISZERO PUSH2 0xF19 JUMPI PUSH2 0xF19 PUSH2 0x2239 JUMP JUMPDEST PUSH1 0x40 MLOAD SWAP1 DUP1 DUP3 MSTORE DUP1 PUSH1 0x20 MUL PUSH1 0x20 ADD DUP3 ADD PUSH1 0x40 MSTORE DUP1 ISZERO PUSH2 0xF42 JUMPI DUP2 PUSH1 0x20 ADD PUSH1 0x20 DUP3 MUL DUP1 CALLDATASIZE DUP4 CALLDATACOPY ADD SWAP1 POP JUMPDEST POP SWAP4 POP DUP1 PUSH1 0x1 PUSH1 0x1 PUSH1 0x40 SHL SUB DUP2 GT ISZERO PUSH2 0xF5D JUMPI PUSH2 0xF5D PUSH2 0x2239 JUMP JUMPDEST PUSH1 0x40 MLOAD SWAP1 DUP1 DUP3 MSTORE DUP1 PUSH1 0x20 MUL PUSH1 0x20 ADD DUP3 ADD PUSH1 0x40 MSTORE DUP1 ISZERO PUSH2 0xF86 JUMPI DUP2 PUSH1 0x20 ADD PUSH1 0x20 DUP3 MUL DUP1 CALLDATASIZE DUP4 CALLDATACOPY ADD SWAP1 POP JUMPDEST POP SWAP3 POP PUSH1 0x0 JUMPDEST DUP2 DUP2 LT ISZERO PUSH2 0x103E JUMPI DUP3 PUSH1 0x7 ADD DUP2 DUP2 SLOAD DUP2 LT PUSH2 0xFA9 JUMPI PUSH2 0xFA9 PUSH2 0x23F8 JUMP JUMPDEST SWAP1 PUSH1 0x0 MSTORE PUSH1 0x20 PUSH1 0x0 KECCAK256 ADD PUSH1 0x0 SWAP1 SLOAD SWAP1 PUSH2 0x100 EXP SWAP1 DIV PUSH1 0x1 PUSH1 0x1 PUSH1 0xA0 SHL SUB AND DUP6 DUP3 DUP2 MLOAD DUP2 LT PUSH2 0xFD9 JUMPI PUSH2 0xFD9 PUSH2 0x23F8 JUMP JUMPDEST PUSH1 0x20 MUL PUSH1 0x20 ADD ADD SWAP1 PUSH1 0x1 PUSH1 0x1 PUSH1 0xA0 SHL SUB AND SWAP1 DUP2 PUSH1 0x1 PUSH1 0x1 PUSH1 0xA0 SHL SUB AND DUP2 MSTORE POP POP DUP3 PUSH1 0x8 ADD DUP2 DUP2 SLOAD DUP2 LT PUSH2 0x100E JUMPI PUSH2 0x100E PUSH2 0x23F8 JUMP JUMPDEST SWAP1 PUSH1 0x0 MSTORE PUSH1 0x20 PUSH1 0x0 KECCAK256 ADD SLOAD DUP5 DUP3 DUP2 MLOAD DUP2 LT PUSH2 0x102B JUMPI PUSH2 0x102B PUSH2 0x23F8 JUMP JUMPDEST PUSH1 0x20 SWAP1 DUP2 MUL SWAP2 SWAP1 SWAP2 ADD ADD MSTORE PUSH1 0x1 ADD PUSH2 0xF8C JUMP JUMPDEST POP POP POP SWAP2 POP SWAP2 JUMP JUMPDEST PUSH1 0x0 SLOAD PUSH1 0x1 PUSH1 0x1 PUSH1 0xA0 SHL SUB AND CALLER EQ PUSH2 0x1071 JUMPI PUSH1 0x40 MLOAD PUSH4 0x47556579 PUSH1 0xE0 SHL DUP2 MSTORE PUSH1 0x4 ADD PUSH1 0x40 MLOAD DUP1 SWAP2 SUB SWAP1 REVERT JUMPDEST PUSH1 0x1 PUSH1 0x1 PUSH1 0xA0 SHL SUB DUP2 AND PUSH2 0x1098 JUMPI PUSH1 0x40 MLOAD PUSH4 0xE6C4247B PUSH1 0xE0 SHL DUP2 MSTORE PUSH1 0x4 ADD PUSH1 0x40 MLOAD DUP1 SWAP2 SUB SWAP1 REVERT JUMPDEST PUSH1 0x0 DUP1 SLOAD PUSH1 0x40 MLOAD PUSH1 0x1 PUSH1 0x1 PUSH1 0xA0 SHL SUB DUP1 DUP6 AND SWAP4 SWAP3 AND SWAP2 PUSH32 0x7E644D79422F17C01E4894B5F4F588D331EBFA28653D42AE832DC59E38C9798F SWAP2 LOG3 PUSH1 0x0 DUP1 SLOAD PUSH1 0x1 PUSH1 0x1 PUSH1 0xA0 SHL SUB NOT AND PUSH1 0x1 PUSH1 0x1 PUSH1 0xA0 SHL SUB SWAP3 SWAP1 SWAP3 AND SWAP2 SWAP1 SWAP2 OR SWAP1 SSTORE JUMP JUMPDEST PUSH1 0x0 DUP4 DUP2 MSTORE PUSH1 0x4 PUSH1 0x20 MSTORE PUSH1 0x40 SWAP1 KECCAK256 PUSH1 0x1 PUSH1 0x2 DUP3 ADD SLOAD PUSH1 0x1 PUSH1 0x20 SHL SWAP1 DIV PUSH1 0xFF AND PUSH1 0x4 DUP2 GT ISZERO PUSH2 0x1123 JUMPI PUSH2 0x1123 PUSH2 0x2183 JUMP JUMPDEST EQ PUSH2 0x1141 JUMPI PUSH1 0x40 MLOAD PUSH4 0x4065AAF1 PUSH1 0xE1 SHL DUP2 MSTORE PUSH1 0x4 ADD PUSH1 0x40 MLOAD DUP1 SWAP2 SUB SWAP1 REVERT JUMPDEST PUSH1 0x1 DUP2 ADD SLOAD PUSH1 0x1 PUSH1 0xA0 SHL SWAP1 DIV PUSH1 0x1 PUSH1 0x1 PUSH1 0x40 SHL SUB AND TIMESTAMP LT PUSH2 0x1175 JUMPI PUSH1 0x40 MLOAD PUSH4 0x502FD88D PUSH1 0xE0 SHL DUP2 MSTORE PUSH1 0x4 ADD PUSH1 0x40 MLOAD DUP1 SWAP2 SUB SWAP1 REVERT JUMPDEST PUSH1 0x0 JUMPDEST DUP3 DUP2 LT ISZERO PUSH2 0x12F1 JUMPI PUSH1 0x2 DUP3 ADD SLOAD PUSH4 0xFFFFFFFF AND ISZERO DUP1 ISZERO SWAP1 PUSH2 0x11A9 JUMPI POP PUSH1 0x2 DUP3 ADD SLOAD PUSH1 0x5 DUP4 ADD SLOAD PUSH4 0xFFFFFFFF SWAP1 SWAP2 AND GT ISZERO JUMPDEST ISZERO PUSH2 0x11C7 JUMPI PUSH1 0x40 MLOAD PUSH4 0x502FD88D PUSH1 0xE0 SHL DUP2 MSTORE PUSH1 0x4 ADD PUSH1 0x40 MLOAD DUP1 SWAP2 SUB SWAP1 REVERT JUMPDEST PUSH1 0x0 DUP5 DUP5 DUP4 DUP2 DUP2 LT PUSH2 0x11DB JUMPI PUSH2 0x11DB PUSH2 0x23F8 JUMP JUMPDEST SWAP1 POP PUSH1 0x20 MUL ADD PUSH1 0x20 DUP2 ADD SWAP1 PUSH2 0x11F0 SWAP2 SWAP1 PUSH2 0x20E7 JUMP JUMPDEST PUSH1 0x1 PUSH1 0x1 PUSH1 0xA0 SHL SUB DUP2 AND PUSH1 0x0 SWAP1 DUP2 MSTORE PUSH1 0x6 DUP6 ADD PUSH1 0x20 MSTORE PUSH1 0x40 SWAP1 KECCAK256 SLOAD SWAP1 SWAP2 POP PUSH1 0xFF AND ISZERO PUSH2 0x122E JUMPI PUSH1 0x40 MLOAD PUSH3 0x1D9341 PUSH1 0xE1 SHL DUP2 MSTORE PUSH1 0x4 ADD PUSH1 0x40 MLOAD DUP1 SWAP2 SUB SWAP1 REVERT JUMPDEST PUSH1 0x4 DUP4 ADD SLOAD PUSH1 0xFF AND ISZERO PUSH2 0x1274 JUMPI PUSH1 0x1 PUSH1 0x1 PUSH1 0xA0 SHL SUB DUP2 AND PUSH1 0x0 SWAP1 DUP2 MSTORE PUSH1 0x1 PUSH1 0x20 MSTORE PUSH1 0x40 SWAP1 KECCAK256 SLOAD PUSH1 0xFF AND PUSH2 0x1274 JUMPI PUSH1 0x40 MLOAD PUSH4 0x841799D5 PUSH1 0xE0 SHL DUP2 MSTORE PUSH1 0x4 ADD PUSH1 0x40 MLOAD DUP1 SWAP2 SUB SWAP1 REVERT JUMPDEST PUSH1 0x1 PUSH1 0x1 PUSH1 0xA0 SHL SUB DUP2 AND PUSH1 0x0 DUP2 DUP2 MSTORE PUSH1 0x6 DUP6 ADD PUSH1 0x20 SWAP1 DUP2 MSTORE PUSH1 0x40 DUP1 DUP4 KECCAK256 DUP1 SLOAD PUSH1 0xFF NOT AND PUSH1 0x1 SWAP1 DUP2 OR SWAP1 SWAP2 SSTORE PUSH1 0x5 DUP9 ADD DUP1 SLOAD SWAP2 DUP3 ADD DUP2 SSTORE DUP5 MSTORE SWAP2 DUP4 KECCAK256 SWAP1 SWAP2 ADD DUP1 SLOAD PUSH1 0x1 PUSH1 0x1 PUSH1 0xA0 SHL SUB NOT AND DUP5 OR SWAP1 SSTORE MLOAD DUP9 SWAP2 PUSH32 0x8DAFE7D2071EBC41334E0A69B339B8853D8288641394D545A7CADB785A544B84 SWAP2 LOG3 POP PUSH1 0x1 ADD PUSH2 0x1178 JUMP JUMPDEST POP POP POP POP POP JUMP JUMPDEST PUSH1 0x0 SLOAD PUSH1 0x1 PUSH1 0x1 PUSH1 0xA0 SHL SUB AND CALLER EQ PUSH2 0x1323 JUMPI PUSH1 0x40 MLOAD PUSH4 0x47556579 PUSH1 0xE0 SHL DUP2 MSTORE PUSH1 0x4 ADD PUSH1 0x40 MLOAD DUP1 SWAP2 SUB SWAP1 REVERT JUMPDEST PUSH1 0x0 DUP2 DUP2 MSTORE PUSH1 0x4 PUSH1 0x20 MSTORE PUSH1 0x40 SWAP1 KECCAK256 PUSH1 0x1 PUSH1 0x2 DUP3 ADD SLOAD PUSH1 0x1 PUSH1 0x20 SHL SWAP1 DIV PUSH1 0xFF AND PUSH1 0x4 DUP2 GT ISZERO PUSH2 0x1353 JUMPI PUSH2 0x1353 PUSH2 0x2183 JUMP JUMPDEST EQ PUSH2 0x1371 JUMPI PUSH1 0x40 MLOAD PUSH4 0x4065AAF1 PUSH1 0xE1 SHL DUP2 MSTORE PUSH1 0x4 ADD PUSH1 0x40 MLOAD DUP1 SWAP2 SUB SWAP1 REVERT JUMPDEST PUSH1 0x1 DUP2 ADD SLOAD PUSH1 0x2 DUP3 ADD SLOAD PUSH1 0x1 PUSH1 0xA0 SHL SWAP1 SWAP2 DIV PUSH1 0x1 PUSH1 0x1 PUSH1 0x40 SHL SUB AND TIMESTAMP LT ISZERO SWAP1 PUSH1 0x0 SWAP1 PUSH4 0xFFFFFFFF AND ISZERO DUP1 ISZERO SWAP1 PUSH2 0x13B7 JUMPI POP PUSH1 0x2 DUP4 ADD SLOAD PUSH1 0x5 DUP5 ADD SLOAD PUSH4 0xFFFFFFFF SWAP1 SWAP2 AND GT ISZERO JUMPDEST SWAP1 POP DUP2 ISZERO DUP1 ISZERO PUSH2 0x13C5 JUMPI POP DUP1 ISZERO JUMPDEST ISZERO PUSH2 0x13E3 JUMPI PUSH1 0x40 MLOAD PUSH4 0x1A6031A3 PUSH1 0xE3 SHL DUP2 MSTORE PUSH1 0x4 ADD PUSH1 0x40 MLOAD DUP1 SWAP2 SUB SWAP1 REVERT JUMPDEST PUSH1 0x5 DUP4 ADD SLOAD PUSH1 0x1 DUP5 ADD SLOAD PUSH1 0x1 PUSH1 0xE0 SHL SWAP1 DIV PUSH4 0xFFFFFFFF AND DUP1 DUP3 LT ISZERO PUSH2 0x1405 JUMPI POP DUP1 JUMPDEST PUSH1 0x0 PUSH2 0x1412 PUSH1 0x1 NUMBER PUSH2 0x220D JUMP JUMPDEST PUSH1 0x1 DUP8 ADD SLOAD PUSH1 0x40 DUP1 MLOAD SWAP3 BLOCKHASH PUSH1 0x20 DUP5 ADD MSTORE ADDRESS PUSH1 0x60 SHL PUSH12 0xFFFFFFFFFFFFFFFFFFFFFFFF NOT AND SWAP1 DUP4 ADD MSTORE PUSH1 0x54 DUP3 ADD DUP10 SWAP1 MSTORE PUSH1 0x74 DUP3 ADD DUP6 SWAP1 MSTORE PUSH1 0x1 PUSH1 0xA0 SHL SWAP1 DIV PUSH1 0xC0 SHL PUSH1 0x1 PUSH1 0x1 PUSH1 0xC0 SHL SUB NOT AND PUSH1 0x94 DUP3 ADD MSTORE PUSH1 0x9C ADD PUSH1 0x40 MLOAD PUSH1 0x20 DUP2 DUP4 SUB SUB DUP2 MSTORE SWAP1 PUSH1 0x40 MSTORE DUP1 MLOAD SWAP1 PUSH1 0x20 ADD KECCAK256 SWAP1 POP PUSH1 0x0 DUP4 PUSH1 0x1 PUSH1 0x1 PUSH1 0x40 SHL SUB DUP2 GT ISZERO PUSH2 0x1495 JUMPI PUSH2 0x1495 PUSH2 0x2239 JUMP JUMPDEST PUSH1 0x40 MLOAD SWAP1 DUP1 DUP3 MSTORE DUP1 PUSH1 0x20 MUL PUSH1 0x20 ADD DUP3 ADD PUSH1 0x40 MSTORE DUP1 ISZERO PUSH2 0x14BE JUMPI DUP2 PUSH1 0x20 ADD PUSH1 0x20 DUP3 MUL DUP1 CALLDATASIZE DUP4 CALLDATACOPY ADD SWAP1 POP JUMPDEST POP SWAP1 POP PUSH1 0x0 JUMPDEST DUP5 DUP2 LT ISZERO PUSH2 0x1531 JUMPI DUP8 PUSH1 0x5 ADD DUP2 DUP2 SLOAD DUP2 LT PUSH2 0x14E1 JUMPI PUSH2 0x14E1 PUSH2 0x23F8 JUMP JUMPDEST SWAP1 PUSH1 0x0 MSTORE PUSH1 0x20 PUSH1 0x0 KECCAK256 ADD PUSH1 0x0 SWAP1 SLOAD SWAP1 PUSH2 0x100 EXP SWAP1 DIV PUSH1 0x1 PUSH1 0x1 PUSH1 0xA0 SHL SUB AND DUP3 DUP3 DUP2 MLOAD DUP2 LT PUSH2 0x1511 JUMPI PUSH2 0x1511 PUSH2 0x23F8 JUMP JUMPDEST PUSH1 0x1 PUSH1 0x1 PUSH1 0xA0 SHL SUB SWAP1 SWAP3 AND PUSH1 0x20 SWAP3 DUP4 MUL SWAP2 SWAP1 SWAP2 ADD SWAP1 SWAP2 ADD MSTORE PUSH1 0x1 ADD PUSH2 0x14C4 JUMP JUMPDEST POP PUSH1 0x0 PUSH2 0x153F DUP3 DUP6 DUP6 PUSH2 0x1B08 JUMP JUMPDEST DUP1 MLOAD SWAP1 SWAP2 POP PUSH2 0x1557 SWAP1 PUSH1 0x7 DUP11 ADD SWAP1 PUSH1 0x20 DUP5 ADD SWAP1 PUSH2 0x1E06 JUMP JUMPDEST POP PUSH1 0x0 PUSH2 0x1569 DUP10 PUSH1 0x3 ADD SLOAD DUP4 MLOAD PUSH2 0x1CB1 JUMP JUMPDEST DUP1 MLOAD SWAP1 SWAP2 POP PUSH2 0x1581 SWAP1 PUSH1 0x8 DUP12 ADD SWAP1 PUSH1 0x20 DUP5 ADD SWAP1 PUSH2 0x1E6B JUMP JUMPDEST POP PUSH1 0x0 JUMPDEST DUP3 MLOAD DUP2 LT ISZERO PUSH2 0x15E2 JUMPI PUSH1 0x1 DUP11 PUSH1 0x9 ADD PUSH1 0x0 DUP6 DUP5 DUP2 MLOAD DUP2 LT PUSH2 0x15A8 JUMPI PUSH2 0x15A8 PUSH2 0x23F8 JUMP JUMPDEST PUSH1 0x20 SWAP1 DUP2 MUL SWAP2 SWAP1 SWAP2 ADD DUP2 ADD MLOAD PUSH1 0x1 PUSH1 0x1 PUSH1 0xA0 SHL SUB AND DUP3 MSTORE DUP2 ADD SWAP2 SWAP1 SWAP2 MSTORE PUSH1 0x40 ADD PUSH1 0x0 KECCAK256 DUP1 SLOAD PUSH1 0xFF NOT AND SWAP2 ISZERO ISZERO SWAP2 SWAP1 SWAP2 OR SWAP1 SSTORE PUSH1 0x1 ADD PUSH2 0x1585 JUMP JUMPDEST POP PUSH1 0x2 DUP10 DUP2 ADD DUP1 SLOAD PUSH5 0xFF00000000 NOT AND PUSH1 0x1 PUSH1 0x20 SHL DUP4 MUL OR SWAP1 SSTORE POP DUP4 DUP11 PUSH32 0x6DD00223930D8EB76CC4877F2F329A75E614A1C4A7EF684B6D279D3B4C0661B3 DUP5 DUP5 PUSH1 0x40 MLOAD PUSH2 0x1630 SWAP3 SWAP2 SWAP1 PUSH2 0x2086 JUMP JUMPDEST PUSH1 0x40 MLOAD DUP1 SWAP2 SUB SWAP1 LOG3 PUSH1 0x40 MLOAD PUSH4 0xB4BBAA01 PUSH1 0xE0 SHL DUP2 MSTORE PUSH1 0x4 DUP2 ADD DUP12 SWAP1 MSTORE PUSH32 0x0 PUSH1 0x1 PUSH1 0x1 PUSH1 0xA0 SHL SUB AND SWAP1 PUSH4 0xB4BBAA01 SWAP1 PUSH1 0x24 ADD PUSH1 0x0 PUSH1 0x40 MLOAD DUP1 DUP4 SUB DUP2 PUSH1 0x0 DUP8 DUP1 EXTCODESIZE ISZERO DUP1 ISZERO PUSH2 0x169A JUMPI PUSH1 0x0 DUP1 REVERT JUMPDEST POP GAS CALL ISZERO DUP1 ISZERO PUSH2 0x16AE JUMPI RETURNDATASIZE PUSH1 0x0 DUP1 RETURNDATACOPY RETURNDATASIZE PUSH1 0x0 REVERT JUMPDEST POP POP POP POP POP POP POP POP POP POP POP POP POP POP JUMP JUMPDEST CALLER PUSH1 0x1 PUSH1 0x1 PUSH1 0xA0 SHL SUB PUSH32 0x0 AND EQ PUSH2 0x1707 JUMPI PUSH1 0x40 MLOAD PUSH4 0x636A157 PUSH1 0xE1 SHL DUP2 MSTORE PUSH1 0x4 ADD PUSH1 0x40 MLOAD DUP1 SWAP2 SUB SWAP1 REVERT JUMPDEST PUSH1 0x0 DUP2 DUP2 MSTORE PUSH1 0x4 PUSH1 0x20 MSTORE PUSH1 0x40 SWAP1 KECCAK256 PUSH1 0x2 DUP1 DUP3 ADD SLOAD PUSH1 0x1 PUSH1 0x20 SHL SWAP1 DIV PUSH1 0xFF AND PUSH1 0x4 DUP2 GT ISZERO PUSH2 0x1736 JUMPI PUSH2 0x1736 PUSH2 0x2183 JUMP JUMPDEST EQ PUSH2 0x1754 JUMPI PUSH1 0x40 MLOAD PUSH4 0x61EE4F6B PUSH1 0xE1 SHL DUP2 MSTORE PUSH1 0x4 ADD PUSH1 0x40 MLOAD DUP1 SWAP2 SUB SWAP1 REVERT JUMPDEST PUSH1 0x2 ADD DUP1 SLOAD PUSH5 0xFF00000000 NOT AND PUSH5 0x300000000 OR SWAP1 SSTORE POP JUMP JUMPDEST PUSH1 0x0 SLOAD PUSH1 0x1 PUSH1 0x1 PUSH1 0xA0 SHL SUB AND CALLER EQ PUSH2 0x1798 JUMPI PUSH1 0x40 MLOAD PUSH4 0x47556579 PUSH1 0xE0 SHL DUP2 MSTORE PUSH1 0x4 ADD PUSH1 0x40 MLOAD DUP1 SWAP2 SUB SWAP1 REVERT JUMPDEST PUSH1 0x0 DUP2 GT PUSH2 0x17D6 JUMPI PUSH1 0x40 MLOAD PUSH3 0x461BCD PUSH1 0xE5 SHL DUP2 MSTORE PUSH1 0x20 PUSH1 0x4 DUP3 ADD MSTORE PUSH1 0xB PUSH1 0x24 DUP3 ADD MSTORE PUSH11 0x16915493D7D05353D55395 PUSH1 0xAA SHL PUSH1 0x44 DUP3 ADD MSTORE PUSH1 0x64 ADD PUSH2 0x15A JUMP JUMPDEST PUSH1 0x0 SLOAD PUSH1 0x40 MLOAD PUSH4 0x1ED9B4B9 PUSH1 0xE0 SHL DUP2 MSTORE PUSH1 0x1 PUSH1 0x1 PUSH1 0xA0 SHL SUB DUP5 DUP2 AND PUSH1 0x4 DUP4 ADD MSTORE SWAP2 DUP3 AND PUSH1 0x24 DUP3 ADD MSTORE PUSH1 0x44 DUP2 ADD DUP4 SWAP1 MSTORE PUSH32 0x0 SWAP1 SWAP2 AND SWAP1 PUSH4 0x1ED9B4B9 SWAP1 PUSH1 0x64 ADD PUSH1 0x0 PUSH1 0x40 MLOAD DUP1 DUP4 SUB DUP2 PUSH1 0x0 DUP8 DUP1 EXTCODESIZE ISZERO DUP1 ISZERO PUSH2 0x184D JUMPI PUSH1 0x0 DUP1 REVERT JUMPDEST POP GAS CALL ISZERO DUP1 ISZERO PUSH2 0x1861 JUMPI RETURNDATASIZE PUSH1 0x0 DUP1 RETURNDATACOPY RETURNDATASIZE PUSH1 0x0 REVERT JUMPDEST POP POP POP PUSH1 0x1 PUSH1 0x1 PUSH1 0xA0 SHL SUB DUP4 AND SWAP1 POP PUSH2 0x18BA JUMPI PUSH1 0x0 SLOAD PUSH1 0x40 MLOAD DUP3 DUP2 MSTORE PUSH1 0x1 PUSH1 0x1 PUSH1 0xA0 SHL SUB SWAP1 SWAP2 AND SWAP1 PUSH32 0x5817FE91D2748C33F168D8A78037FC073ADAF6EC8E3613A758D44A2CFAE4563D SWAP1 PUSH1 0x20 ADD PUSH1 0x40 MLOAD DUP1 SWAP2 SUB SWAP1 LOG2 POP POP JUMP JUMPDEST PUSH1 0x0 SLOAD PUSH1 0x40 MLOAD DUP3 DUP2 MSTORE PUSH1 0x1 PUSH1 0x1 PUSH1 0xA0 SHL SUB DUP5 DUP2 AND SWAP3 AND SWAP1 PUSH32 0x11DD463C4F2EDD676B85F050130C7AB2F5832F52BECB5444B09A92404AA1498A SWAP1 PUSH1 0x20 ADD PUSH2 0x9DF JUMP JUMPDEST PUSH1 0x0 SLOAD PUSH1 0x1 PUSH1 0x1 PUSH1 0xA0 SHL SUB AND CALLER EQ PUSH2 0x1926 JUMPI PUSH1 0x40 MLOAD PUSH4 0x47556579 PUSH1 0xE0 SHL DUP2 MSTORE PUSH1 0x4 ADD PUSH1 0x40 MLOAD DUP1 SWAP2 SUB SWAP1 REVERT JUMPDEST CALLVALUE PUSH1 0x0 SUB PUSH2 0x1947 JUMPI PUSH1 0x40 MLOAD PUSH4 0x1F2A2005 PUSH1 0xE0 SHL DUP2 MSTORE PUSH1 0x4 ADD PUSH1 0x40 MLOAD DUP1 SWAP2 SUB SWAP1 REVERT JUMPDEST PUSH1 0x0 PUSH32 0x0 PUSH1 0x1 PUSH1 0x1 PUSH1 0xA0 SHL SUB AND CALLVALUE PUSH1 0x40 MLOAD PUSH1 0x0 PUSH1 0x40 MLOAD DUP1 DUP4 SUB DUP2 DUP6 DUP8 GAS CALL SWAP3 POP POP POP RETURNDATASIZE DUP1 PUSH1 0x0 DUP2 EQ PUSH2 0x19B4 JUMPI PUSH1 0x40 MLOAD SWAP2 POP PUSH1 0x1F NOT PUSH1 0x3F RETURNDATASIZE ADD AND DUP3 ADD PUSH1 0x40 MSTORE RETURNDATASIZE DUP3 MSTORE RETURNDATASIZE PUSH1 0x0 PUSH1 0x20 DUP5 ADD RETURNDATACOPY PUSH2 0x19B9 JUMP JUMPDEST PUSH1 0x60 SWAP2 POP JUMPDEST POP POP SWAP1 POP DUP1 PUSH2 0x19DB JUMPI PUSH1 0x40 MLOAD PUSH4 0x2038A7D PUSH1 0xE1 SHL DUP2 MSTORE PUSH1 0x4 ADD PUSH1 0x40 MLOAD DUP1 SWAP2 SUB SWAP1 REVERT JUMPDEST PUSH1 0x40 MLOAD CALLVALUE DUP2 MSTORE CALLER SWAP1 PUSH32 0x296FA4A1573775154B81FC1DAC882E862E7DA59A2D5ADCA4BE330D41C4610D37 SWAP1 PUSH1 0x20 ADD PUSH1 0x40 MLOAD DUP1 SWAP2 SUB SWAP1 LOG2 POP JUMP JUMPDEST PUSH1 0x40 MLOAD PUSH4 0xF8B2CB4F PUSH1 0xE0 SHL DUP2 MSTORE PUSH1 0x1 PUSH1 0x1 PUSH1 0xA0 SHL SUB DUP3 DUP2 AND PUSH1 0x4 DUP4 ADD MSTORE PUSH1 0x0 SWAP2 PUSH32 0x0 SWAP1 SWAP2 AND SWAP1 PUSH4 0xF8B2CB4F SWAP1 PUSH1 0x24 ADD PUSH1 0x20 PUSH1 0x40 MLOAD DUP1 DUP4 SUB DUP2 DUP7 GAS STATICCALL ISZERO DUP1 ISZERO PUSH2 0x1A7E JUMPI RETURNDATASIZE PUSH1 0x0 DUP1 RETURNDATACOPY RETURNDATASIZE PUSH1 0x0 REVERT JUMPDEST POP POP POP POP PUSH1 0x40 MLOAD RETURNDATASIZE PUSH1 0x1F NOT PUSH1 0x1F DUP3 ADD AND DUP3 ADD DUP1 PUSH1 0x40 MSTORE POP DUP2 ADD SWAP1 PUSH2 0x1AA2 SWAP2 SWAP1 PUSH2 0x240E JUMP JUMPDEST SWAP3 SWAP2 POP POP JUMP JUMPDEST PUSH1 0x40 DUP1 MLOAD PUSH1 0x1 PUSH1 0x1 PUSH1 0xA0 SHL SUB DUP6 DUP2 AND PUSH1 0x24 DUP4 ADD MSTORE DUP5 AND PUSH1 0x44 DUP3 ADD MSTORE PUSH1 0x64 DUP1 DUP3 ADD DUP5 SWAP1 MSTORE DUP3 MLOAD DUP1 DUP4 SUB SWAP1 SWAP2 ADD DUP2 MSTORE PUSH1 0x84 SWAP1 SWAP2 ADD SWAP1 SWAP2 MSTORE PUSH1 0x20 DUP2 ADD DUP1 MLOAD PUSH1 0x1 PUSH1 0x1 PUSH1 0xE0 SHL SUB AND PUSH4 0x23B872DD PUSH1 0xE0 SHL OR SWAP1 MSTORE PUSH2 0x1B02 SWAP1 DUP6 SWAP1 PUSH2 0x1D95 JUMP JUMPDEST POP POP POP POP JUMP JUMPDEST PUSH1 0x60 PUSH1 0x0 DUP4 PUSH4 0xFFFFFFFF AND PUSH1 0x1 PUSH1 0x1 PUSH1 0x40 SHL SUB DUP2 GT ISZERO PUSH2 0x1B2A JUMPI PUSH2 0x1B2A PUSH2 0x2239 JUMP JUMPDEST PUSH1 0x40 MLOAD SWAP1 DUP1 DUP3 MSTORE DUP1 PUSH1 0x20 MUL PUSH1 0x20 ADD DUP3 ADD PUSH1 0x40 MSTORE DUP1 ISZERO PUSH2 0x1B53 JUMPI DUP2 PUSH1 0x20 ADD PUSH1 0x20 DUP3 MUL DUP1 CALLDATASIZE DUP4 CALLDATACOPY ADD SWAP1 POP JUMPDEST POP DUP6 MLOAD SWAP1 SWAP2 POP PUSH1 0x0 JUMPDEST DUP6 PUSH4 0xFFFFFFFF AND DUP2 LT ISZERO PUSH2 0x1CA6 JUMPI PUSH1 0x0 PUSH2 0x1B76 DUP3 DUP5 PUSH2 0x220D JUMP JUMPDEST PUSH1 0x40 DUP1 MLOAD PUSH1 0x20 DUP2 ADD DUP10 SWAP1 MSTORE SWAP1 DUP2 ADD DUP5 SWAP1 MSTORE PUSH1 0x60 ADD PUSH1 0x40 MLOAD PUSH1 0x20 DUP2 DUP4 SUB SUB DUP2 MSTORE SWAP1 PUSH1 0x40 MSTORE DUP1 MLOAD SWAP1 PUSH1 0x20 ADD KECCAK256 PUSH1 0x0 SHR PUSH2 0x1BAD SWAP2 SWAP1 PUSH2 0x2427 JUMP JUMPDEST SWAP1 POP PUSH1 0x0 DUP9 DUP4 DUP2 MLOAD DUP2 LT PUSH2 0x1BC3 JUMPI PUSH2 0x1BC3 PUSH2 0x23F8 JUMP JUMPDEST PUSH1 0x20 MUL PUSH1 0x20 ADD ADD MLOAD SWAP1 POP DUP9 DUP3 DUP5 PUSH2 0x1BDA SWAP2 SWAP1 PUSH2 0x243B JUMP JUMPDEST DUP2 MLOAD DUP2 LT PUSH2 0x1BEA JUMPI PUSH2 0x1BEA PUSH2 0x23F8 JUMP JUMPDEST PUSH1 0x20 MUL PUSH1 0x20 ADD ADD MLOAD DUP10 DUP5 DUP2 MLOAD DUP2 LT PUSH2 0x1C04 JUMPI PUSH2 0x1C04 PUSH2 0x23F8 JUMP JUMPDEST PUSH1 0x1 PUSH1 0x1 PUSH1 0xA0 SHL SUB SWAP1 SWAP3 AND PUSH1 0x20 SWAP3 DUP4 MUL SWAP2 SWAP1 SWAP2 ADD SWAP1 SWAP2 ADD MSTORE DUP1 DUP10 PUSH2 0x1C28 DUP5 DUP7 PUSH2 0x243B JUMP JUMPDEST DUP2 MLOAD DUP2 LT PUSH2 0x1C38 JUMPI PUSH2 0x1C38 PUSH2 0x23F8 JUMP JUMPDEST PUSH1 0x20 MUL PUSH1 0x20 ADD ADD SWAP1 PUSH1 0x1 PUSH1 0x1 PUSH1 0xA0 SHL SUB AND SWAP1 DUP2 PUSH1 0x1 PUSH1 0x1 PUSH1 0xA0 SHL SUB AND DUP2 MSTORE POP POP DUP9 DUP4 DUP2 MLOAD DUP2 LT PUSH2 0x1C6A JUMPI PUSH2 0x1C6A PUSH2 0x23F8 JUMP JUMPDEST PUSH1 0x20 MUL PUSH1 0x20 ADD ADD MLOAD DUP6 DUP5 DUP2 MLOAD DUP2 LT PUSH2 0x1C84 JUMPI PUSH2 0x1C84 PUSH2 0x23F8 JUMP JUMPDEST PUSH1 0x1 PUSH1 0x1 PUSH1 0xA0 SHL SUB SWAP1 SWAP3 AND PUSH1 0x20 SWAP3 DUP4 MUL SWAP2 SWAP1 SWAP2 ADD SWAP1 SWAP2 ADD MSTORE POP POP PUSH1 0x1 ADD PUSH2 0x1B5C JUMP JUMPDEST POP SWAP1 SWAP6 SWAP5 POP POP POP POP POP JUMP JUMPDEST PUSH1 0x60 DUP2 PUSH1 0x0 SUB PUSH2 0x1CD4 JUMPI PUSH1 0x40 MLOAD PUSH4 0x3728FEB3 PUSH1 0xE0 SHL DUP2 MSTORE PUSH1 0x4 ADD PUSH1 0x40 MLOAD DUP1 SWAP2 SUB SWAP1 REVERT JUMPDEST DUP2 PUSH1 0x1 PUSH1 0x1 PUSH1 0x40 SHL SUB DUP2 GT ISZERO PUSH2 0x1CEC JUMPI PUSH2 0x1CEC PUSH2 0x2239 JUMP JUMPDEST PUSH1 0x40 MLOAD SWAP1 DUP1 DUP3 MSTORE DUP1 PUSH1 0x20 MUL PUSH1 0x20 ADD DUP3 ADD PUSH1 0x40 MSTORE DUP1 ISZERO PUSH2 0x1D15 JUMPI DUP2 PUSH1 0x20 ADD PUSH1 0x20 DUP3 MUL DUP1 CALLDATASIZE DUP4 CALLDATACOPY ADD SWAP1 POP JUMPDEST POP SWAP1 POP PUSH1 0x0 PUSH2 0x1D24 DUP4 DUP6 PUSH2 0x21F9 JUMP JUMPDEST SWAP1 POP PUSH1 0x0 PUSH2 0x1D32 DUP5 DUP4 PUSH2 0x21CC JUMP JUMPDEST PUSH2 0x1D3C SWAP1 DUP7 PUSH2 0x220D JUMP JUMPDEST SWAP1 POP PUSH1 0x0 JUMPDEST DUP5 DUP2 LT ISZERO PUSH2 0x1D8C JUMPI DUP2 DUP2 LT PUSH2 0x1D57 JUMPI PUSH1 0x0 PUSH2 0x1D5A JUMP JUMPDEST PUSH1 0x1 JUMPDEST PUSH2 0x1D67 SWAP1 PUSH1 0xFF AND DUP5 PUSH2 0x243B JUMP JUMPDEST DUP5 DUP3 DUP2 MLOAD DUP2 LT PUSH2 0x1D79 JUMPI PUSH2 0x1D79 PUSH2 0x23F8 JUMP JUMPDEST PUSH1 0x20 SWAP1 DUP2 MUL SWAP2 SWAP1 SWAP2 ADD ADD MSTORE PUSH1 0x1 ADD PUSH2 0x1D41 JUMP JUMPDEST POP POP POP SWAP3 SWAP2 POP POP JUMP JUMPDEST PUSH1 0x0 DUP1 PUSH1 0x20 PUSH1 0x0 DUP5 MLOAD PUSH1 0x20 DUP7 ADD PUSH1 0x0 DUP9 GAS CALL DUP1 PUSH2 0x1DB8 JUMPI PUSH1 0x40 MLOAD RETURNDATASIZE PUSH1 0x0 DUP3 RETURNDATACOPY RETURNDATASIZE DUP2 REVERT JUMPDEST POP POP PUSH1 0x0 MLOAD RETURNDATASIZE SWAP2 POP DUP2 ISZERO PUSH2 0x1DD0 JUMPI DUP1 PUSH1 0x1 EQ ISZERO PUSH2 0x1DDD JUMP JUMPDEST PUSH1 0x1 PUSH1 0x1 PUSH1 0xA0 SHL SUB DUP5 AND EXTCODESIZE ISZERO JUMPDEST ISZERO PUSH2 0x1B02 JUMPI PUSH1 0x40 MLOAD PUSH4 0x5274AFE7 PUSH1 0xE0 SHL DUP2 MSTORE PUSH1 0x1 PUSH1 0x1 PUSH1 0xA0 SHL SUB DUP6 AND PUSH1 0x4 DUP3 ADD MSTORE PUSH1 0x24 ADD PUSH2 0x15A JUMP JUMPDEST DUP3 DUP1 SLOAD DUP3 DUP3 SSTORE SWAP1 PUSH1 0x0 MSTORE PUSH1 0x20 PUSH1 0x0 KECCAK256 SWAP1 DUP2 ADD SWAP3 DUP3 ISZERO PUSH2 0x1E5B JUMPI SWAP2 PUSH1 0x20 MUL DUP3 ADD JUMPDEST DUP3 DUP2 GT ISZERO PUSH2 0x1E5B JUMPI DUP3 MLOAD DUP3 SLOAD PUSH1 0x1 PUSH1 0x1 PUSH1 0xA0 SHL SUB NOT AND PUSH1 0x1 PUSH1 0x1 PUSH1 0xA0 SHL SUB SWAP1 SWAP2 AND OR DUP3 SSTORE PUSH1 0x20 SWAP1 SWAP3 ADD SWAP2 PUSH1 0x1 SWAP1 SWAP2 ADD SWAP1 PUSH2 0x1E26 JUMP JUMPDEST POP PUSH2 0x1E67 SWAP3 SWAP2 POP PUSH2 0x1EA6 JUMP JUMPDEST POP SWAP1 JUMP JUMPDEST DUP3 DUP1 SLOAD DUP3 DUP3 SSTORE SWAP1 PUSH1 0x0 MSTORE PUSH1 0x20 PUSH1 0x0 KECCAK256 SWAP1 DUP2 ADD SWAP3 DUP3 ISZERO PUSH2 0x1E5B JUMPI SWAP2 PUSH1 0x20 MUL DUP3 ADD JUMPDEST DUP3 DUP2 GT ISZERO PUSH2 0x1E5B JUMPI DUP3 MLOAD DUP3 SSTORE SWAP2 PUSH1 0x20 ADD SWAP2 SWAP1 PUSH1 0x1 ADD SWAP1 PUSH2 0x1E8B JUMP JUMPDEST JUMPDEST DUP1 DUP3 GT ISZERO PUSH2 0x1E67 JUMPI PUSH1 0x0 DUP2 SSTORE PUSH1 0x1 ADD PUSH2 0x1EA7 JUMP JUMPDEST PUSH1 0x0 PUSH1 0x20 DUP3 DUP5 SUB SLT ISZERO PUSH2 0x1ECD JUMPI PUSH1 0x0 DUP1 REVERT JUMPDEST POP CALLDATALOAD SWAP2 SWAP1 POP JUMP JUMPDEST PUSH1 0x0 DUP2 MLOAD DUP1 DUP5 MSTORE PUSH1 0x20 DUP5 ADD SWAP4 POP PUSH1 0x20 DUP4 ADD PUSH1 0x0 JUMPDEST DUP3 DUP2 LT ISZERO PUSH2 0x1F06 JUMPI DUP2 MLOAD DUP7 MSTORE PUSH1 0x20 SWAP6 DUP7 ADD SWAP6 SWAP1 SWAP2 ADD SWAP1 PUSH1 0x1 ADD PUSH2 0x1EE8 JUMP JUMPDEST POP SWAP4 SWAP5 SWAP4 POP POP POP POP JUMP JUMPDEST PUSH1 0x20 DUP2 MSTORE PUSH1 0x0 PUSH2 0x1F23 PUSH1 0x20 DUP4 ADD DUP5 PUSH2 0x1ED4 JUMP JUMPDEST SWAP4 SWAP3 POP POP POP JUMP JUMPDEST PUSH1 0x1 PUSH1 0x1 PUSH1 0xA0 SHL SUB DUP2 AND DUP2 EQ PUSH2 0x1F3F JUMPI PUSH1 0x0 DUP1 REVERT JUMPDEST POP JUMP JUMPDEST DUP1 CALLDATALOAD PUSH2 0x1F4D DUP2 PUSH2 0x1F2A JUMP JUMPDEST SWAP2 SWAP1 POP JUMP JUMPDEST PUSH1 0x0 DUP1 PUSH1 0x40 DUP4 DUP6 SUB SLT ISZERO PUSH2 0x1F65 JUMPI PUSH1 0x0 DUP1 REVERT JUMPDEST DUP3 CALLDATALOAD PUSH2 0x1F70 DUP2 PUSH2 0x1F2A JUMP JUMPDEST SWAP5 PUSH1 0x20 SWAP4 SWAP1 SWAP4 ADD CALLDATALOAD SWAP4 POP POP POP JUMP JUMPDEST DUP1 CALLDATALOAD PUSH1 0x1 PUSH1 0x1 PUSH1 0x40 SHL SUB DUP2 AND DUP2 EQ PUSH2 0x1F4D JUMPI PUSH1 0x0 DUP1 REVERT JUMPDEST DUP1 CALLDATALOAD PUSH4 0xFFFFFFFF DUP2 AND DUP2 EQ PUSH2 0x1F4D JUMPI PUSH1 0x0 DUP1 REVERT JUMPDEST DUP1 CALLDATALOAD DUP1 ISZERO ISZERO DUP2 EQ PUSH2 0x1F4D JUMPI PUSH1 0x0 DUP1 REVERT JUMPDEST PUSH1 0x0 DUP1 PUSH1 0x0 DUP1 PUSH1 0x0 DUP1 PUSH1 0x0 DUP1 PUSH1 0xE0 DUP10 DUP12 SUB SLT ISZERO PUSH2 0x1FD5 JUMPI PUSH1 0x0 DUP1 REVERT JUMPDEST DUP9 CALLDATALOAD PUSH1 0x1 PUSH1 0x1 PUSH1 0x40 SHL SUB DUP2 GT ISZERO PUSH2 0x1FEB JUMPI PUSH1 0x0 DUP1 REVERT JUMPDEST DUP10 ADD PUSH1 0x1F DUP2 ADD DUP12 SGT PUSH2 0x1FFC JUMPI PUSH1 0x0 DUP1 REVERT JUMPDEST DUP1 CALLDATALOAD PUSH1 0x1 PUSH1 0x1 PUSH1 0x40 SHL SUB DUP2 GT ISZERO PUSH2 0x2012 JUMPI PUSH1 0x0 DUP1 REVERT JUMPDEST DUP12 PUSH1 0x20 DUP3 DUP5 ADD ADD GT ISZERO PUSH2 0x2024 JUMPI PUSH1 0x0 DUP1 REVERT JUMPDEST PUSH1 0x20 SWAP2 DUP3 ADD SWAP10 POP SWAP8 POP PUSH2 0x2038 SWAP1 DUP11 ADD PUSH2 0x1F42 JUMP JUMPDEST SWAP6 POP PUSH2 0x2046 PUSH1 0x40 DUP11 ADD PUSH2 0x1F7E JUMP JUMPDEST SWAP5 POP PUSH2 0x2054 PUSH1 0x60 DUP11 ADD PUSH2 0x1F95 JUMP JUMPDEST SWAP4 POP PUSH2 0x2062 PUSH1 0x80 DUP11 ADD PUSH2 0x1F95 JUMP JUMPDEST SWAP3 POP PUSH1 0xA0 DUP10 ADD CALLDATALOAD SWAP2 POP PUSH2 0x2077 PUSH1 0xC0 DUP11 ADD PUSH2 0x1FA9 JUMP JUMPDEST SWAP1 POP SWAP3 SWAP6 SWAP9 POP SWAP3 SWAP6 SWAP9 SWAP1 SWAP4 SWAP7 POP JUMP JUMPDEST PUSH1 0x40 DUP1 DUP3 MSTORE DUP4 MLOAD SWAP1 DUP3 ADD DUP2 SWAP1 MSTORE PUSH1 0x0 SWAP1 PUSH1 0x20 DUP6 ADD SWAP1 PUSH1 0x60 DUP5 ADD SWAP1 DUP4 JUMPDEST DUP2 DUP2 LT ISZERO PUSH2 0x20C9 JUMPI DUP4 MLOAD PUSH1 0x1 PUSH1 0x1 PUSH1 0xA0 SHL SUB AND DUP4 MSTORE PUSH1 0x20 SWAP4 DUP5 ADD SWAP4 SWAP1 SWAP3 ADD SWAP2 PUSH1 0x1 ADD PUSH2 0x20A2 JUMP JUMPDEST POP POP DUP4 DUP2 SUB PUSH1 0x20 DUP6 ADD MSTORE PUSH2 0x20DD DUP2 DUP7 PUSH2 0x1ED4 JUMP JUMPDEST SWAP7 SWAP6 POP POP POP POP POP POP JUMP JUMPDEST PUSH1 0x0 PUSH1 0x20 DUP3 DUP5 SUB SLT ISZERO PUSH2 0x20F9 JUMPI PUSH1 0x0 DUP1 REVERT JUMPDEST DUP2 CALLDATALOAD PUSH2 0x1F23 DUP2 PUSH2 0x1F2A JUMP JUMPDEST PUSH1 0x0 DUP1 PUSH1 0x0 PUSH1 0x40 DUP5 DUP7 SUB SLT ISZERO PUSH2 0x2119 JUMPI PUSH1 0x0 DUP1 REVERT JUMPDEST DUP4 CALLDATALOAD SWAP3 POP PUSH1 0x20 DUP5 ADD CALLDATALOAD PUSH1 0x1 PUSH1 0x1 PUSH1 0x40 SHL SUB DUP2 GT ISZERO PUSH2 0x2136 JUMPI PUSH1 0x0 DUP1 REVERT JUMPDEST DUP5 ADD PUSH1 0x1F DUP2 ADD DUP7 SGT PUSH2 0x2147 JUMPI PUSH1 0x0 DUP1 REVERT JUMPDEST DUP1 CALLDATALOAD PUSH1 0x1 PUSH1 0x1 PUSH1 0x40 SHL SUB DUP2 GT ISZERO PUSH2 0x215D JUMPI PUSH1 0x0 DUP1 REVERT JUMPDEST DUP7 PUSH1 0x20 DUP3 PUSH1 0x5 SHL DUP5 ADD ADD GT ISZERO PUSH2 0x2172 JUMPI PUSH1 0x0 DUP1 REVERT JUMPDEST SWAP4 SWAP7 PUSH1 0x20 SWAP2 SWAP1 SWAP2 ADD SWAP6 POP SWAP3 SWAP4 POP POP POP JUMP JUMPDEST PUSH4 0x4E487B71 PUSH1 0xE0 SHL PUSH1 0x0 MSTORE PUSH1 0x21 PUSH1 0x4 MSTORE PUSH1 0x24 PUSH1 0x0 REVERT JUMPDEST PUSH1 0x0 PUSH1 0x20 DUP3 DUP5 SUB SLT ISZERO PUSH2 0x21AB JUMPI PUSH1 0x0 DUP1 REVERT JUMPDEST DUP2 MLOAD PUSH2 0x1F23 DUP2 PUSH2 0x1F2A JUMP JUMPDEST PUSH4 0x4E487B71 PUSH1 0xE0 SHL PUSH1 0x0 MSTORE PUSH1 0x11 PUSH1 0x4 MSTORE PUSH1 0x24 PUSH1 0x0 REVERT JUMPDEST DUP1 DUP3 MUL DUP2 ISZERO DUP3 DUP3 DIV DUP5 EQ OR PUSH2 0x1AA2 JUMPI PUSH2 0x1AA2 PUSH2 0x21B6 JUMP JUMPDEST PUSH4 0x4E487B71 PUSH1 0xE0 SHL PUSH1 0x0 MSTORE PUSH1 0x12 PUSH1 0x4 MSTORE PUSH1 0x24 PUSH1 0x0 REVERT JUMPDEST PUSH1 0x0 DUP3 PUSH2 0x2208 JUMPI PUSH2 0x2208 PUSH2 0x21E3 JUMP JUMPDEST POP DIV SWAP1 JUMP JUMPDEST DUP2 DUP2 SUB DUP2 DUP2 GT ISZERO PUSH2 0x1AA2 JUMPI PUSH2 0x1AA2 PUSH2 0x21B6 JUMP JUMPDEST PUSH1 0x0 PUSH1 0x1 DUP3 ADD PUSH2 0x2232 JUMPI PUSH2 0x2232 PUSH2 0x21B6 JUMP JUMPDEST POP PUSH1 0x1 ADD SWAP1 JUMP JUMPDEST PUSH4 0x4E487B71 PUSH1 0xE0 SHL PUSH1 0x0 MSTORE PUSH1 0x41 PUSH1 0x4 MSTORE PUSH1 0x24 PUSH1 0x0 REVERT JUMPDEST PUSH1 0x1 DUP2 DUP2 SHR SWAP1 DUP3 AND DUP1 PUSH2 0x2263 JUMPI PUSH1 0x7F DUP3 AND SWAP2 POP JUMPDEST PUSH1 0x20 DUP3 LT DUP2 SUB PUSH2 0x2283 JUMPI PUSH4 0x4E487B71 PUSH1 0xE0 SHL PUSH1 0x0 MSTORE PUSH1 0x22 PUSH1 0x4 MSTORE PUSH1 0x24 PUSH1 0x0 REVERT JUMPDEST POP SWAP2 SWAP1 POP JUMP JUMPDEST PUSH1 0x1F DUP3 GT ISZERO PUSH2 0x22D0 JUMPI DUP1 PUSH1 0x0 MSTORE PUSH1 0x20 PUSH1 0x0 KECCAK256 PUSH1 0x1F DUP5 ADD PUSH1 0x5 SHR DUP2 ADD PUSH1 0x20 DUP6 LT ISZERO PUSH2 0x22B0 JUMPI POP DUP1 JUMPDEST PUSH1 0x1F DUP5 ADD PUSH1 0x5 SHR DUP3 ADD SWAP2 POP JUMPDEST DUP2 DUP2 LT ISZERO PUSH2 0x12F1 JUMPI PUSH1 0x0 DUP2 SSTORE PUSH1 0x1 ADD PUSH2 0x22BC JUMP JUMPDEST POP POP POP JUMP JUMPDEST PUSH1 0x1 PUSH1 0x1 PUSH1 0x40 SHL SUB DUP4 GT ISZERO PUSH2 0x22EC JUMPI PUSH2 0x22EC PUSH2 0x2239 JUMP JUMPDEST PUSH2 0x2300 DUP4 PUSH2 0x22FA DUP4 SLOAD PUSH2 0x224F JUMP JUMPDEST DUP4 PUSH2 0x2289 JUMP JUMPDEST PUSH1 0x0 PUSH1 0x1F DUP5 GT PUSH1 0x1 DUP2 EQ PUSH2 0x2334 JUMPI PUSH1 0x0 DUP6 ISZERO PUSH2 0x231C JUMPI POP DUP4 DUP3 ADD CALLDATALOAD JUMPDEST PUSH1 0x0 NOT PUSH1 0x3 DUP8 SWAP1 SHL SHR NOT AND PUSH1 0x1 DUP7 SWAP1 SHL OR DUP4 SSTORE PUSH2 0x12F1 JUMP JUMPDEST PUSH1 0x0 DUP4 DUP2 MSTORE PUSH1 0x20 SWAP1 KECCAK256 PUSH1 0x1F NOT DUP7 AND SWAP1 DUP4 JUMPDEST DUP3 DUP2 LT ISZERO PUSH2 0x2365 JUMPI DUP7 DUP6 ADD CALLDATALOAD DUP3 SSTORE PUSH1 0x20 SWAP5 DUP6 ADD SWAP5 PUSH1 0x1 SWAP1 SWAP3 ADD SWAP2 ADD PUSH2 0x2345 JUMP JUMPDEST POP DUP7 DUP3 LT ISZERO PUSH2 0x2382 JUMPI PUSH1 0x0 NOT PUSH1 0xF8 DUP9 PUSH1 0x3 SHL AND SHR NOT DUP5 DUP8 ADD CALLDATALOAD AND DUP2 SSTORE JUMPDEST POP POP PUSH1 0x1 DUP6 PUSH1 0x1 SHL ADD DUP4 SSTORE POP POP POP POP POP JUMP JUMPDEST PUSH1 0xC0 DUP2 MSTORE DUP7 PUSH1 0xC0 DUP3 ADD MSTORE DUP7 DUP9 PUSH1 0xE0 DUP4 ADD CALLDATACOPY PUSH1 0x0 PUSH1 0xE0 DUP9 DUP4 ADD DUP2 ADD SWAP2 SWAP1 SWAP2 MSTORE PUSH1 0x1 PUSH1 0x1 PUSH1 0x40 SHL SUB SWAP7 SWAP1 SWAP7 AND PUSH1 0x20 DUP3 ADD MSTORE PUSH4 0xFFFFFFFF SWAP5 DUP6 AND PUSH1 0x40 DUP3 ADD MSTORE SWAP3 SWAP1 SWAP4 AND PUSH1 0x60 DUP4 ADD MSTORE PUSH1 0x80 DUP3 ADD MSTORE SWAP1 ISZERO ISZERO PUSH1 0xA0 DUP3 ADD MSTORE PUSH1 0x1F SWAP1 SWAP3 ADD PUSH1 0x1F NOT AND SWAP1 SWAP2 ADD ADD SWAP2 SWAP1 POP JUMP JUMPDEST PUSH4 0x4E487B71 PUSH1 0xE0 SHL PUSH1 0x0 MSTORE PUSH1 0x32 PUSH1 0x4 MSTORE PUSH1 0x24 PUSH1 0x0 REVERT JUMPDEST PUSH1 0x0 PUSH1 0x20 DUP3 DUP5 SUB SLT ISZERO PUSH2 0x2420 JUMPI PUSH1 0x0 DUP1 REVERT JUMPDEST POP MLOAD SWAP2 SWAP1 POP JUMP JUMPDEST PUSH1 0x0 DUP3 PUSH2 0x2436 JUMPI PUSH2 0x2436 PUSH2 0x21E3 JUMP JUMPDEST POP MOD SWAP1 JUMP JUMPDEST DUP1 DUP3 ADD DUP1 DUP3 GT ISZERO PUSH2 0x1AA2 JUMPI PUSH2 0x1AA2 PUSH2 0x21B6 JUMP INVALID LOG2 PUSH5 0x6970667358 0x22 SLT KECCAK256 0xCA TSTORE SWAP1 0xAF 0xB9 EXTCODECOPY PUSH1 0xB3 RETURNDATASIZE 0xDE SWAP6 PUSH13 0xF5F0D5EB75376B2F6052736768 EXP INVALID SMOD SGT DUP11 0xB7 0xD3 PUSH5 0x736F6C6343 STOP ADDMOD SHR STOP CALLER PUSH1 0xC0 PUSH1 0x40 MSTORE CALLVALUE DUP1 ISZERO PUSH2 0x10 JUMPI PUSH1 0x0 DUP1 REVERT JUMPDEST POP PUSH1 0x40 MLOAD PUSH2 0x165F CODESIZE SUB DUP1 PUSH2 0x165F DUP4 CODECOPY DUP2 ADD PUSH1 0x40 DUP2 SWAP1 MSTORE PUSH2 0x2F SWAP2 PUSH2 0xF9 JUMP JUMPDEST PUSH1 0x1 PUSH1 0x1 PUSH1 0xA0 SHL SUB DUP3 AND PUSH2 0x7E JUMPI PUSH1 0x40 MLOAD PUSH3 0x461BCD PUSH1 0xE5 SHL DUP2 MSTORE PUSH1 0x20 PUSH1 0x4 DUP3 ADD MSTORE PUSH1 0x11 PUSH1 0x24 DUP3 ADD MSTORE PUSH17 0x494E56414C49445F434F4D4D554E495459 PUSH1 0x78 SHL PUSH1 0x44 DUP3 ADD MSTORE PUSH1 0x64 ADD JUMPDEST PUSH1 0x40 MLOAD DUP1 SWAP2 SUB SWAP1 REVERT JUMPDEST PUSH1 0x1 PUSH1 0x1 PUSH1 0xA0 SHL SUB DUP2 AND PUSH2 0xC6 JUMPI PUSH1 0x40 MLOAD PUSH3 0x461BCD PUSH1 0xE5 SHL DUP2 MSTORE PUSH1 0x20 PUSH1 0x4 DUP3 ADD MSTORE PUSH1 0xF PUSH1 0x24 DUP3 ADD MSTORE PUSH15 0x494E56414C49445F464143544F5259 PUSH1 0x88 SHL PUSH1 0x44 DUP3 ADD MSTORE PUSH1 0x64 ADD PUSH2 0x75 JUMP JUMPDEST PUSH1 0x1 PUSH1 0x1 PUSH1 0xA0 SHL SUB SWAP2 DUP3 AND PUSH1 0x80 MSTORE AND PUSH1 0xA0 MSTORE PUSH2 0x12C JUMP JUMPDEST DUP1 MLOAD PUSH1 0x1 PUSH1 0x1 PUSH1 0xA0 SHL SUB DUP2 AND DUP2 EQ PUSH2 0xF4 JUMPI PUSH1 0x0 DUP1 REVERT JUMPDEST SWAP2 SWAP1 POP JUMP JUMPDEST PUSH1 0x0 DUP1 PUSH1 0x40 DUP4 DUP6 SUB SLT ISZERO PUSH2 0x10C JUMPI PUSH1 0x0 DUP1 REVERT JUMPDEST PUSH2 0x115 DUP4 PUSH2 0xDD JUMP JUMPDEST SWAP2 POP PUSH2 0x123 PUSH1 0x20 DUP5 ADD PUSH2 0xDD JUMP JUMPDEST SWAP1 POP SWAP3 POP SWAP3 SWAP1 POP JUMP JUMPDEST PUSH1 0x80 MLOAD PUSH1 0xA0 MLOAD PUSH2 0x14E4 PUSH2 0x17B PUSH1 0x0 CODECOPY PUSH1 0x0 DUP2 DUP2 PUSH2 0x1AB ADD MSTORE PUSH2 0x6DE ADD MSTORE PUSH1 0x0 DUP2 DUP2 PUSH2 0x227 ADD MSTORE DUP2 DUP2 PUSH2 0x330 ADD MSTORE DUP2 DUP2 PUSH2 0x538 ADD MSTORE DUP2 DUP2 PUSH2 0xAE2 ADD MSTORE DUP2 DUP2 PUSH2 0xCB2 ADD MSTORE PUSH2 0xE1C ADD MSTORE PUSH2 0x14E4 PUSH1 0x0 RETURN INVALID PUSH1 0x80 PUSH1 0x40 MSTORE PUSH1 0x4 CALLDATASIZE LT PUSH2 0xAB JUMPI PUSH1 0x0 CALLDATALOAD PUSH1 0xE0 SHR DUP1 PUSH4 0xC45A0155 GT PUSH2 0x64 JUMPI DUP1 PUSH4 0xC45A0155 EQ PUSH2 0x199 JUMPI DUP1 PUSH4 0xCF745F6C EQ PUSH2 0x1E5 JUMPI DUP1 PUSH4 0xDC1FB5A5 EQ PUSH2 0x215 JUMPI DUP1 PUSH4 0xE923C98A EQ PUSH2 0x249 JUMPI DUP1 PUSH4 0xF8B2CB4F EQ PUSH2 0x2E5 JUMPI DUP1 PUSH4 0xF99DD23F EQ PUSH2 0x305 JUMPI PUSH1 0x0 DUP1 REVERT JUMPDEST DUP1 PUSH4 0x1ED9B4B9 EQ PUSH2 0xB7 JUMPI DUP1 PUSH4 0x3D357B02 EQ PUSH2 0xD9 JUMPI DUP1 PUSH4 0x4792DC87 EQ PUSH2 0x10C JUMPI DUP1 PUSH4 0x79135250 EQ PUSH2 0x139 JUMPI DUP1 PUSH4 0x988413DD EQ PUSH2 0x159 JUMPI DUP1 PUSH4 0xBB7706D7 EQ PUSH2 0x179 JUMPI PUSH1 0x0 DUP1 REVERT JUMPDEST CALLDATASIZE PUSH2 0xB2 JUMPI STOP JUMPDEST PUSH1 0x0 DUP1 REVERT JUMPDEST CALLVALUE DUP1 ISZERO PUSH2 0xC3 JUMPI PUSH1 0x0 DUP1 REVERT JUMPDEST POP PUSH2 0xD7 PUSH2 0xD2 CALLDATASIZE PUSH1 0x4 PUSH2 0x113E JUMP JUMPDEST PUSH2 0x325 JUMP JUMPDEST STOP JUMPDEST CALLVALUE DUP1 ISZERO PUSH2 0xE5 JUMPI PUSH1 0x0 DUP1 REVERT JUMPDEST POP PUSH2 0xF9 PUSH2 0xF4 CALLDATASIZE PUSH1 0x4 PUSH2 0x117F JUMP JUMPDEST PUSH2 0x4FB JUMP JUMPDEST PUSH1 0x40 MLOAD SWAP1 DUP2 MSTORE PUSH1 0x20 ADD JUMPDEST PUSH1 0x40 MLOAD DUP1 SWAP2 SUB SWAP1 RETURN JUMPDEST CALLVALUE DUP1 ISZERO PUSH2 0x118 JUMPI PUSH1 0x0 DUP1 REVERT JUMPDEST POP PUSH2 0xF9 PUSH2 0x127 CALLDATASIZE PUSH1 0x4 PUSH2 0x117F JUMP JUMPDEST PUSH1 0x0 PUSH1 0x20 DUP2 SWAP1 MSTORE SWAP1 DUP2 MSTORE PUSH1 0x40 SWAP1 KECCAK256 SLOAD DUP2 JUMP JUMPDEST CALLVALUE DUP1 ISZERO PUSH2 0x145 JUMPI PUSH1 0x0 DUP1 REVERT JUMPDEST POP PUSH2 0xD7 PUSH2 0x154 CALLDATASIZE PUSH1 0x4 PUSH2 0x11A3 JUMP JUMPDEST PUSH2 0x52D JUMP JUMPDEST CALLVALUE DUP1 ISZERO PUSH2 0x165 JUMPI PUSH1 0x0 DUP1 REVERT JUMPDEST POP PUSH2 0xD7 PUSH2 0x174 CALLDATASIZE PUSH1 0x4 PUSH2 0x121F JUMP JUMPDEST PUSH2 0x6D3 JUMP JUMPDEST CALLVALUE DUP1 ISZERO PUSH2 0x185 JUMPI PUSH1 0x0 DUP1 REVERT JUMPDEST POP PUSH2 0xD7 PUSH2 0x194 CALLDATASIZE PUSH1 0x4 PUSH2 0x113E JUMP JUMPDEST PUSH2 0xAD7 JUMP JUMPDEST CALLVALUE DUP1 ISZERO PUSH2 0x1A5 JUMPI PUSH1 0x0 DUP1 REVERT JUMPDEST POP PUSH2 0x1CD PUSH32 0x0 DUP2 JUMP JUMPDEST PUSH1 0x40 MLOAD PUSH1 0x1 PUSH1 0x1 PUSH1 0xA0 SHL SUB SWAP1 SWAP2 AND DUP2 MSTORE PUSH1 0x20 ADD PUSH2 0x103 JUMP JUMPDEST CALLVALUE DUP1 ISZERO PUSH2 0x1F1 JUMPI PUSH1 0x0 DUP1 REVERT JUMPDEST POP PUSH2 0x205 PUSH2 0x200 CALLDATASIZE PUSH1 0x4 PUSH2 0x11A3 JUMP JUMPDEST PUSH2 0xC55 JUMP JUMPDEST PUSH1 0x40 MLOAD SWAP1 ISZERO ISZERO DUP2 MSTORE PUSH1 0x20 ADD PUSH2 0x103 JUMP JUMPDEST CALLVALUE DUP1 ISZERO PUSH2 0x221 JUMPI PUSH1 0x0 DUP1 REVERT JUMPDEST POP PUSH2 0x1CD PUSH32 0x0 DUP2 JUMP JUMPDEST CALLVALUE DUP1 ISZERO PUSH2 0x255 JUMPI PUSH1 0x0 DUP1 REVERT JUMPDEST POP PUSH2 0x2AE PUSH2 0x264 CALLDATASIZE PUSH1 0x4 PUSH2 0x11A3 JUMP JUMPDEST PUSH1 0x1 PUSH1 0x20 DUP2 DUP2 MSTORE PUSH1 0x0 SWAP4 DUP5 MSTORE PUSH1 0x40 DUP1 DUP6 KECCAK256 SWAP1 SWAP2 MSTORE SWAP2 DUP4 MSTORE SWAP2 KECCAK256 DUP1 SLOAD SWAP2 DUP2 ADD SLOAD PUSH1 0x2 SWAP1 SWAP2 ADD SLOAD PUSH8 0xFFFFFFFFFFFFFFFF DUP3 AND SWAP2 PUSH1 0xFF PUSH1 0x1 PUSH1 0x40 SHL DUP3 DIV DUP2 AND SWAP3 PUSH1 0x1 PUSH1 0x48 SHL SWAP1 SWAP3 DIV AND SWAP1 DUP6 JUMP JUMPDEST PUSH1 0x40 DUP1 MLOAD SWAP6 DUP7 MSTORE PUSH8 0xFFFFFFFFFFFFFFFF SWAP1 SWAP5 AND PUSH1 0x20 DUP7 ADD MSTORE SWAP2 ISZERO ISZERO SWAP3 DUP5 ADD SWAP3 SWAP1 SWAP3 MSTORE SWAP1 ISZERO ISZERO PUSH1 0x60 DUP4 ADD MSTORE PUSH1 0x80 DUP3 ADD MSTORE PUSH1 0xA0 ADD PUSH2 0x103 JUMP JUMPDEST CALLVALUE DUP1 ISZERO PUSH2 0x2F1 JUMPI PUSH1 0x0 DUP1 REVERT JUMPDEST POP PUSH2 0xF9 PUSH2 0x300 CALLDATASIZE PUSH1 0x4 PUSH2 0x117F JUMP JUMPDEST PUSH2 0xD92 JUMP JUMPDEST CALLVALUE DUP1 ISZERO PUSH2 0x311 JUMPI PUSH1 0x0 DUP1 REVERT JUMPDEST POP PUSH2 0xD7 PUSH2 0x320 CALLDATASIZE PUSH1 0x4 PUSH2 0x12C6 JUMP JUMPDEST PUSH2 0xE11 JUMP JUMPDEST CALLER PUSH1 0x1 PUSH1 0x1 PUSH1 0xA0 SHL SUB PUSH32 0x0 AND EQ PUSH2 0x376 JUMPI PUSH1 0x40 MLOAD PUSH3 0x461BCD PUSH1 0xE5 SHL DUP2 MSTORE PUSH1 0x4 ADD PUSH2 0x36D SWAP1 PUSH2 0x1310 JUMP JUMPDEST PUSH1 0x40 MLOAD DUP1 SWAP2 SUB SWAP1 REVERT JUMPDEST PUSH1 0x0 DUP2 GT PUSH2 0x396 JUMPI PUSH1 0x40 MLOAD PUSH3 0x461BCD PUSH1 0xE5 SHL DUP2 MSTORE PUSH1 0x4 ADD PUSH2 0x36D SWAP1 PUSH2 0x1338 JUMP JUMPDEST PUSH1 0x1 PUSH1 0x1 PUSH1 0xA0 SHL SUB DUP4 AND PUSH1 0x0 SWAP1 DUP2 MSTORE PUSH1 0x20 DUP2 SWAP1 MSTORE PUSH1 0x40 DUP2 KECCAK256 SLOAD PUSH2 0x3B8 DUP6 PUSH2 0xD92 JUMP JUMPDEST PUSH2 0x3C2 SWAP2 SWAP1 PUSH2 0x1373 JUMP JUMPDEST SWAP1 POP DUP2 DUP2 LT ISZERO PUSH2 0x40D JUMPI PUSH1 0x40 MLOAD PUSH3 0x461BCD PUSH1 0xE5 SHL DUP2 MSTORE PUSH1 0x20 PUSH1 0x4 DUP3 ADD MSTORE PUSH1 0x16 PUSH1 0x24 DUP3 ADD MSTORE PUSH22 0x494E53554646494349454E545F415641494C41424C45 PUSH1 0x50 SHL PUSH1 0x44 DUP3 ADD MSTORE PUSH1 0x64 ADD PUSH2 0x36D JUMP JUMPDEST PUSH1 0x1 PUSH1 0x1 PUSH1 0xA0 SHL SUB DUP5 AND PUSH2 0x494 JUMPI PUSH1 0x0 DUP4 PUSH1 0x1 PUSH1 0x1 PUSH1 0xA0 SHL SUB AND DUP4 PUSH1 0x40 MLOAD PUSH1 0x0 PUSH1 0x40 MLOAD DUP1 DUP4 SUB DUP2 DUP6 DUP8 GAS CALL SWAP3 POP POP POP RETURNDATASIZE DUP1 PUSH1 0x0 DUP2 EQ PUSH2 0x468 JUMPI PUSH1 0x40 MLOAD SWAP2 POP PUSH1 0x1F NOT PUSH1 0x3F RETURNDATASIZE ADD AND DUP3 ADD PUSH1 0x40 MSTORE RETURNDATASIZE DUP3 MSTORE RETURNDATASIZE PUSH1 0x0 PUSH1 0x20 DUP5 ADD RETURNDATACOPY PUSH2 0x46D JUMP JUMPDEST PUSH1 0x60 SWAP2 POP JUMPDEST POP POP SWAP1 POP DUP1 PUSH2 0x48E JUMPI PUSH1 0x40 MLOAD PUSH3 0x461BCD PUSH1 0xE5 SHL DUP2 MSTORE PUSH1 0x4 ADD PUSH2 0x36D SWAP1 PUSH2 0x1386 JUMP JUMPDEST POP PUSH2 0x4A8 JUMP JUMPDEST PUSH2 0x4A8 PUSH1 0x1 PUSH1 0x1 PUSH1 0xA0 SHL SUB DUP6 AND DUP5 DUP5 PUSH2 0x105E JUMP JUMPDEST DUP3 PUSH1 0x1 PUSH1 0x1 PUSH1 0xA0 SHL SUB AND DUP5 PUSH1 0x1 PUSH1 0x1 PUSH1 0xA0 SHL SUB AND PUSH32 0xD1C19FBCD4551A5EDFB66D43D2E337C04837AFDA3482B42BDF569A8FCCDAE5FB DUP5 PUSH1 0x40 MLOAD PUSH2 0x4ED SWAP2 DUP2 MSTORE PUSH1 0x20 ADD SWAP1 JUMP JUMPDEST PUSH1 0x40 MLOAD DUP1 SWAP2 SUB SWAP1 LOG3 POP POP POP POP JUMP JUMPDEST PUSH1 0x1 PUSH1 0x1 PUSH1 0xA0 SHL SUB DUP2 AND PUSH1 0x0 SWAP1 DUP2 MSTORE PUSH1 0x20 DUP2 SWAP1 MSTORE PUSH1 0x40 DUP2 KECCAK256 SLOAD PUSH2 0x51D DUP4 PUSH2 0xD92 JUMP JUMPDEST PUSH2 0x527 SWAP2 SWAP1 PUSH2 0x1373 JUMP JUMPDEST SWAP3 SWAP2 POP POP JUMP JUMPDEST CALLER PUSH1 0x1 PUSH1 0x1 PUSH1 0xA0 SHL SUB PUSH32 0x0 AND EQ PUSH2 0x575 JUMPI PUSH1 0x40 MLOAD PUSH3 0x461BCD PUSH1 0xE5 SHL DUP2 MSTORE PUSH1 0x4 ADD PUSH2 0x36D SWAP1 PUSH2 0x1310 JUMP JUMPDEST PUSH1 0x0 DUP3 DUP2 MSTORE PUSH1 0x1 PUSH1 0x20 DUP2 DUP2 MSTORE PUSH1 0x40 DUP1 DUP5 KECCAK256 PUSH1 0x1 PUSH1 0x1 PUSH1 0xA0 SHL SUB DUP7 AND DUP6 MSTORE SWAP1 SWAP2 MSTORE SWAP1 SWAP2 KECCAK256 SWAP1 DUP2 ADD SLOAD PUSH1 0x1 PUSH1 0x40 SHL SWAP1 DIV PUSH1 0xFF AND PUSH2 0x5DF JUMPI PUSH1 0x40 MLOAD PUSH3 0x461BCD PUSH1 0xE5 SHL DUP2 MSTORE PUSH1 0x20 PUSH1 0x4 DUP3 ADD MSTORE PUSH1 0xA PUSH1 0x24 DUP3 ADD MSTORE PUSH10 0x1393D517D313D0D2D151 PUSH1 0xB2 SHL PUSH1 0x44 DUP3 ADD MSTORE PUSH1 0x64 ADD PUSH2 0x36D JUMP JUMPDEST PUSH1 0x1 DUP2 ADD SLOAD PUSH1 0x1 PUSH1 0x48 SHL SWAP1 DIV PUSH1 0xFF AND ISZERO PUSH2 0x62F JUMPI PUSH1 0x40 MLOAD PUSH3 0x461BCD PUSH1 0xE5 SHL DUP2 MSTORE PUSH1 0x20 PUSH1 0x4 DUP3 ADD MSTORE PUSH1 0x11 PUSH1 0x24 DUP3 ADD MSTORE PUSH17 0x1053149150511657D11254D0955494D151 PUSH1 0x7A SHL PUSH1 0x44 DUP3 ADD MSTORE PUSH1 0x64 ADD PUSH2 0x36D JUMP JUMPDEST DUP1 SLOAD PUSH1 0x1 PUSH1 0x1 PUSH1 0xA0 SHL SUB DUP4 AND PUSH1 0x0 SWAP1 DUP2 MSTORE PUSH1 0x20 DUP2 SWAP1 MSTORE PUSH1 0x40 DUP2 KECCAK256 DUP1 SLOAD DUP4 SWAP3 SWAP1 PUSH2 0x659 SWAP1 DUP5 SWAP1 PUSH2 0x1373 JUMP JUMPDEST SWAP1 SWAP2 SSTORE POP POP PUSH1 0x0 DUP5 DUP2 MSTORE PUSH1 0x1 PUSH1 0x20 DUP2 DUP2 MSTORE PUSH1 0x40 DUP1 DUP5 KECCAK256 PUSH1 0x1 PUSH1 0x1 PUSH1 0xA0 SHL SUB DUP9 AND DUP1 DUP7 MSTORE SWAP3 MSTORE DUP1 DUP5 KECCAK256 DUP5 DUP2 SSTORE SWAP3 DUP4 ADD DUP1 SLOAD PUSH10 0xFFFFFFFFFFFFFFFFFFFF NOT AND SWAP1 SSTORE PUSH1 0x2 SWAP1 SWAP3 ADD SWAP3 SWAP1 SWAP3 SSTORE MLOAD DUP6 SWAP1 PUSH32 0xF1C2201AB8D3AFE0AB6336204843B66BB25C5F27D6DE3490C9A463FD18D294A9 SWAP1 PUSH2 0x4ED SWAP1 DUP6 DUP2 MSTORE PUSH1 0x20 ADD SWAP1 JUMP JUMPDEST CALLER PUSH1 0x1 PUSH1 0x1 PUSH1 0xA0 SHL SUB PUSH32 0x0 AND EQ PUSH2 0x73A JUMPI PUSH1 0x40 MLOAD PUSH3 0x461BCD PUSH1 0xE5 SHL DUP2 MSTORE PUSH1 0x20 PUSH1 0x4 DUP3 ADD MSTORE PUSH1 0xC PUSH1 0x24 DUP3 ADD MSTORE PUSH12 0x4F4E4C595F464143544F5259 PUSH1 0xA0 SHL PUSH1 0x44 DUP3 ADD MSTORE PUSH1 0x64 ADD PUSH2 0x36D JUMP JUMPDEST DUP3 DUP2 EQ PUSH2 0x778 JUMPI PUSH1 0x40 MLOAD PUSH3 0x461BCD PUSH1 0xE5 SHL DUP2 MSTORE PUSH1 0x20 PUSH1 0x4 DUP3 ADD MSTORE PUSH1 0xC PUSH1 0x24 DUP3 ADD MSTORE PUSH12 0x988A9CBE9A92A69A82A8869 PUSH1 0xA3 SHL PUSH1 0x44 DUP3 ADD MSTORE PUSH1 0x64 ADD PUSH2 0x36D JUMP JUMPDEST PUSH2 0x782 DUP7 DUP7 PUSH2 0xC55 JUMP JUMPDEST PUSH2 0x7C0 JUMPI PUSH1 0x40 MLOAD PUSH3 0x461BCD PUSH1 0xE5 SHL DUP2 MSTORE PUSH1 0x20 PUSH1 0x4 DUP3 ADD MSTORE PUSH1 0xF PUSH1 0x24 DUP3 ADD MSTORE PUSH15 0x54494D454C4F434B5F414354495645 PUSH1 0x88 SHL PUSH1 0x44 DUP3 ADD MSTORE PUSH1 0x64 ADD PUSH2 0x36D JUMP JUMPDEST PUSH1 0x0 DUP7 DUP2 MSTORE PUSH1 0x1 PUSH1 0x20 SWAP1 DUP2 MSTORE PUSH1 0x40 DUP1 DUP4 KECCAK256 PUSH1 0x1 PUSH1 0x1 PUSH1 0xA0 SHL SUB DUP10 AND DUP5 MSTORE SWAP1 SWAP2 MSTORE DUP2 KECCAK256 SWAP1 DUP1 JUMPDEST DUP6 DUP2 LT ISZERO PUSH2 0xA2A JUMPI PUSH1 0x0 DUP8 DUP8 DUP4 DUP2 DUP2 LT PUSH2 0x801 JUMPI PUSH2 0x801 PUSH2 0x13B3 JUMP JUMPDEST SWAP1 POP PUSH1 0x20 MUL ADD PUSH1 0x20 DUP2 ADD SWAP1 PUSH2 0x816 SWAP2 SWAP1 PUSH2 0x117F JUMP JUMPDEST SWAP1 POP PUSH1 0x0 DUP7 DUP7 DUP5 DUP2 DUP2 LT PUSH2 0x82C JUMPI PUSH2 0x82C PUSH2 0x13B3 JUMP JUMPDEST PUSH1 0x20 MUL SWAP2 SWAP1 SWAP2 ADD CALLDATALOAD SWAP2 POP POP PUSH1 0x1 PUSH1 0x1 PUSH1 0xA0 SHL SUB DUP3 AND PUSH2 0x87A JUMPI PUSH1 0x40 MLOAD PUSH3 0x461BCD PUSH1 0xE5 SHL DUP2 MSTORE PUSH1 0x20 PUSH1 0x4 DUP3 ADD MSTORE PUSH1 0xA PUSH1 0x24 DUP3 ADD MSTORE PUSH10 0x494E56414C49445F544F PUSH1 0xB0 SHL PUSH1 0x44 DUP3 ADD MSTORE PUSH1 0x64 ADD PUSH2 0x36D JUMP JUMPDEST PUSH1 0x0 DUP2 GT PUSH2 0x89A JUMPI PUSH1 0x40 MLOAD PUSH3 0x461BCD PUSH1 0xE5 SHL DUP2 MSTORE PUSH1 0x4 ADD PUSH2 0x36D SWAP1 PUSH2 0x1338 JUMP JUMPDEST DUP5 SLOAD PUSH1 0x2 DUP7 ADD SLOAD PUSH2 0x8AC SWAP1 DUP4 SWAP1 PUSH2 0x13C9 JUMP JUMPDEST GT ISZERO PUSH2 0x8E4 JUMPI PUSH1 0x40 MLOAD PUSH3 0x461BCD PUSH1 0xE5 SHL DUP2 MSTORE PUSH1 0x20 PUSH1 0x4 DUP3 ADD MSTORE PUSH1 0x7 PUSH1 0x24 DUP3 ADD MSTORE PUSH7 0x4F564552504159 PUSH1 0xC8 SHL PUSH1 0x44 DUP3 ADD MSTORE PUSH1 0x64 ADD PUSH2 0x36D JUMP JUMPDEST PUSH1 0x1 PUSH1 0x1 PUSH1 0xA0 SHL SUB DUP11 AND PUSH2 0x96B JUMPI PUSH1 0x0 DUP3 PUSH1 0x1 PUSH1 0x1 PUSH1 0xA0 SHL SUB AND DUP3 PUSH1 0x40 MLOAD PUSH1 0x0 PUSH1 0x40 MLOAD DUP1 DUP4 SUB DUP2 DUP6 DUP8 GAS CALL SWAP3 POP POP POP RETURNDATASIZE DUP1 PUSH1 0x0 DUP2 EQ PUSH2 0x93F JUMPI PUSH1 0x40 MLOAD SWAP2 POP PUSH1 0x1F NOT PUSH1 0x3F RETURNDATASIZE ADD AND DUP3 ADD PUSH1 0x40 MSTORE RETURNDATASIZE DUP3 MSTORE RETURNDATASIZE PUSH1 0x0 PUSH1 0x20 DUP5 ADD RETURNDATACOPY PUSH2 0x944 JUMP JUMPDEST PUSH1 0x60 SWAP2 POP JUMPDEST POP POP SWAP1 POP DUP1 PUSH2 0x965 JUMPI PUSH1 0x40 MLOAD PUSH3 0x461BCD PUSH1 0xE5 SHL DUP2 MSTORE PUSH1 0x4 ADD PUSH2 0x36D SWAP1 PUSH2 0x1386 JUMP JUMPDEST POP PUSH2 0x97F JUMP JUMPDEST PUSH2 0x97F PUSH1 0x1 PUSH1 0x1 PUSH1 0xA0 SHL SUB DUP12 AND DUP4 DUP4 PUSH2 0x105E JUMP JUMPDEST DUP1 DUP6 PUSH1 0x2 ADD PUSH1 0x0 DUP3 DUP3 SLOAD PUSH2 0x993 SWAP2 SWAP1 PUSH2 0x13C9 JUMP JUMPDEST SWAP1 SWAP2 SSTORE POP POP PUSH1 0x1 PUSH1 0x1 PUSH1 0xA0 SHL SUB DUP11 AND PUSH1 0x0 SWAP1 DUP2 MSTORE PUSH1 0x20 DUP2 SWAP1 MSTORE PUSH1 0x40 DUP2 KECCAK256 DUP1 SLOAD DUP4 SWAP3 SWAP1 PUSH2 0x9C0 SWAP1 DUP5 SWAP1 PUSH2 0x1373 JUMP JUMPDEST SWAP1 SWAP2 SSTORE POP PUSH2 0x9D0 SWAP1 POP DUP2 DUP6 PUSH2 0x13C9 JUMP JUMPDEST SWAP4 POP DUP2 PUSH1 0x1 PUSH1 0x1 PUSH1 0xA0 SHL SUB AND DUP11 PUSH1 0x1 PUSH1 0x1 PUSH1 0xA0 SHL SUB AND DUP13 PUSH32 0x2A156326EC22774FFA31F45F5F5990405E41EB6FE44E1D600934AB445CF3C0C1 DUP5 PUSH1 0x40 MLOAD PUSH2 0xA18 SWAP2 DUP2 MSTORE PUSH1 0x20 ADD SWAP1 JUMP JUMPDEST PUSH1 0x40 MLOAD DUP1 SWAP2 SUB SWAP1 LOG4 POP POP PUSH1 0x1 ADD PUSH2 0x7E5 JUMP JUMPDEST POP DUP7 PUSH1 0x1 PUSH1 0x1 PUSH1 0xA0 SHL SUB AND DUP9 PUSH32 0x32783F5493DDD65B3D8BB7BCBE6C08B4D3266223AFD87F940A456DCD86074B6E DUP4 PUSH1 0x40 MLOAD PUSH2 0xA67 SWAP2 DUP2 MSTORE PUSH1 0x20 ADD SWAP1 JUMP JUMPDEST PUSH1 0x40 MLOAD DUP1 SWAP2 SUB SWAP1 LOG3 DUP2 SLOAD PUSH1 0x2 DUP4 ADD SLOAD SUB PUSH2 0xACD JUMPI PUSH1 0x1 DUP3 ADD DUP1 SLOAD PUSH10 0xFF000000000000000000 NOT AND PUSH1 0x1 PUSH1 0x48 SHL OR SWAP1 SSTORE PUSH1 0x40 MLOAD PUSH1 0x1 PUSH1 0x1 PUSH1 0xA0 SHL SUB DUP9 AND SWAP1 DUP10 SWAP1 PUSH32 0xA6EFDAF5C9F54B66D8444894D554FD5FBC60FD07836AEDCC7EB5020FD1872602 SWAP1 PUSH1 0x0 SWAP1 LOG3 JUMPDEST POP POP POP POP POP POP POP POP JUMP JUMPDEST CALLER PUSH1 0x1 PUSH1 0x1 PUSH1 0xA0 SHL SUB PUSH32 0x0 AND EQ PUSH2 0xB1F JUMPI PUSH1 0x40 MLOAD PUSH3 0x461BCD PUSH1 0xE5 SHL DUP2 MSTORE PUSH1 0x4 ADD PUSH2 0x36D SWAP1 PUSH2 0x1310 JUMP JUMPDEST PUSH1 0x0 DUP2 GT PUSH2 0xB3F JUMPI PUSH1 0x40 MLOAD PUSH3 0x461BCD PUSH1 0xE5 SHL DUP2 MSTORE PUSH1 0x4 ADD PUSH2 0x36D SWAP1 PUSH2 0x1338 JUMP JUMPDEST PUSH1 0x1 PUSH1 0x1 PUSH1 0xA0 SHL SUB DUP4 AND PUSH1 0x0 SWAP1 DUP2 MSTORE PUSH1 0x20 DUP2 SWAP1 MSTORE PUSH1 0x40 DUP2 KECCAK256 SLOAD PUSH2 0xB61 DUP6 PUSH2 0xD92 JUMP JUMPDEST PUSH2 0xB6B SWAP2 SWAP1 PUSH2 0x1373 JUMP JUMPDEST SWAP1 POP DUP2 DUP2 LT ISZERO PUSH2 0xBB4 JUMPI PUSH1 0x40 MLOAD PUSH3 0x461BCD PUSH1 0xE5 SHL DUP2 MSTORE PUSH1 0x20 PUSH1 0x4 DUP3 ADD MSTORE PUSH1 0x14 PUSH1 0x24 DUP3 ADD MSTORE PUSH20 0x494E53554646494349454E545F464F525F464545 PUSH1 0x60 SHL PUSH1 0x44 DUP3 ADD MSTORE PUSH1 0x64 ADD PUSH2 0x36D JUMP JUMPDEST PUSH1 0x1 PUSH1 0x1 PUSH1 0xA0 SHL SUB DUP5 AND PUSH2 0xC3B JUMPI PUSH1 0x0 DUP4 PUSH1 0x1 PUSH1 0x1 PUSH1 0xA0 SHL SUB AND DUP4 PUSH1 0x40 MLOAD PUSH1 0x0 PUSH1 0x40 MLOAD DUP1 DUP4 SUB DUP2 DUP6 DUP8 GAS CALL SWAP3 POP POP POP RETURNDATASIZE DUP1 PUSH1 0x0 DUP2 EQ PUSH2 0xC0F JUMPI PUSH1 0x40 MLOAD SWAP2 POP PUSH1 0x1F NOT PUSH1 0x3F RETURNDATASIZE ADD AND DUP3 ADD PUSH1 0x40 MSTORE RETURNDATASIZE DUP3 MSTORE RETURNDATASIZE PUSH1 0x0 PUSH1 0x20 DUP5 ADD RETURNDATACOPY PUSH2 0xC14 JUMP JUMPDEST PUSH1 0x60 SWAP2 POP JUMPDEST POP POP SWAP1 POP DUP1 PUSH2 0xC35 JUMPI PUSH1 0x40 MLOAD PUSH3 0x461BCD PUSH1 0xE5 SHL DUP2 MSTORE PUSH1 0x4 ADD PUSH2 0x36D SWAP1 PUSH2 0x1386 JUMP JUMPDEST POP PUSH2 0xC4F JUMP JUMPDEST PUSH2 0xC4F PUSH1 0x1 PUSH1 0x1 PUSH1 0xA0 SHL SUB DUP6 AND DUP5 DUP5 PUSH2 0x105E JUMP JUMPDEST POP POP POP POP JUMP JUMPDEST PUSH1 0x0 DUP3 DUP2 MSTORE PUSH1 0x1 PUSH1 0x20 DUP2 DUP2 MSTORE PUSH1 0x40 DUP1 DUP5 KECCAK256 PUSH1 0x1 PUSH1 0x1 PUSH1 0xA0 SHL SUB DUP7 AND DUP6 MSTORE SWAP1 SWAP2 MSTORE DUP3 KECCAK256 SWAP1 DUP2 ADD SLOAD PUSH1 0x1 PUSH1 0x40 SHL SWAP1 DIV PUSH1 0xFF AND ISZERO DUP1 PUSH2 0xC9C JUMPI POP PUSH1 0x1 DUP2 ADD SLOAD PUSH1 0x1 PUSH1 0x48 SHL SWAP1 DIV PUSH1 0xFF AND JUMPDEST ISZERO PUSH2 0xCAB JUMPI PUSH1 0x0 SWAP2 POP POP PUSH2 0x527 JUMP JUMPDEST PUSH1 0x0 DUP1 PUSH1 0x0 PUSH32 0x0 PUSH1 0x1 PUSH1 0x1 PUSH1 0xA0 SHL SUB AND PUSH4 0x4B615A52 DUP9 PUSH1 0x40 MLOAD DUP3 PUSH4 0xFFFFFFFF AND PUSH1 0xE0 SHL DUP2 MSTORE PUSH1 0x4 ADD PUSH2 0xCFE SWAP2 DUP2 MSTORE PUSH1 0x20 ADD SWAP1 JUMP JUMPDEST PUSH2 0x100 PUSH1 0x40 MLOAD DUP1 DUP4 SUB DUP2 DUP7 GAS STATICCALL ISZERO DUP1 ISZERO PUSH2 0xD1C JUMPI RETURNDATASIZE PUSH1 0x0 DUP1 RETURNDATACOPY RETURNDATASIZE PUSH1 0x0 REVERT JUMPDEST POP POP POP POP PUSH1 0x40 MLOAD RETURNDATASIZE PUSH1 0x1F NOT PUSH1 0x1F DUP3 ADD AND DUP3 ADD DUP1 PUSH1 0x40 MSTORE POP DUP2 ADD SWAP1 PUSH2 0xD40 SWAP2 SWAP1 PUSH2 0x13F5 JUMP JUMPDEST SWAP8 POP POP POP POP SWAP5 POP POP SWAP4 POP POP PUSH1 0x0 DUP4 PUSH8 0xFFFFFFFFFFFFFFFF AND TIMESTAMP LT ISZERO SWAP1 POP PUSH1 0x0 DUP1 DUP5 PUSH4 0xFFFFFFFF AND GT DUP1 ISZERO PUSH2 0xD7A JUMPI POP DUP4 PUSH4 0xFFFFFFFF AND DUP4 LT ISZERO JUMPDEST SWAP1 POP DUP2 DUP1 PUSH2 0xD85 JUMPI POP DUP1 JUMPDEST SWAP10 SWAP9 POP POP POP POP POP POP POP POP POP JUMP JUMPDEST PUSH1 0x0 PUSH1 0x1 PUSH1 0x1 PUSH1 0xA0 SHL SUB DUP3 AND PUSH2 0xDA9 JUMPI POP SELFBALANCE SWAP2 SWAP1 POP JUMP JUMPDEST PUSH1 0x40 MLOAD PUSH4 0x70A08231 PUSH1 0xE0 SHL DUP2 MSTORE ADDRESS PUSH1 0x4 DUP3 ADD MSTORE PUSH1 0x1 PUSH1 0x1 PUSH1 0xA0 SHL SUB DUP4 AND SWAP1 PUSH4 0x70A08231 SWAP1 PUSH1 0x24 ADD PUSH1 0x20 PUSH1 0x40 MLOAD DUP1 DUP4 SUB DUP2 DUP7 GAS STATICCALL ISZERO DUP1 ISZERO PUSH2 0xDED JUMPI RETURNDATASIZE PUSH1 0x0 DUP1 RETURNDATACOPY RETURNDATASIZE PUSH1 0x0 REVERT JUMPDEST POP POP POP POP PUSH1 0x40 MLOAD RETURNDATASIZE PUSH1 0x1F NOT PUSH1 0x1F DUP3 ADD AND DUP3 ADD DUP1 PUSH1 0x40 MSTORE POP DUP2 ADD SWAP1 PUSH2 0x527 SWAP2 SWAP1 PUSH2 0x1495 JUMP JUMPDEST CALLER PUSH1 0x1 PUSH1 0x1 PUSH1 0xA0 SHL SUB PUSH32 0x0 AND EQ PUSH2 0xE59 JUMPI PUSH1 0x40 MLOAD PUSH3 0x461BCD PUSH1 0xE5 SHL DUP2 MSTORE PUSH1 0x4 ADD PUSH2 0x36D SWAP1 PUSH2 0x1310 JUMP JUMPDEST TIMESTAMP DUP2 PUSH8 0xFFFFFFFFFFFFFFFF AND GT PUSH2 0xEA4 JUMPI PUSH1 0x40 MLOAD PUSH3 0x461BCD PUSH1 0xE5 SHL DUP2 MSTORE PUSH1 0x20 PUSH1 0x4 DUP3 ADD MSTORE PUSH1 0xF PUSH1 0x24 DUP3 ADD MSTORE PUSH15 0x1153911512535157D25397D41054D5 PUSH1 0x8A SHL PUSH1 0x44 DUP3 ADD MSTORE PUSH1 0x64 ADD PUSH2 0x36D JUMP JUMPDEST PUSH1 0x0 DUP3 GT PUSH2 0xEC4 JUMPI PUSH1 0x40 MLOAD PUSH3 0x461BCD PUSH1 0xE5 SHL DUP2 MSTORE PUSH1 0x4 ADD PUSH2 0x36D SWAP1 PUSH2 0x1338 JUMP JUMPDEST PUSH1 0x0 DUP5 DUP2 MSTORE PUSH1 0x1 PUSH1 0x20 DUP2 DUP2 MSTORE PUSH1 0x40 DUP1 DUP5 KECCAK256 PUSH1 0x1 PUSH1 0x1 PUSH1 0xA0 SHL SUB DUP9 AND DUP6 MSTORE SWAP1 SWAP2 MSTORE SWAP1 SWAP2 KECCAK256 SWAP1 DUP2 ADD SLOAD PUSH1 0x1 PUSH1 0x40 SHL SWAP1 DIV PUSH1 0xFF AND ISZERO PUSH2 0xF33 JUMPI PUSH1 0x40 MLOAD PUSH3 0x461BCD PUSH1 0xE5 SHL DUP2 MSTORE PUSH1 0x20 PUSH1 0x4 DUP3 ADD MSTORE PUSH1 0xE PUSH1 0x24 DUP3 ADD MSTORE PUSH14 0x1053149150511657D313D0D2D151 PUSH1 0x92 SHL PUSH1 0x44 DUP3 ADD MSTORE PUSH1 0x64 ADD PUSH2 0x36D JUMP JUMPDEST PUSH1 0x0 PUSH2 0xF3E DUP6 PUSH2 0xD92 JUMP JUMPDEST PUSH1 0x1 PUSH1 0x1 PUSH1 0xA0 SHL SUB DUP7 AND PUSH1 0x0 SWAP1 DUP2 MSTORE PUSH1 0x20 DUP2 SWAP1 MSTORE PUSH1 0x40 DUP2 KECCAK256 SLOAD SWAP2 SWAP3 POP SWAP1 PUSH2 0xF65 SWAP1 DUP4 PUSH2 0x1373 JUMP JUMPDEST SWAP1 POP DUP5 DUP2 LT ISZERO PUSH2 0xFB0 JUMPI PUSH1 0x40 MLOAD PUSH3 0x461BCD PUSH1 0xE5 SHL DUP2 MSTORE PUSH1 0x20 PUSH1 0x4 DUP3 ADD MSTORE PUSH1 0x16 PUSH1 0x24 DUP3 ADD MSTORE PUSH22 0x494E53554646494349454E545F415641494C41424C45 PUSH1 0x50 SHL PUSH1 0x44 DUP3 ADD MSTORE PUSH1 0x64 ADD PUSH2 0x36D JUMP JUMPDEST DUP5 DUP4 SSTORE PUSH1 0x1 DUP4 ADD DUP1 SLOAD PUSH9 0xFFFFFFFFFFFFFFFFFF NOT AND PUSH8 0xFFFFFFFFFFFFFFFF DUP7 AND OR PUSH1 0x1 PUSH1 0x40 SHL OR SWAP1 SSTORE PUSH1 0x1 PUSH1 0x1 PUSH1 0xA0 SHL SUB DUP7 AND PUSH1 0x0 SWAP1 DUP2 MSTORE PUSH1 0x20 DUP2 SWAP1 MSTORE PUSH1 0x40 DUP2 KECCAK256 DUP1 SLOAD DUP8 SWAP3 SWAP1 PUSH2 0x1001 SWAP1 DUP5 SWAP1 PUSH2 0x13C9 JUMP JUMPDEST SWAP1 SWAP2 SSTORE POP POP PUSH1 0x40 DUP1 MLOAD DUP7 DUP2 MSTORE PUSH8 0xFFFFFFFFFFFFFFFF DUP7 AND PUSH1 0x20 DUP3 ADD MSTORE PUSH1 0x1 PUSH1 0x1 PUSH1 0xA0 SHL SUB DUP9 AND SWAP2 DUP10 SWAP2 PUSH32 0x1B2647AC67960126F97FF0F07F3F647FB18657E8C057387CA2CAA1667FCACCA5 SWAP2 ADD PUSH1 0x40 MLOAD DUP1 SWAP2 SUB SWAP1 LOG3 POP POP POP POP POP POP POP JUMP JUMPDEST PUSH1 0x40 DUP1 MLOAD PUSH1 0x1 PUSH1 0x1 PUSH1 0xA0 SHL SUB DUP5 AND PUSH1 0x24 DUP3 ADD MSTORE PUSH1 0x44 DUP1 DUP3 ADD DUP5 SWAP1 MSTORE DUP3 MLOAD DUP1 DUP4 SUB SWAP1 SWAP2 ADD DUP2 MSTORE PUSH1 0x64 SWAP1 SWAP2 ADD SWAP1 SWAP2 MSTORE PUSH1 0x20 DUP2 ADD DUP1 MLOAD PUSH1 0x1 PUSH1 0x1 PUSH1 0xE0 SHL SUB AND PUSH4 0xA9059CBB PUSH1 0xE0 SHL OR SWAP1 MSTORE PUSH2 0x10B0 SWAP1 DUP5 SWAP1 PUSH2 0x10B5 JUMP JUMPDEST POP POP POP JUMP JUMPDEST PUSH1 0x0 DUP1 PUSH1 0x20 PUSH1 0x0 DUP5 MLOAD PUSH1 0x20 DUP7 ADD PUSH1 0x0 DUP9 GAS CALL DUP1 PUSH2 0x10D8 JUMPI PUSH1 0x40 MLOAD RETURNDATASIZE PUSH1 0x0 DUP3 RETURNDATACOPY RETURNDATASIZE DUP2 REVERT JUMPDEST POP POP PUSH1 0x0 MLOAD RETURNDATASIZE SWAP2 POP DUP2 ISZERO PUSH2 0x10F0 JUMPI DUP1 PUSH1 0x1 EQ ISZERO PUSH2 0x10FD JUMP JUMPDEST PUSH1 0x1 PUSH1 0x1 PUSH1 0xA0 SHL SUB DUP5 AND EXTCODESIZE ISZERO JUMPDEST ISZERO PUSH2 0xC4F JUMPI PUSH1 0x40 MLOAD PUSH4 0x5274AFE7 PUSH1 0xE0 SHL DUP2 MSTORE PUSH1 0x1 PUSH1 0x1 PUSH1 0xA0 SHL SUB DUP6 AND PUSH1 0x4 DUP3 ADD MSTORE PUSH1 0x24 ADD PUSH2 0x36D JUMP JUMPDEST PUSH1 0x1 PUSH1 0x1 PUSH1 0xA0 SHL SUB DUP2 AND DUP2 EQ PUSH2 0x113B JUMPI PUSH1 0x0 DUP1 REVERT JUMPDEST POP JUMP JUMPDEST PUSH1 0x0 DUP1 PUSH1 0x0 PUSH1 0x60 DUP5 DUP7 SUB SLT ISZERO PUSH2 0x1153 JUMPI PUSH1 0x0 DUP1 REVERT JUMPDEST DUP4 CALLDATALOAD PUSH2 0x115E DUP2 PUSH2 0x1126 JUMP JUMPDEST SWAP3 POP PUSH1 0x20 DUP5 ADD CALLDATALOAD PUSH2 0x116E DUP2 PUSH2 0x1126 JUMP JUMPDEST SWAP3 SWAP6 SWAP3 SWAP5 POP POP POP PUSH1 0x40 SWAP2 SWAP1 SWAP2 ADD CALLDATALOAD SWAP1 JUMP JUMPDEST PUSH1 0x0 PUSH1 0x20 DUP3 DUP5 SUB SLT ISZERO PUSH2 0x1191 JUMPI PUSH1 0x0 DUP1 REVERT JUMPDEST DUP2 CALLDATALOAD PUSH2 0x119C DUP2 PUSH2 0x1126 JUMP JUMPDEST SWAP4 SWAP3 POP POP POP JUMP JUMPDEST PUSH1 0x0 DUP1 PUSH1 0x40 DUP4 DUP6 SUB SLT ISZERO PUSH2 0x11B6 JUMPI PUSH1 0x0 DUP1 REVERT JUMPDEST DUP3 CALLDATALOAD SWAP2 POP PUSH1 0x20 DUP4 ADD CALLDATALOAD PUSH2 0x11C8 DUP2 PUSH2 0x1126 JUMP JUMPDEST DUP1 SWAP2 POP POP SWAP3 POP SWAP3 SWAP1 POP JUMP JUMPDEST PUSH1 0x0 DUP1 DUP4 PUSH1 0x1F DUP5 ADD SLT PUSH2 0x11E5 JUMPI PUSH1 0x0 DUP1 REVERT JUMPDEST POP DUP2 CALLDATALOAD PUSH8 0xFFFFFFFFFFFFFFFF DUP2 GT ISZERO PUSH2 0x11FD JUMPI PUSH1 0x0 DUP1 REVERT JUMPDEST PUSH1 0x20 DUP4 ADD SWAP2 POP DUP4 PUSH1 0x20 DUP3 PUSH1 0x5 SHL DUP6 ADD ADD GT ISZERO PUSH2 0x1218 JUMPI PUSH1 0x0 DUP1 REVERT JUMPDEST SWAP3 POP SWAP3 SWAP1 POP JUMP JUMPDEST PUSH1 0x0 DUP1 PUSH1 0x0 DUP1 PUSH1 0x0 DUP1 PUSH1 0x80 DUP8 DUP10 SUB SLT ISZERO PUSH2 0x1238 JUMPI PUSH1 0x0 DUP1 REVERT JUMPDEST DUP7 CALLDATALOAD SWAP6 POP PUSH1 0x20 DUP8 ADD CALLDATALOAD PUSH2 0x124A DUP2 PUSH2 0x1126 JUMP JUMPDEST SWAP5 POP PUSH1 0x40 DUP8 ADD CALLDATALOAD PUSH8 0xFFFFFFFFFFFFFFFF DUP2 GT ISZERO PUSH2 0x1266 JUMPI PUSH1 0x0 DUP1 REVERT JUMPDEST PUSH2 0x1272 DUP10 DUP3 DUP11 ADD PUSH2 0x11D3 JUMP JUMPDEST SWAP1 SWAP6 POP SWAP4 POP POP PUSH1 0x60 DUP8 ADD CALLDATALOAD PUSH8 0xFFFFFFFFFFFFFFFF DUP2 GT ISZERO PUSH2 0x1292 JUMPI PUSH1 0x0 DUP1 REVERT JUMPDEST PUSH2 0x129E DUP10 DUP3 DUP11 ADD PUSH2 0x11D3 JUMP JUMPDEST SWAP8 SWAP11 SWAP7 SWAP10 POP SWAP5 SWAP8 POP SWAP3 SWAP6 SWAP4 SWAP5 SWAP3 POP POP POP JUMP JUMPDEST PUSH8 0xFFFFFFFFFFFFFFFF DUP2 AND DUP2 EQ PUSH2 0x113B JUMPI PUSH1 0x0 DUP1 REVERT JUMPDEST PUSH1 0x0 DUP1 PUSH1 0x0 DUP1 PUSH1 0x80 DUP6 DUP8 SUB SLT ISZERO PUSH2 0x12DC JUMPI PUSH1 0x0 DUP1 REVERT JUMPDEST DUP5 CALLDATALOAD SWAP4 POP PUSH1 0x20 DUP6 ADD CALLDATALOAD PUSH2 0x12EE DUP2 PUSH2 0x1126 JUMP JUMPDEST SWAP3 POP PUSH1 0x40 DUP6 ADD CALLDATALOAD SWAP2 POP PUSH1 0x60 DUP6 ADD CALLDATALOAD PUSH2 0x1305 DUP2 PUSH2 0x12B0 JUMP JUMPDEST SWAP4 SWAP7 SWAP3 SWAP6 POP SWAP1 SWAP4 POP POP JUMP JUMPDEST PUSH1 0x20 DUP1 DUP3 MSTORE PUSH1 0xE SWAP1 DUP3 ADD MSTORE PUSH14 0x4F4E4C595F434F4D4D554E495459 PUSH1 0x90 SHL PUSH1 0x40 DUP3 ADD MSTORE PUSH1 0x60 ADD SWAP1 JUMP JUMPDEST PUSH1 0x20 DUP1 DUP3 MSTORE PUSH1 0xB SWAP1 DUP3 ADD MSTORE PUSH11 0x16915493D7D05353D55395 PUSH1 0xAA SHL PUSH1 0x40 DUP3 ADD MSTORE PUSH1 0x60 ADD SWAP1 JUMP JUMPDEST PUSH4 0x4E487B71 PUSH1 0xE0 SHL PUSH1 0x0 MSTORE PUSH1 0x11 PUSH1 0x4 MSTORE PUSH1 0x24 PUSH1 0x0 REVERT JUMPDEST DUP2 DUP2 SUB DUP2 DUP2 GT ISZERO PUSH2 0x527 JUMPI PUSH2 0x527 PUSH2 0x135D JUMP JUMPDEST PUSH1 0x20 DUP1 DUP3 MSTORE PUSH1 0x13 SWAP1 DUP3 ADD MSTORE PUSH19 0x11551217D514905394D1915497D19052531151 PUSH1 0x6A SHL PUSH1 0x40 DUP3 ADD MSTORE PUSH1 0x60 ADD SWAP1 JUMP JUMPDEST PUSH4 0x4E487B71 PUSH1 0xE0 SHL PUSH1 0x0 MSTORE PUSH1 0x32 PUSH1 0x4 MSTORE PUSH1 0x24 PUSH1 0x0 REVERT JUMPDEST DUP1 DUP3 ADD DUP1 DUP3 GT ISZERO PUSH2 0x527 JUMPI PUSH2 0x527 PUSH2 0x135D JUMP JUMPDEST DUP1 MLOAD PUSH4 0xFFFFFFFF DUP2 AND DUP2 EQ PUSH2 0x13F0 JUMPI PUSH1 0x0 DUP1 REVERT JUMPDEST SWAP2 SWAP1 POP JUMP JUMPDEST PUSH1 0x0 DUP1 PUSH1 0x0 DUP1 PUSH1 0x0 DUP1 PUSH1 0x0 DUP1 PUSH2 0x100 DUP10 DUP12 SUB SLT ISZERO PUSH2 0x1412 JUMPI PUSH1 0x0 DUP1 REVERT JUMPDEST DUP9 MLOAD PUSH2 0x141D DUP2 PUSH2 0x1126 JUMP JUMPDEST PUSH1 0x20 DUP11 ADD MLOAD SWAP1 SWAP9 POP PUSH2 0x142E DUP2 PUSH2 0x12B0 JUMP JUMPDEST SWAP7 POP PUSH2 0x143C PUSH1 0x40 DUP11 ADD PUSH2 0x13DC JUMP JUMPDEST SWAP6 POP PUSH2 0x144A PUSH1 0x60 DUP11 ADD PUSH2 0x13DC JUMP JUMPDEST SWAP5 POP PUSH1 0x80 DUP10 ADD MLOAD PUSH1 0xFF DUP2 AND DUP2 EQ PUSH2 0x1460 JUMPI PUSH1 0x0 DUP1 REVERT JUMPDEST PUSH1 0xA0 DUP11 ADD MLOAD PUSH1 0xC0 DUP12 ADD MLOAD SWAP2 SWAP6 POP SWAP4 POP DUP1 ISZERO ISZERO DUP2 EQ PUSH2 0x147D JUMPI PUSH1 0x0 DUP1 REVERT JUMPDEST PUSH1 0xE0 SWAP10 SWAP1 SWAP10 ADD MLOAD SWAP8 SWAP11 SWAP7 SWAP10 POP SWAP5 SWAP8 SWAP4 SWAP7 SWAP3 SWAP6 SWAP2 SWAP5 POP POP JUMP JUMPDEST PUSH1 0x0 PUSH1 0x20 DUP3 DUP5 SUB SLT ISZERO PUSH2 0x14A7 JUMPI PUSH1 0x0 DUP1 REVERT JUMPDEST POP MLOAD SWAP2 SWAP1 POP JUMP INVALID LOG2 PUSH5 0x6970667358 0x22 SLT KECCAK256 PUSH13 0x65ACEA7247D87ED9A97E62F693 0xD5 0xDE SIGNEXTEND 0xC7 0x2B 0xBD 0xBE 0xF8 PUSH6 0xA2E83DA45EDD 0xE3 0x29 MLOAD PUSH5 0x736F6C6343 STOP ADDMOD SHR STOP CALLER "},"methodIdentifiers":{"admin()":"f851a440","cancelRaffle(uint256)":"5fba3171","createRaffle(string,address,uint64,uint32,uint32,uint256,bool)":"3d1828b7","depositETH()":"f6326fb3","depositToken(address,uint256)":"338b5dea","drawWinners(uint256)":"d1d06b2e","factory()":"c45a0155","getAllRaffleIds()":"2273f76d","getBalance(address)":"f8b2cb4f","getRaffleCore(uint256)":"4b615a52","getRaffleToken(uint256)":"1b2c02f2","getWinners(uint256)":"6b1426a4","isRegistered(address)":"c3c5a547","lockRaffleFunds(uint256)":"1a536b9b","markRafflePaidOut(uint256)":"e3e3b883","register()":"1aa3a008","registerForRaffle(uint256,address[])":"8ded65eb","setAdmin(address)":"704b6c02","vault()":"fbfa77cf","withdraw(address,uint256)":"f3fef3a3"}}}}}