{
  "_format": "hh-sol-artifact-1",
  "contractName": "RaffylFactory",
  "sourceName": "contracts/RaffylFactory.sol",
  "abi": [
    {
      "inputs": [],
      "stateMutability": "nonpayable",
      "type": "constructor"
    },
    {
      "anonymous": false,
      "inputs": [
        {
          "indexed": true,
          "internalType": "address",
          "name": "community",
          "type": "address"
        },
        {
          "indexed": true,
          "internalType": "uint256",
          "name": "id",
          "type": "uint256"
        },
        {
          "indexed": false,
          "internalType": "uint256",
          "name": "totalPaid",
          "type": "uint256"
        }
      ],
      "name": "BatchPayoutProcessed",
      "type": "event"
    },
    {
      "anonymous": false,
      "inputs": [
        {
          "indexed": true,
          "internalType": "address",
          "name": "admin",
          "type": "address"
        },
        {
          "indexed": true,
          "internalType": "address",
          "name": "community",
          "type": "address"
        },
        {
          "indexed": false,
          "internalType": "string",
          "name": "name",
          "type": "string"
        }
      ],
      "name": "CommunityCreated",
      "type": "event"
    },
    {
      "anonymous": false,
      "inputs": [
        {
          "indexed": true,
          "internalType": "address",
          "name": "community",
          "type": "address"
        },
        {
          "indexed": true,
          "internalType": "uint256",
          "name": "id",
          "type": "uint256"
        }
      ],
      "name": "RaffleRegistered",
      "type": "event"
    },
    {
      "anonymous": false,
      "inputs": [
        {
          "indexed": true,
          "internalType": "address",
          "name": "newTreasury",
          "type": "address"
        }
      ],
      "name": "TreasuryChanged",
      "type": "event"
    },
    {
      "inputs": [
        {
          "internalType": "address",
          "name": "",
          "type": "address"
        }
      ],
      "name": "communityNames",
      "outputs": [
        {
          "internalType": "string",
          "name": "",
          "type": "string"
        }
      ],
      "stateMutability": "view",
      "type": "function"
    },
    {
      "inputs": [
        {
          "internalType": "string",
          "name": "name",
          "type": "string"
        }
      ],
      "name": "createCommunity",
      "outputs": [
        {
          "internalType": "address",
          "name": "community",
          "type": "address"
        }
      ],
      "stateMutability": "nonpayable",
      "type": "function"
    },
    {
      "inputs": [],
      "name": "getAllRaffles",
      "outputs": [
        {
          "internalType": "address[]",
          "name": "communities",
          "type": "address[]"
        },
        {
          "internalType": "uint256[]",
          "name": "ids",
          "type": "uint256[]"
        }
      ],
      "stateMutability": "view",
      "type": "function"
    },
    {
      "inputs": [],
      "name": "getCommunities",
      "outputs": [
        {
          "internalType": "address[]",
          "name": "",
          "type": "address[]"
        }
      ],
      "stateMutability": "view",
      "type": "function"
    },
    {
      "inputs": [
        {
          "internalType": "address",
          "name": "",
          "type": "address"
        }
      ],
      "name": "isCommunity",
      "outputs": [
        {
          "internalType": "bool",
          "name": "",
          "type": "bool"
        }
      ],
      "stateMutability": "view",
      "type": "function"
    },
    {
      "inputs": [
        {
          "internalType": "uint256",
          "name": "id",
          "type": "uint256"
        }
      ],
      "name": "onRaffleCreated",
      "outputs": [],
      "stateMutability": "nonpayable",
      "type": "function"
    },
    {
      "inputs": [],
      "name": "owner",
      "outputs": [
        {
          "internalType": "address",
          "name": "",
          "type": "address"
        }
      ],
      "stateMutability": "view",
      "type": "function"
    },
    {
      "inputs": [
        {
          "internalType": "uint256",
          "name": "id",
          "type": "uint256"
        }
      ],
      "name": "processBatchPayout",
      "outputs": [],
      "stateMutability": "nonpayable",
      "type": "function"
    },
    {
      "inputs": [
        {
          "internalType": "address",
          "name": "_treasury",
          "type": "address"
        }
      ],
      "name": "setTreasury",
      "outputs": [],
      "stateMutability": "nonpayable",
      "type": "function"
    },
    {
      "inputs": [],
      "name": "treasury",
      "outputs": [
        {
          "internalType": "address",
          "name": "",
          "type": "address"
        }
      ],
      "stateMutability": "view",
      "type": "function"
    }
  ],
  "bytecode": "0x6080604052348015600f57600080fd5b50600080546001600160a01b03191633179055614d98806100316000396000f3fe608060405234801561001057600080fd5b506004361061009e5760003560e01c8063b4bbaa0111610066578063b4bbaa0114610153578063c251b56514610168578063e65c07d01461017d578063e679292214610190578063f0f44260146101a357600080fd5b80630d07397e146100a357806361d027b3146100cc5780638da5cb5b146100f7578063933eea6b1461010a578063993fa20b14610120575b600080fd5b6100b66100b1366004610a7d565b6101b6565b6040516100c39190610aa1565b60405180910390f35b6001546100df906001600160a01b031681565b6040516001600160a01b0390911681526020016100c3565b6000546100df906001600160a01b031681565b610112610250565b6040516100c3929190610b66565b61014361012e366004610a7d565b60036020526000908152604090205460ff1681565b60405190151581526020016100c3565b610166610161366004610b94565b6103a1565b005b6101706106ba565b6040516100c39190610bad565b61016661018b366004610b94565b61071c565b6100df61019e366004610bc0565b61082c565b6101666101b1366004610a7d565b61093e565b600460205260009081526040902080546101cf90610c34565b80601f01602080910402602001604051908101604052809291908181526020018280546101fb90610c34565b80156102485780601f1061021d57610100808354040283529160200191610248565b820191906000526020600020905b81548152906001019060200180831161022b57829003601f168201915b505050505081565b60055460609081908067ffffffffffffffff81111561027157610271610c68565b60405190808252806020026020018201604052801561029a578160200160208202803683370190505b5092508067ffffffffffffffff8111156102b6576102b6610c68565b6040519080825280602002602001820160405280156102df578160200160208202803683370190505b50915060005b8181101561039b576005818154811061030057610300610c7e565b600091825260209091206002909102015484516001600160a01b039091169085908390811061033157610331610c7e565b60200260200101906001600160a01b031690816001600160a01b0316815250506005818154811061036457610364610c7e565b90600052602060002090600202016001015483828151811061038857610388610c7e565b60209081029190910101526001016102e5565b50509091565b3360009081526003602052604090205460ff166103f65760405162461bcd60e51b815260206004820152600e60248201526d4f4e4c595f434f4d4d554e49545960901b60448201526064015b60405180910390fd5b604051631ac509a960e21b81526004810182905260009081903390636b1426a490602401600060405180830381865afa158015610437573d6000803e3d6000fd5b505050506040513d6000823e601f3d908101601f1916820160405261045f9190810190610d56565b9150915080518251146104a35760405162461bcd60e51b815260206004820152600c60248201526b0988a9cbe9a92a69a82a886960a31b60448201526064016103ed565b60008251116104e15760405162461bcd60e51b815260206004820152600a6024820152694e4f5f57494e4e45525360b01b60448201526064016103ed565b6040516325b0ad2960e11b8152600481018490526000903390634b615a529060240161010060405180830381865afa158015610521573d6000803e3d6000fd5b505050506040513d601f19601f820116820180604052508101906105459190610e3c565b5050505050505090506000336001600160a01b031663fbfa77cf6040518163ffffffff1660e01b8152600401602060405180830381865afa15801561058e573d6000803e3d6000fd5b505050506040513d601f19601f820116820180604052508101906105b29190610ee9565b60405163988413dd60e01b815290915081906001600160a01b0382169063988413dd906105e990899087908a908a90600401610f06565b600060405180830381600087803b15801561060357600080fd5b505af1158015610617573d6000803e3d6000fd5b505060405163e3e3b88360e01b81526004810189905233925063e3e3b8839150602401600060405180830381600087803b15801561065457600080fd5b505af1158015610668573d6000803e3d6000fd5b5050505085336001600160a01b03167f982308fce7dceb74d704aaddb88e5fd621414359d8d2353757f75676afb8ef3e6106a187610a16565b60405190815260200160405180910390a3505050505050565b6060600280548060200260200160405190810160405280929190818152602001828054801561071257602002820191906000526020600020905b81546001600160a01b031681526001909101906020018083116106f4575b5050505050905090565b3360009081526003602052604090205460ff1661076c5760405162461bcd60e51b815260206004820152600e60248201526d4f4e4c595f434f4d4d554e49545960901b60448201526064016103ed565b604080518082018252338082526020820184815260058054600181018255600091825293517f036b6384b5eca791c62761152d0c79bb0604c104a5fb6f4eb0703f3154bb3db0600290950294850180546001600160a01b0319166001600160a01b0390921691909117905590517f036b6384b5eca791c62761152d0c79bb0604c104a5fb6f4eb0703f3154bb3db19093019290925591518392917f279b8cf14d5e70ee86bd66b6c4f761104d333f1f017942904ea177695745aafc91a350565b6000333060405161083c90610a58565b6001600160a01b03928316815291166020820152604001604051809103906000f08015801561086f573d6000803e3d6000fd5b506002805460018082019092557f405787fa12a823e0f2b7631cc41b3ba8828b3321ca811111fa75cd3aa3bb5ace0180546001600160a01b0319166001600160a01b0384169081179091556000908152600360209081526040808320805460ff191690941790935560049052209091506108ea838583610f9c565b50806001600160a01b0316336001600160a01b03167fd05e5f6ddf0a65c1f19dbbd239bbc18a04f2a638591c81f90dc782eadd0d4c6e858560405161093092919061105c565b60405180910390a392915050565b6000546001600160a01b031633146109845760405162461bcd60e51b81526020600482015260096024820152682727aa2fa7aba722a960b91b60448201526064016103ed565b6001600160a01b0381166109cc5760405162461bcd60e51b815260206004820152600f60248201526e494e56414c49445f4144445245535360881b60448201526064016103ed565b600180546001600160a01b0319166001600160a01b0383169081179091556040517fc714d22a2f08b695f81e7c707058db484aa5b4d6b4c9fd64beb10fe85832f60890600090a250565b6000805b8251811015610a5257828181518110610a3557610a35610c7e565b602002602001015182610a48919061108b565b9150600101610a1a565b50919050565b613cb0806110b383390190565b6001600160a01b0381168114610a7a57600080fd5b50565b600060208284031215610a8f57600080fd5b8135610a9a81610a65565b9392505050565b602081526000825180602084015260005b81811015610acf5760208186018101516040868401015201610ab2565b506000604082850101526040601f19601f83011684010191505092915050565b600081518084526020840193506020830160005b82811015610b2a5781516001600160a01b0316865260209586019590910190600101610b03565b5093949350505050565b600081518084526020840193506020830160005b82811015610b2a578151865260209586019590910190600101610b48565b604081526000610b796040830185610aef565b8281036020840152610b8b8185610b34565b95945050505050565b600060208284031215610ba657600080fd5b5035919050565b602081526000610a9a6020830184610aef565b60008060208385031215610bd357600080fd5b823567ffffffffffffffff811115610bea57600080fd5b8301601f81018513610bfb57600080fd5b803567ffffffffffffffff811115610c1257600080fd5b856020828401011115610c2457600080fd5b6020919091019590945092505050565b600181811c90821680610c4857607f821691505b602082108103610a5257634e487b7160e01b600052602260045260246000fd5b634e487b7160e01b600052604160045260246000fd5b634e487b7160e01b600052603260045260246000fd5b604051601f8201601f1916810167ffffffffffffffff81118282101715610cbd57610cbd610c68565b604052919050565b600067ffffffffffffffff821115610cdf57610cdf610c68565b5060051b60200190565b600082601f830112610cfa57600080fd5b8151610d0d610d0882610cc5565b610c94565b8082825260208201915060208360051b860101925085831115610d2f57600080fd5b602085015b83811015610d4c578051835260209283019201610d34565b5095945050505050565b60008060408385031215610d6957600080fd5b825167ffffffffffffffff811115610d8057600080fd5b8301601f81018513610d9157600080fd5b8051610d9f610d0882610cc5565b8082825260208201915060208360051b850101925087831115610dc157600080fd5b6020840193505b82841015610dec578351610ddb81610a65565b825260209384019390910190610dc8565b80955050505050602083015167ffffffffffffffff811115610e0d57600080fd5b610e1985828601610ce9565b9150509250929050565b805163ffffffff81168114610e3757600080fd5b919050565b600080600080600080600080610100898b031215610e5957600080fd5b8851610e6481610a65565b60208a015190985067ffffffffffffffff81168114610e8257600080fd5b9650610e9060408a01610e23565b9550610e9e60608a01610e23565b9450608089015160ff81168114610eb457600080fd5b60a08a015160c08b015191955093508015158114610ed157600080fd5b60e09990990151979a96995094979396929591945050565b600060208284031215610efb57600080fd5b8151610a9a81610a65565b8481526001600160a01b0384166020820152608060408201819052600090610f3090830185610aef565b8281036060840152610f428185610b34565b979650505050505050565b601f821115610f9757806000526020600020601f840160051c81016020851015610f745750805b601f840160051c820191505b81811015610f945760008155600101610f80565b50505b505050565b67ffffffffffffffff831115610fb457610fb4610c68565b610fc883610fc28354610c34565b83610f4d565b6000601f841160018114610ffc5760008515610fe45750838201355b600019600387901b1c1916600186901b178355610f94565b600083815260209020601f19861690835b8281101561102d578685013582556020948501946001909201910161100d565b508682101561104a5760001960f88860031b161c19848701351681555b505060018560011b0183555050505050565b60208152816020820152818360408301376000818301604090810191909152601f909201601f19160101919050565b808201808211156110ac57634e487b7160e01b600052601160045260246000fd5b9291505056fe60c0604052600160025534801561001557600080fd5b50604051613cb0380380613cb083398101604081905261003491610128565b6001600160a01b03821661005b5760405163e6c4247b60e01b815260040160405180910390fd5b6001600160a01b0381166100825760405163e6c4247b60e01b815260040160405180910390fd5b600080546001600160a01b0319166001600160a01b03848116919091179091558116608052604051309082906100b7906100ff565b6001600160a01b03928316815291166020820152604001604051809103906000f0801580156100ea573d6000803e3d6000fd5b506001600160a01b031660a0525061015b9050565b61165f8061265183390190565b80516001600160a01b038116811461012357600080fd5b919050565b6000806040838503121561013b57600080fd5b6101448361010c565b91506101526020840161010c565b90509250929050565b60805160a0516124846101cd6000396000818161048c0152818161065a015281816107080152818161098101528181610e27015281816118070152818161194b0152611a350152600081816103b00152818161056801528181610bc80152818161164e01526116c901526124846000f3fe6080604052600436106101235760003560e01c80638ded65eb116100a0578063f3fef3a311610064578063f3fef3a314610412578063f6326fb314610432578063f851a4401461043a578063f8b2cb4f1461045a578063fbfa77cf1461047a57600080fd5b80638ded65eb14610335578063c3c5a54714610355578063c45a01551461039e578063d1d06b2e146103d2578063e3e3b883146103f257600080fd5b80633d1828b7116100e75780633d1828b71461021e5780634b615a521461024c5780635fba3171146102c75780636b1426a4146102e7578063704b6c021461031557600080fd5b80631a536b9b146101685780631aa3a0081461018a5780631b2c02f21461019f5780632273f76d146101dc578063338b5dea146101fe57600080fd5b366101635760405162461bcd60e51b815260206004820152600b60248201526a1554d157d1115413d4d25560aa1b60448201526064015b60405180910390fd5b600080fd5b34801561017457600080fd5b50610188610183366004611ebb565b6104ae565b005b34801561019657600080fd5b506101886107db565b3480156101ab57600080fd5b506101bf6101ba366004611ebb565b610851565b6040516001600160a01b0390911681526020015b60405180910390f35b3480156101e857600080fd5b506101f16108a6565b6040516101d39190611f10565b34801561020a57600080fd5b50610188610219366004611f52565b6108fe565b34801561022a57600080fd5b5061023e610239366004611fb9565b6109eb565b6040519081526020016101d3565b34801561025857600080fd5b5061026c610267366004611ebb565b610c39565b604080516001600160a01b0390991689526001600160401b03909716602089015263ffffffff9586169688019690965293909216606086015260ff16608085015260a0840152151560c083015260e0820152610100016101d3565b3480156102d357600080fd5b506101886102e2366004611ebb565b610d12565b3480156102f357600080fd5b50610307610302366004611ebb565b610eb4565b6040516101d3929190612086565b34801561032157600080fd5b506101886103303660046120e7565b611046565b34801561034157600080fd5b50610188610350366004612104565b6110f3565b34801561036157600080fd5b5061038e6103703660046120e7565b6001600160a01b031660009081526001602052604090205460ff1690565b60405190151581526020016101d3565b3480156103aa57600080fd5b506101bf7f000000000000000000000000000000000000000000000000000000000000000081565b3480156103de57600080fd5b506101886103ed366004611ebb565b6112f8565b3480156103fe57600080fd5b5061018861040d366004611ebb565b6116be565b34801561041e57600080fd5b5061018861042d366004611f52565b61176d565b6101886118fb565b34801561044657600080fd5b506000546101bf906001600160a01b031681565b34801561046657600080fd5b5061023e6104753660046120e7565b611a13565b34801561048657600080fd5b506101bf7f000000000000000000000000000000000000000000000000000000000000000081565b6000546001600160a01b031633146104d957604051634755657960e01b815260040160405180910390fd5b6000818152600460205260408120906002820154600160201b900460ff16600481111561050857610508612183565b1461052657604051631be3277160e31b815260040160405180910390fd5b600181015442600160a01b9091046001600160401b03161161055b576040516372e54d4d60e01b815260040160405180910390fd5b60008160030154905060007f00000000000000000000000000000000000000000000000000000000000000006001600160a01b03166361d027b36040518163ffffffff1660e01b8152600401602060405180830381865afa1580156105c4573d6000803e3d6000fd5b505050506040513d601f19601f820116820180604052508101906105e89190612199565b90506001600160a01b038116156106b957600060646106088460016121cc565b61061291906121f9565b905080156106b757610624818461220d565b600185015460405163bb7706d760e01b81526001600160a01b0391821660048201528482166024820152604481018490529194507f0000000000000000000000000000000000000000000000000000000000000000169063bb7706d790606401600060405180830381600087803b15801561069e57600080fd5b505af11580156106b2573d6000803e3d6000fd5b505050505b505b60038301829055600183015460405163f99dd23f60e01b8152600481018690526001600160a01b03808316602483015260448201859052600160a01b9092046001600160401b031660648201527f00000000000000000000000000000000000000000000000000000000000000009091169063f99dd23f90608401600060405180830381600087803b15801561074e57600080fd5b505af1158015610762573d6000803e3d6000fd5b5050505060028301805464ff000000001916600160201b179055600183015460408051848152600160a01b83046001600160401b0316602082015281516001600160a01b039093169287927feee363108fd9bf7ae127cd06f3248ba46a0c00310ff78069422b76163d80dade928290030190a350505050565b3360009081526001602052604090205460ff161561080c57604051630ea075bf60e21b815260040160405180910390fd5b336000818152600160208190526040808320805460ff1916909217909155517f2d3734a8e47ac8316e500ac231c90a6e1848ca2285f40d07eaa52005e4b3a0e99190a2565b60008181526004602052604081206001810154600160a01b90046001600160401b0316820361089357604051632b0fdd7560e01b815260040160405180910390fd5b600101546001600160a01b031692915050565b606060038054806020026020016040519081016040528092919081815260200182805480156108f457602002820191906000526020600020905b8154815260200190600101908083116108e0575b5050505050905090565b6000546001600160a01b0316331461092957604051634755657960e01b815260040160405180910390fd5b6001600160a01b0382166109505760405163e6c4247b60e01b815260040160405180910390fd5b8060000361097157604051631f2a200560e01b815260040160405180910390fd5b6109a66001600160a01b038316337f000000000000000000000000000000000000000000000000000000000000000084611aa8565b6040518181526001600160a01b0383169033907fa34888965a2504126e7429fbc1063f30608255b265001b98bc88e8bd3108588a906020015b60405180910390a35050565b600080546001600160a01b03163314610a1757604051634755657960e01b815260040160405180910390fd5b8463ffffffff16600003610a3e57604051633728feb360e01b815260040160405180910390fd5b42866001600160401b031611610a67576040516372e54d4d60e01b815260040160405180910390fd5b82600003610a8857604051631f2a200560e01b815260040160405180910390fd5b60028054906000610a9883612220565b90915550600081815260046020526040902090915080610ab98a8c836122d5565b506001818101805463ffffffff898116600160e01b026001600160e01b036001600160401b038d16600160a01b026001600160e01b03199094166001600160a01b038f1690811794909417161790925560028401805492891664ffffffffff1990931692909217909155600380840187905560048401805460ff1916871515179055805492830181556000527fc2575a0e9e593c00f959f8c92f12db2869c3395a3b0502d05e2516446f71f85b90910183905560405183907f818611256f2fc2c80d80bfd9f7dba8fb4a8d6fb58a540345847c5f2feca7043890610baa908e908e908d908d908d908d908d90612394565b60405180910390a3604051630e65c07d60e41b8152600481018390527f00000000000000000000000000000000000000000000000000000000000000006001600160a01b03169063e65c07d090602401600060405180830381600087803b158015610c1457600080fd5b505af1158015610c28573d6000803e3d6000fd5b505050505098975050505050505050565b60008181526004602052604081206001810154829182918291829182918291829190600160a01b90046001600160401b03168203610c8a57604051632b0fdd7560e01b815260040160405180910390fd5b600181015460028201546001600160a01b038216916001600160401b03600160a01b8204169163ffffffff600160e01b90920482169181169060ff600160201b909104166004811115610cdf57610cdf612183565b60038601546004870154600590970154959e50939c50919a5098509650945060ff90911692509050919395975091939597565b6000546001600160a01b03163314610d3d57604051634755657960e01b815260040160405180910390fd5b600081815260046020526040902060016002820154600160201b900460ff166004811115610d6d57610d6d612183565b14610d8b57604051634065aaf160e11b815260040160405180910390fd5b6001810154600160a01b90046001600160401b0316421015610dc057604051631a6031a360e31b815260040160405180910390fd5b600581015415610de35760405163ea1e54b760e01b815260040160405180910390fd5b60028101805464040000000064ff00000000199091161790556001810154604051630791352560e41b8152600481018490526001600160a01b0391821660248201527f000000000000000000000000000000000000000000000000000000000000000090911690637913525090604401600060405180830381600087803b158015610e6d57600080fd5b505af1158015610e81573d6000803e3d6000fd5b50506040518492507f7fa78bab5d5570f162c69234a3f4d1b9294fd5bca72219cb16c1fe38839ccb8a9150600090a25050565b60008181526004602052604081206001810154606092839291600160a01b90046001600160401b03169003610efc57604051632b0fdd7560e01b815260040160405180910390fd5b6007810154806001600160401b03811115610f1957610f19612239565b604051908082528060200260200182016040528015610f42578160200160208202803683370190505b509350806001600160401b03811115610f5d57610f5d612239565b604051908082528060200260200182016040528015610f86578160200160208202803683370190505b50925060005b8181101561103e57826007018181548110610fa957610fa96123f8565b9060005260206000200160009054906101000a90046001600160a01b0316858281518110610fd957610fd96123f8565b60200260200101906001600160a01b031690816001600160a01b03168152505082600801818154811061100e5761100e6123f8565b906000526020600020015484828151811061102b5761102b6123f8565b6020908102919091010152600101610f8c565b505050915091565b6000546001600160a01b0316331461107157604051634755657960e01b815260040160405180910390fd5b6001600160a01b0381166110985760405163e6c4247b60e01b815260040160405180910390fd5b600080546040516001600160a01b03808516939216917f7e644d79422f17c01e4894b5f4f588d331ebfa28653d42ae832dc59e38c9798f91a3600080546001600160a01b0319166001600160a01b0392909216919091179055565b600083815260046020526040902060016002820154600160201b900460ff16600481111561112357611123612183565b1461114157604051634065aaf160e11b815260040160405180910390fd5b6001810154600160a01b90046001600160401b031642106111755760405163502fd88d60e01b815260040160405180910390fd5b60005b828110156112f157600282015463ffffffff16158015906111a957506002820154600583015463ffffffff90911611155b156111c75760405163502fd88d60e01b815260040160405180910390fd5b60008484838181106111db576111db6123f8565b90506020020160208101906111f091906120e7565b6001600160a01b038116600090815260068501602052604090205490915060ff161561122e57604051621d934160e11b815260040160405180910390fd5b600483015460ff1615611274576001600160a01b03811660009081526001602052604090205460ff166112745760405163841799d560e01b815260040160405180910390fd5b6001600160a01b03811660008181526006850160209081526040808320805460ff191660019081179091556005880180549182018155845291832090910180546001600160a01b031916841790555188917f8dafe7d2071ebc41334e0a69b339b8853d8288641394d545a7cadb785a544b8491a350600101611178565b5050505050565b6000546001600160a01b0316331461132357604051634755657960e01b815260040160405180910390fd5b600081815260046020526040902060016002820154600160201b900460ff16600481111561135357611353612183565b1461137157604051634065aaf160e11b815260040160405180910390fd5b60018101546002820154600160a01b9091046001600160401b03164210159060009063ffffffff16158015906113b757506002830154600584015463ffffffff90911611155b9050811580156113c5575080155b156113e357604051631a6031a360e31b815260040160405180910390fd5b60058301546001840154600160e01b900463ffffffff16808210156114055750805b600061141260014361220d565b600187015460408051924060208401523060601b6bffffffffffffffffffffffff1916908301526054820189905260748201859052600160a01b900460c01b6001600160c01b0319166094820152609c016040516020818303038152906040528051906020012090506000836001600160401b0381111561149557611495612239565b6040519080825280602002602001820160405280156114be578160200160208202803683370190505b50905060005b84811015611531578760050181815481106114e1576114e16123f8565b9060005260206000200160009054906101000a90046001600160a01b0316828281518110611511576115116123f8565b6001600160a01b03909216602092830291909101909101526001016114c4565b50600061153f828585611b08565b80519091506115579060078a01906020840190611e06565b50600061156989600301548351611cb1565b80519091506115819060088b01906020840190611e6b565b5060005b82518110156115e25760018a60090160008584815181106115a8576115a86123f8565b6020908102919091018101516001600160a01b03168252810191909152604001600020805460ff1916911515919091179055600101611585565b506002898101805464ff000000001916600160201b830217905550838a7f6dd00223930d8eb76cc4877f2f329a75e614a1c4a7ef684b6d279d3b4c0661b38484604051611630929190612086565b60405180910390a360405163b4bbaa0160e01b8152600481018b90527f00000000000000000000000000000000000000000000000000000000000000006001600160a01b03169063b4bbaa0190602401600060405180830381600087803b15801561169a57600080fd5b505af11580156116ae573d6000803e3d6000fd5b5050505050505050505050505050565b336001600160a01b037f0000000000000000000000000000000000000000000000000000000000000000161461170757604051630636a15760e11b815260040160405180910390fd5b6000818152600460205260409020600280820154600160201b900460ff16600481111561173657611736612183565b14611754576040516361ee4f6b60e11b815260040160405180910390fd5b600201805464ff00000000191664030000000017905550565b6000546001600160a01b0316331461179857604051634755657960e01b815260040160405180910390fd5b600081116117d65760405162461bcd60e51b815260206004820152600b60248201526a16915493d7d05353d5539560aa1b604482015260640161015a565b600054604051631ed9b4b960e01b81526001600160a01b0384811660048301529182166024820152604481018390527f000000000000000000000000000000000000000000000000000000000000000090911690631ed9b4b990606401600060405180830381600087803b15801561184d57600080fd5b505af1158015611861573d6000803e3d6000fd5b5050506001600160a01b03831690506118ba576000546040518281526001600160a01b03909116907f5817fe91d2748c33f168d8a78037fc073adaf6ec8e3613a758d44a2cfae4563d9060200160405180910390a25050565b6000546040518281526001600160a01b038481169216907f11dd463c4f2edd676b85f050130c7ab2f5832f52becb5444b09a92404aa1498a906020016109df565b6000546001600160a01b0316331461192657604051634755657960e01b815260040160405180910390fd5b3460000361194757604051631f2a200560e01b815260040160405180910390fd5b60007f00000000000000000000000000000000000000000000000000000000000000006001600160a01b03163460405160006040518083038185875af1925050503d80600081146119b4576040519150601f19603f3d011682016040523d82523d6000602084013e6119b9565b606091505b50509050806119db576040516302038a7d60e11b815260040160405180910390fd5b60405134815233907f296fa4a1573775154b81fc1dac882e862e7da59a2d5adca4be330d41c4610d379060200160405180910390a250565b60405163f8b2cb4f60e01b81526001600160a01b0382811660048301526000917f00000000000000000000000000000000000000000000000000000000000000009091169063f8b2cb4f90602401602060405180830381865afa158015611a7e573d6000803e3d6000fd5b505050506040513d601f19601f82011682018060405250810190611aa2919061240e565b92915050565b604080516001600160a01b0385811660248301528416604482015260648082018490528251808303909101815260849091019091526020810180516001600160e01b03166323b872dd60e01b179052611b02908590611d95565b50505050565b606060008363ffffffff166001600160401b03811115611b2a57611b2a612239565b604051908082528060200260200182016040528015611b53578160200160208202803683370190505b50855190915060005b8563ffffffff16811015611ca6576000611b76828461220d565b60408051602081018990529081018490526060016040516020818303038152906040528051906020012060001c611bad9190612427565b90506000888381518110611bc357611bc36123f8565b60200260200101519050888284611bda919061243b565b81518110611bea57611bea6123f8565b6020026020010151898481518110611c0457611c046123f8565b6001600160a01b03909216602092830291909101909101528089611c28848661243b565b81518110611c3857611c386123f8565b60200260200101906001600160a01b031690816001600160a01b031681525050888381518110611c6a57611c6a6123f8565b6020026020010151858481518110611c8457611c846123f8565b6001600160a01b03909216602092830291909101909101525050600101611b5c565b509095945050505050565b606081600003611cd457604051633728feb360e01b815260040160405180910390fd5b816001600160401b03811115611cec57611cec612239565b604051908082528060200260200182016040528015611d15578160200160208202803683370190505b5090506000611d2483856121f9565b90506000611d3284836121cc565b611d3c908661220d565b905060005b84811015611d8c57818110611d57576000611d5a565b60015b611d679060ff168461243b565b848281518110611d7957611d796123f8565b6020908102919091010152600101611d41565b50505092915050565b600080602060008451602086016000885af180611db8576040513d6000823e3d81fd5b50506000513d91508115611dd0578060011415611ddd565b6001600160a01b0384163b155b15611b0257604051635274afe760e01b81526001600160a01b038516600482015260240161015a565b828054828255906000526020600020908101928215611e5b579160200282015b82811115611e5b57825182546001600160a01b0319166001600160a01b03909116178255602090920191600190910190611e26565b50611e67929150611ea6565b5090565b828054828255906000526020600020908101928215611e5b579160200282015b82811115611e5b578251825591602001919060010190611e8b565b5b80821115611e675760008155600101611ea7565b600060208284031215611ecd57600080fd5b5035919050565b600081518084526020840193506020830160005b82811015611f06578151865260209586019590910190600101611ee8565b5093949350505050565b602081526000611f236020830184611ed4565b9392505050565b6001600160a01b0381168114611f3f57600080fd5b50565b8035611f4d81611f2a565b919050565b60008060408385031215611f6557600080fd5b8235611f7081611f2a565b946020939093013593505050565b80356001600160401b0381168114611f4d57600080fd5b803563ffffffff81168114611f4d57600080fd5b80358015158114611f4d57600080fd5b60008060008060008060008060e0898b031215611fd557600080fd5b88356001600160401b03811115611feb57600080fd5b8901601f81018b13611ffc57600080fd5b80356001600160401b0381111561201257600080fd5b8b602082840101111561202457600080fd5b602091820199509750612038908a01611f42565b955061204660408a01611f7e565b945061205460608a01611f95565b935061206260808a01611f95565b925060a0890135915061207760c08a01611fa9565b90509295985092959890939650565b6040808252835190820181905260009060208501906060840190835b818110156120c95783516001600160a01b03168352602093840193909201916001016120a2565b505083810360208501526120dd8186611ed4565b9695505050505050565b6000602082840312156120f957600080fd5b8135611f2381611f2a565b60008060006040848603121561211957600080fd5b8335925060208401356001600160401b0381111561213657600080fd5b8401601f8101861361214757600080fd5b80356001600160401b0381111561215d57600080fd5b8660208260051b840101111561217257600080fd5b939660209190910195509293505050565b634e487b7160e01b600052602160045260246000fd5b6000602082840312156121ab57600080fd5b8151611f2381611f2a565b634e487b7160e01b600052601160045260246000fd5b8082028115828204841417611aa257611aa26121b6565b634e487b7160e01b600052601260045260246000fd5b600082612208576122086121e3565b500490565b81810381811115611aa257611aa26121b6565b600060018201612232576122326121b6565b5060010190565b634e487b7160e01b600052604160045260246000fd5b600181811c9082168061226357607f821691505b60208210810361228357634e487b7160e01b600052602260045260246000fd5b50919050565b601f8211156122d057806000526020600020601f840160051c810160208510156122b05750805b601f840160051c820191505b818110156112f157600081556001016122bc565b505050565b6001600160401b038311156122ec576122ec612239565b612300836122fa835461224f565b83612289565b6000601f841160018114612334576000851561231c5750838201355b600019600387901b1c1916600186901b1783556112f1565b600083815260209020601f19861690835b828110156123655786850135825560209485019460019092019101612345565b50868210156123825760001960f88860031b161c19848701351681555b505060018560011b0183555050505050565b60c081528660c0820152868860e0830137600060e08883018101919091526001600160401b0396909616602082015263ffffffff9485166040820152929093166060830152608082015290151560a0820152601f909201601f191690910101919050565b634e487b7160e01b600052603260045260246000fd5b60006020828403121561242057600080fd5b5051919050565b600082612436576124366121e3565b500690565b80820180821115611aa257611aa26121b656fea2646970667358221220ca5d90afb93c60b33dde956cf5f0d5eb75376b2f60527367680afe07138ab7d364736f6c634300081c003360c060405234801561001057600080fd5b5060405161165f38038061165f83398101604081905261002f916100f9565b6001600160a01b03821661007e5760405162461bcd60e51b8152602060048201526011602482015270494e56414c49445f434f4d4d554e49545960781b60448201526064015b60405180910390fd5b6001600160a01b0381166100c65760405162461bcd60e51b815260206004820152600f60248201526e494e56414c49445f464143544f525960881b6044820152606401610075565b6001600160a01b039182166080521660a05261012c565b80516001600160a01b03811681146100f457600080fd5b919050565b6000806040838503121561010c57600080fd5b610115836100dd565b9150610123602084016100dd565b90509250929050565b60805160a0516114e461017b600039600081816101ab01526106de015260008181610227015281816103300152818161053801528181610ae201528181610cb20152610e1c01526114e46000f3fe6080604052600436106100ab5760003560e01c8063c45a015511610064578063c45a015514610199578063cf745f6c146101e5578063dc1fb5a514610215578063e923c98a14610249578063f8b2cb4f146102e5578063f99dd23f1461030557600080fd5b80631ed9b4b9146100b75780633d357b02146100d95780634792dc871461010c5780637913525014610139578063988413dd14610159578063bb7706d71461017957600080fd5b366100b257005b600080fd5b3480156100c357600080fd5b506100d76100d236600461113e565b610325565b005b3480156100e557600080fd5b506100f96100f436600461117f565b6104fb565b6040519081526020015b60405180910390f35b34801561011857600080fd5b506100f961012736600461117f565b60006020819052908152604090205481565b34801561014557600080fd5b506100d76101543660046111a3565b61052d565b34801561016557600080fd5b506100d761017436600461121f565b6106d3565b34801561018557600080fd5b506100d761019436600461113e565b610ad7565b3480156101a557600080fd5b506101cd7f000000000000000000000000000000000000000000000000000000000000000081565b6040516001600160a01b039091168152602001610103565b3480156101f157600080fd5b506102056102003660046111a3565b610c55565b6040519015158152602001610103565b34801561022157600080fd5b506101cd7f000000000000000000000000000000000000000000000000000000000000000081565b34801561025557600080fd5b506102ae6102643660046111a3565b6001602081815260009384526040808520909152918352912080549181015460029091015467ffffffffffffffff82169160ff600160401b8204811692600160481b909204169085565b6040805195865267ffffffffffffffff9094166020860152911515928401929092529015156060830152608082015260a001610103565b3480156102f157600080fd5b506100f961030036600461117f565b610d92565b34801561031157600080fd5b506100d76103203660046112c6565b610e11565b336001600160a01b037f000000000000000000000000000000000000000000000000000000000000000016146103765760405162461bcd60e51b815260040161036d90611310565b60405180910390fd5b600081116103965760405162461bcd60e51b815260040161036d90611338565b6001600160a01b0383166000908152602081905260408120546103b885610d92565b6103c29190611373565b90508181101561040d5760405162461bcd60e51b8152602060048201526016602482015275494e53554646494349454e545f415641494c41424c4560501b604482015260640161036d565b6001600160a01b038416610494576000836001600160a01b03168360405160006040518083038185875af1925050503d8060008114610468576040519150601f19603f3d011682016040523d82523d6000602084013e61046d565b606091505b505090508061048e5760405162461bcd60e51b815260040161036d90611386565b506104a8565b6104a86001600160a01b038516848461105e565b826001600160a01b0316846001600160a01b03167fd1c19fbcd4551a5edfb66d43d2e337c04837afda3482b42bdf569a8fccdae5fb846040516104ed91815260200190565b60405180910390a350505050565b6001600160a01b03811660009081526020819052604081205461051d83610d92565b6105279190611373565b92915050565b336001600160a01b037f000000000000000000000000000000000000000000000000000000000000000016146105755760405162461bcd60e51b815260040161036d90611310565b60008281526001602081815260408084206001600160a01b038616855290915290912090810154600160401b900460ff166105df5760405162461bcd60e51b815260206004820152600a6024820152691393d517d313d0d2d15160b21b604482015260640161036d565b6001810154600160481b900460ff161561062f5760405162461bcd60e51b81526020600482015260116024820152701053149150511657d11254d0955494d151607a1b604482015260640161036d565b80546001600160a01b03831660009081526020819052604081208054839290610659908490611373565b909155505060008481526001602081815260408084206001600160a01b0388168086529252808420848155928301805469ffffffffffffffffffff191690556002909201929092555185907ff1c2201ab8d3afe0ab6336204843b66bb25c5f27d6de3490c9a463fd18d294a9906104ed9085815260200190565b336001600160a01b037f0000000000000000000000000000000000000000000000000000000000000000161461073a5760405162461bcd60e51b815260206004820152600c60248201526b4f4e4c595f464143544f525960a01b604482015260640161036d565b8281146107785760405162461bcd60e51b815260206004820152600c60248201526b0988a9cbe9a92a69a82a886960a31b604482015260640161036d565b6107828686610c55565b6107c05760405162461bcd60e51b815260206004820152600f60248201526e54494d454c4f434b5f41435449564560881b604482015260640161036d565b60008681526001602090815260408083206001600160a01b0389168452909152812090805b85811015610a2a576000878783818110610801576108016113b3565b9050602002016020810190610816919061117f565b9050600086868481811061082c5761082c6113b3565b60200291909101359150506001600160a01b03821661087a5760405162461bcd60e51b815260206004820152600a602482015269494e56414c49445f544f60b01b604482015260640161036d565b6000811161089a5760405162461bcd60e51b815260040161036d90611338565b845460028601546108ac9083906113c9565b11156108e45760405162461bcd60e51b81526020600482015260076024820152664f56455250415960c81b604482015260640161036d565b6001600160a01b038a1661096b576000826001600160a01b03168260405160006040518083038185875af1925050503d806000811461093f576040519150601f19603f3d011682016040523d82523d6000602084013e610944565b606091505b50509050806109655760405162461bcd60e51b815260040161036d90611386565b5061097f565b61097f6001600160a01b038b16838361105e565b8085600201600082825461099391906113c9565b90915550506001600160a01b038a16600090815260208190526040812080548392906109c0908490611373565b909155506109d0905081856113c9565b9350816001600160a01b03168a6001600160a01b03168c7f2a156326ec22774ffa31f45f5f5990405e41eb6fe44e1d600934ab445cf3c0c184604051610a1891815260200190565b60405180910390a450506001016107e5565b50866001600160a01b0316887f32783f5493ddd65b3d8bb7bcbe6c08b4d3266223afd87f940a456dcd86074b6e83604051610a6791815260200190565b60405180910390a38154600283015403610acd5760018201805469ff0000000000000000001916600160481b1790556040516001600160a01b0388169089907fa6efdaf5c9f54b66d8444894d554fd5fbc60fd07836aedcc7eb5020fd187260290600090a35b5050505050505050565b336001600160a01b037f00000000000000000000000000000000000000000000000000000000000000001614610b1f5760405162461bcd60e51b815260040161036d90611310565b60008111610b3f5760405162461bcd60e51b815260040161036d90611338565b6001600160a01b038316600090815260208190526040812054610b6185610d92565b610b6b9190611373565b905081811015610bb45760405162461bcd60e51b8152602060048201526014602482015273494e53554646494349454e545f464f525f46454560601b604482015260640161036d565b6001600160a01b038416610c3b576000836001600160a01b03168360405160006040518083038185875af1925050503d8060008114610c0f576040519150601f19603f3d011682016040523d82523d6000602084013e610c14565b606091505b5050905080610c355760405162461bcd60e51b815260040161036d90611386565b50610c4f565b610c4f6001600160a01b038516848461105e565b50505050565b60008281526001602081815260408084206001600160a01b0386168552909152822090810154600160401b900460ff161580610c9c57506001810154600160481b900460ff165b15610cab576000915050610527565b60008060007f00000000000000000000000000000000000000000000000000000000000000006001600160a01b0316634b615a52886040518263ffffffff1660e01b8152600401610cfe91815260200190565b61010060405180830381865afa158015610d1c573d6000803e3d6000fd5b505050506040513d601f19601f82011682018060405250810190610d4091906113f5565b975050505094505093505060008367ffffffffffffffff1642101590506000808463ffffffff16118015610d7a57508363ffffffff168310155b90508180610d855750805b9998505050505050505050565b60006001600160a01b038216610da9575047919050565b6040516370a0823160e01b81523060048201526001600160a01b038316906370a0823190602401602060405180830381865afa158015610ded573d6000803e3d6000fd5b505050506040513d601f19601f820116820180604052508101906105279190611495565b336001600160a01b037f00000000000000000000000000000000000000000000000000000000000000001614610e595760405162461bcd60e51b815260040161036d90611310565b428167ffffffffffffffff1611610ea45760405162461bcd60e51b815260206004820152600f60248201526e1153911512535157d25397d41054d5608a1b604482015260640161036d565b60008211610ec45760405162461bcd60e51b815260040161036d90611338565b60008481526001602081815260408084206001600160a01b038816855290915290912090810154600160401b900460ff1615610f335760405162461bcd60e51b815260206004820152600e60248201526d1053149150511657d313d0d2d15160921b604482015260640161036d565b6000610f3e85610d92565b6001600160a01b03861660009081526020819052604081205491925090610f659083611373565b905084811015610fb05760405162461bcd60e51b8152602060048201526016602482015275494e53554646494349454e545f415641494c41424c4560501b604482015260640161036d565b84835560018301805468ffffffffffffffffff191667ffffffffffffffff861617600160401b1790556001600160a01b038616600090815260208190526040812080548792906110019084906113c9565b90915550506040805186815267ffffffffffffffff861660208201526001600160a01b0388169189917f1b2647ac67960126f97ff0f07f3f647fb18657e8c057387ca2caa1667fcacca5910160405180910390a350505050505050565b604080516001600160a01b038416602482015260448082018490528251808303909101815260649091019091526020810180516001600160e01b031663a9059cbb60e01b1790526110b09084906110b5565b505050565b600080602060008451602086016000885af1806110d8576040513d6000823e3d81fd5b50506000513d915081156110f05780600114156110fd565b6001600160a01b0384163b155b15610c4f57604051635274afe760e01b81526001600160a01b038516600482015260240161036d565b6001600160a01b038116811461113b57600080fd5b50565b60008060006060848603121561115357600080fd5b833561115e81611126565b9250602084013561116e81611126565b929592945050506040919091013590565b60006020828403121561119157600080fd5b813561119c81611126565b9392505050565b600080604083850312156111b657600080fd5b8235915060208301356111c881611126565b809150509250929050565b60008083601f8401126111e557600080fd5b50813567ffffffffffffffff8111156111fd57600080fd5b6020830191508360208260051b850101111561121857600080fd5b9250929050565b6000806000806000806080878903121561123857600080fd5b86359550602087013561124a81611126565b9450604087013567ffffffffffffffff81111561126657600080fd5b61127289828a016111d3565b909550935050606087013567ffffffffffffffff81111561129257600080fd5b61129e89828a016111d3565b979a9699509497509295939492505050565b67ffffffffffffffff8116811461113b57600080fd5b600080600080608085870312156112dc57600080fd5b8435935060208501356112ee81611126565b9250604085013591506060850135611305816112b0565b939692955090935050565b6020808252600e908201526d4f4e4c595f434f4d4d554e49545960901b604082015260600190565b6020808252600b908201526a16915493d7d05353d5539560aa1b604082015260600190565b634e487b7160e01b600052601160045260246000fd5b818103818111156105275761052761135d565b60208082526013908201527211551217d514905394d1915497d19052531151606a1b604082015260600190565b634e487b7160e01b600052603260045260246000fd5b808201808211156105275761052761135d565b805163ffffffff811681146113f057600080fd5b919050565b600080600080600080600080610100898b03121561141257600080fd5b885161141d81611126565b60208a015190985061142e816112b0565b965061143c60408a016113dc565b955061144a60608a016113dc565b9450608089015160ff8116811461146057600080fd5b60a08a015160c08b01519195509350801515811461147d57600080fd5b60e09990990151979a96995094979396929591945050565b6000602082840312156114a757600080fd5b505191905056fea26469706673582212206c65acea7247d87ed9a97e62f693d5de0bc72bbdbef865a2e83da45edde3295164736f6c634300081c0033a26469706673582212204f562d28f148c55d8c8479294fe816b58119e502ca88659e316aba2a470ffe7964736f6c634300081c0033",
  "linkReferences": {},
  "deployedLinkReferences": {}
}